{"contracts/InvyFi.sol":{"InvyFi":{"abi":[{"inputs":[{"internalType":"address","name":"_pli","type":"address"}],"stateMutability":"nonpayable","type":"constructor"},{"anonymous":false,"inputs":[{"indexed":false,"internalType":"string","name":"_symbol","type":"string"},{"indexed":false,"internalType":"address","name":"_destination","type":"address"}],"name":"KeyAddressAdded","type":"event"},{"anonymous":false,"inputs":[{"indexed":false,"internalType":"address","name":"_lender","type":"address"},{"indexed":false,"internalType":"uint256","name":"_amount","type":"uint256"},{"indexed":false,"internalType":"uint256","name":"_lendingid","type":"uint256"}],"name":"LendingOffered","type":"event"},{"anonymous":false,"inputs":[{"indexed":false,"internalType":"address","name":"_borrower","type":"address"},{"indexed":false,"internalType":"string","name":"_status","type":"string"}],"name":"LoanAcceptStatus","type":"event"},{"anonymous":false,"inputs":[{"indexed":false,"internalType":"address","name":"_lender","type":"address"},{"indexed":false,"internalType":"uint256","name":"_loanreqid","type":"uint256"},{"indexed":false,"internalType":"uint256","name":"_amount","type":"uint256"}],"name":"LoanClaimed","type":"event"},{"anonymous":false,"inputs":[{"indexed":false,"internalType":"address","name":"_borrower","type":"address"},{"indexed":false,"internalType":"uint256","name":"_loanreqid","type":"uint256"},{"indexed":false,"internalType":"uint256","name":"_amount","type":"uint256"}],"name":"LoanPaidBack","type":"event"},{"anonymous":false,"inputs":[{"indexed":false,"internalType":"address","name":"_borrower","type":"address"},{"indexed":false,"internalType":"uint256","name":"_amount","type":"uint256"},{"indexed":false,"internalType":"uint256","name":"_reqid","type":"uint256"}],"name":"LoanRequested","type":"event"},{"anonymous":false,"inputs":[{"indexed":false,"internalType":"address","name":"account","type":"address"}],"name":"Paused","type":"event"},{"anonymous":false,"inputs":[{"indexed":true,"internalType":"bytes32","name":"id","type":"bytes32"}],"name":"PluginCancelled","type":"event"},{"anonymous":false,"inputs":[{"indexed":true,"internalType":"bytes32","name":"id","type":"bytes32"}],"name":"PluginFulfilled","type":"event"},{"anonymous":false,"inputs":[{"indexed":true,"internalType":"bytes32","name":"id","type":"bytes32"}],"name":"PluginRequested","type":"event"},{"anonymous":false,"inputs":[{"indexed":false,"internalType":"address","name":"account","type":"address"}],"name":"Unpaused","type":"event"},{"anonymous":false,"inputs":[{"indexed":false,"internalType":"address","name":"_to","type":"address"},{"indexed":false,"internalType":"bool","name":"_flag","type":"bool"}],"name":"WhiteListed","type":"event"},{"inputs":[{"internalType":"uint256","name":"_loanReqId","type":"uint256"},{"internalType":"uint256","name":"_loanAmountOffered","type":"uint256"},{"internalType":"uint256","name":"_interestRate","type":"uint256"},{"internalType":"uint256","name":"_daysToExpire","type":"uint256"},{"internalType":"enum InvyFi.Assets","name":"_assets","type":"uint8"}],"name":"AcceptLoanRequestAndLend","outputs":[],"stateMutability":"payable","type":"function"},{"inputs":[],"name":"ONE_DAY","outputs":[{"internalType":"uint256","name":"","type":"uint256"}],"stateMutability":"view","type":"function"},{"inputs":[{"internalType":"uint256","name":"_loanReqId","type":"uint256"},{"internalType":"enum InvyFi.State","name":"state","type":"uint8"}],"name":"acceptOrDenyLoanOffer","outputs":[],"stateMutability":"payable","type":"function"},{"inputs":[{"internalType":"uint256","name":"_lendingId","type":"uint256"}],"name":"claimLoan","outputs":[],"stateMutability":"payable","type":"function"},{"inputs":[{"internalType":"uint256","name":"_invoiceAmount","type":"uint256"},{"internalType":"uint256","name":"_loanEligibility","type":"uint256"},{"internalType":"uint256","name":"_loanToAcquire","type":"uint256"},{"internalType":"address","name":"_loanRequestedIn","type":"address"},{"internalType":"uint256","name":"_tokenId","type":"uint256"}],"name":"createLoanRequest","outputs":[{"internalType":"uint256","name":"","type":"uint256"}],"stateMutability":"nonpayable","type":"function"},{"inputs":[{"internalType":"string","name":"","type":"string"}],"name":"keyMappings","outputs":[{"internalType":"address","name":"","type":"address"}],"stateMutability":"view","type":"function"},{"inputs":[{"internalType":"uint256","name":"","type":"uint256"}],"name":"lendingDetails","outputs":[{"internalType":"uint256","name":"lendingId","type":"uint256"},{"internalType":"uint256","name":"loanReqId","type":"uint256"},{"internalType":"uint256","name":"lendingAmount","type":"uint256"},{"internalType":"uint256","name":"earnings","type":"uint256"},{"internalType":"address","name":"lender","type":"address"},{"internalType":"enum InvyFi.State","name":"state","type":"uint8"},{"internalType":"bool","name":"isLoanClaimedBack","type":"bool"}],"stateMutability":"view","type":"function"},{"inputs":[{"internalType":"address","name":"","type":"address"},{"internalType":"uint256","name":"","type":"uint256"}],"name":"loanBorrower","outputs":[{"internalType":"uint256","name":"loanReqId","type":"uint256"},{"internalType":"uint256","name":"invoiceAmount","type":"uint256"},{"internalType":"uint256","name":"loanEligibility","type":"uint256"},{"internalType":"uint256","name":"loanAcquired","type":"uint256"},{"internalType":"address","name":"loanRequestedIn","type":"address"},{"internalType":"uint256","name":"currentPrincipal","type":"uint256"},{"internalType":"uint256","name":"initialPrincipal","type":"uint256"},{"internalType":"uint256","name":"interestRate","type":"uint256"},{"internalType":"uint256","name":"expiresAt","type":"uint256"},{"internalType":"uint256","name":"createdAt","type":"uint256"},{"internalType":"address","name":"borrower","type":"address"},{"internalType":"address","name":"lender","type":"address"},{"internalType":"uint256","name":"nftTokenId","type":"uint256"},{"internalType":"enum InvyFi.State","name":"state","type":"uint8"}],"stateMutability":"view","type":"function"},{"inputs":[{"internalType":"uint256","name":"","type":"uint256"}],"name":"loanDetails","outputs":[{"internalType":"uint256","name":"loanReqId","type":"uint256"},{"internalType":"uint256","name":"invoiceAmount","type":"uint256"},{"internalType":"uint256","name":"loanEligibility","type":"uint256"},{"internalType":"uint256","name":"loanAcquired","type":"uint256"},{"internalType":"address","name":"loanRequestedIn","type":"address"},{"internalType":"uint256","name":"currentPrincipal","type":"uint256"},{"internalType":"uint256","name":"initialPrincipal","type":"uint256"},{"internalType":"uint256","name":"interestRate","type":"uint256"},{"internalType":"uint256","name":"expiresAt","type":"uint256"},{"internalType":"uint256","name":"createdAt","type":"uint256"},{"internalType":"address","name":"borrower","type":"address"},{"internalType":"address","name":"lender","type":"address"},{"internalType":"uint256","name":"nftTokenId","type":"uint256"},{"internalType":"enum InvyFi.State","name":"state","type":"uint8"}],"stateMutability":"view","type":"function"},{"inputs":[{"internalType":"address","name":"","type":"address"},{"internalType":"uint256","name":"","type":"uint256"}],"name":"loanIssuer","outputs":[{"internalType":"uint256","name":"lendingId","type":"uint256"},{"internalType":"uint256","name":"loanReqId","type":"uint256"},{"internalType":"uint256","name":"lendingAmount","type":"uint256"},{"internalType":"uint256","name":"earnings","type":"uint256"},{"internalType":"address","name":"lender","type":"address"},{"internalType":"enum InvyFi.State","name":"state","type":"uint8"},{"internalType":"bool","name":"isLoanClaimedBack","type":"bool"}],"stateMutability":"view","type":"function"},{"inputs":[{"internalType":"uint256","name":"_loanReqId","type":"uint256"},{"internalType":"uint256","name":"_amount","type":"uint256"}],"name":"loanPayBack","outputs":[],"stateMutability":"payable","type":"function"},{"inputs":[],"name":"owner","outputs":[{"internalType":"address","name":"","type":"address"}],"stateMutability":"view","type":"function"},{"inputs":[],"name":"paused","outputs":[{"internalType":"bool","name":"","type":"bool"}],"stateMutability":"view","type":"function"},{"inputs":[{"internalType":"address","name":"_to","type":"address"},{"internalType":"bool","name":"_flag","type":"bool"}],"name":"setWhiteList","outputs":[],"stateMutability":"nonpayable","type":"function"},{"inputs":[{"internalType":"string","name":"_name","type":"string"},{"internalType":"address","name":"_destination","type":"address"}],"name":"updateKeymappings","outputs":[],"stateMutability":"nonpayable","type":"function"},{"inputs":[{"internalType":"address","name":"","type":"address"}],"name":"whitelist","outputs":[{"internalType":"bool","name":"","type":"bool"}],"stateMutability":"view","type":"function"},{"stateMutability":"payable","type":"receive"}],"evm":{"bytecode":{"linkReferences":{},"object":"608060405260016004553480156200001657600080fd5b5060405162001eb738038062001eb78339810160408190526200003991620000b6565b60016006556007805460ff19169055600280546001600160a01b0319166001600160a01b038316179055600a8054336001600160a01b03199091161790556200008f6008620000ad602090811b6200116817901c565b620000a66009620000ad60201b620011681760201c565b50620000e8565b80546001019055565b600060208284031215620000c957600080fd5b81516001600160a01b0381168114620000e157600080fd5b9392505050565b611dbf80620000f86000396000f3fe6080604052600436106100f75760003560e01c80638d14e1271161008a578063af7d86b911610059578063af7d86b914610384578063c8d5bc01146103a4578063e6a7622e146103e5578063f2b8789f146103f857600080fd5b80638d14e127146102e95780638da5cb5b146103095780639b19251a14610341578063a3a8d31b1461037157600080fd5b80635c975abb116100c65780635c975abb1461019157806361261ab2146101b55780637aa489bb1461021e578063863e76db146102d257600080fd5b806309af8574146101035780630c0ed417146101365780634304f7e21461016957806353a469b31461017e57600080fd5b366100fe57005b600080fd5b34801561010f57600080fd5b5061012361011e366004611874565b610418565b6040519081526020015b60405180910390f35b34801561014257600080fd5b506101566101513660046118bb565b610766565b60405161012d979695949392919061191d565b61017c610177366004611969565b6107d3565b005b61017c61018c3660046119ba565b610972565b34801561019d57600080fd5b5060075460ff165b604051901515815260200161012d565b3480156101c157600080fd5b506101566101d03660046119ba565b600e6020526000908152604090208054600182015460028301546003840154600490940154929391929091906001600160a01b0381169060ff600160a01b8204811691600160a81b90041687565b34801561022a57600080fd5b506102b86102393660046119ba565b600c60208190526000918252604090912080546001820154600283015460038401546004850154600586015460068701546007880154600889015460098a0154600a8b0154600b8c01549c8c0154600d909c01549a9c999b989a97996001600160a01b0397881699969895979496939592949182169391169160ff168e565b60405161012d9e9d9c9b9a999897969594939291906119d3565b3480156102de57600080fd5b506101236201518081565b3480156102f557600080fd5b5061017c610304366004611a6c565b610b9a565b34801561031557600080fd5b50600a54610329906001600160a01b031681565b6040516001600160a01b03909116815260200161012d565b34801561034d57600080fd5b506101a561035c366004611aa3565b600b6020526000908152604090205460ff1681565b61017c61037f366004611abe565b610c48565b34801561039057600080fd5b506102b861039f3660046118bb565b610d45565b3480156103b057600080fd5b506103296103bf366004611b83565b80516020818301810180516010825292820191909301209152546001600160a01b031681565b61017c6103f3366004611bb8565b610de3565b34801561040457600080fd5b5061017c610413366004611be1565b6110a6565b6000610422611171565b600061042d60085490565b9050604051806101c0016040528061044460085490565b8152602001888152602001878152602001868152602001856001600160a01b031681526020016000815260200160008152602001600081526020016000815260200160008152602001336001600160a01b0316815260200160006001600160a01b03168152602001848152602001600060078111156104c5576104c56118e5565b60078111156104d6576104d66118e5565b9052600c60006104e560085490565b8152602080820192909252604090810160002083518155918301516001808401919091559083015160028301556060830151600383015560808301516004830180546001600160a01b03199081166001600160a01b039384161790915560a0850151600585015560c0850151600685015560e085015160078086019190915561010086015160088601556101208601516009860155610140860151600a860180548416918516919091179055610160860151600b860180549093169316929092179055610180840151600c8401556101a0840151600d840180549193909260ff199092169184908111156105db576105db6118e5565b021790555050336000908152600d602052604081209150600c906105fe60085490565b81526020808201929092526040016000908120835460018181018655948352929091208154600e909302019182558281015482840155600280820154908301556003808201549083015560048082015490830180546001600160a01b03199081166001600160a01b03938416179091556005808401549085015560068084015490850155600780840154818601556008808501549086015560098085015490860155600a8085015490860180548416918516919091179055600b8085015490860180549093169316929092179055600c8083015490840155600d808301549084018054939560ff90921693909260ff1990911691908490811115610704576107046118e5565b02179055505050610719600880546001019055565b7f7468760830aff5679376e50470c0493d21c88c599388e89b08c9512b3f3fbc7d338861074560085490565b60405161075493929190611c2f565b60405180910390a19695505050505050565b600f602052816000526040600020818154811061078257600080fd5b60009182526020909120600590910201805460018201546002830154600384015460049094015492955090935091906001600160a01b0381169060ff600160a01b8204811691600160a81b90041687565b6107db611171565b4260006107eb62015180856111b9565b905060006107f983836111ce565b6000898152600c60205260409020600881018290556009810185905560038101899055600681018990556005810189905560078101889055600b810180546001600160a01b03191633179055600d01805491925060019160ff191682800217905550600184600381111561086f5761086f6118e5565b036108ae576108ae8760106040516108909062504c4960e81b815260030190565b908152604051908190036020019020546001600160a01b03166111da565b60028460038111156108c2576108c26118e5565b036108e3576108e3876010604051610890906243474f60e81b815260030190565b60038460038111156108f7576108f76118e5565b0361091b5761091b87601060405161089090655553504c555360d01b815260060190565b6109258888611200565b7fbb79982110a43cea0c37e81a30713ae2c51acdb54ff84b994f6d0ffad72eaebc338861095160095490565b60405161096093929190611c2f565b60405180910390a15050505050505050565b61097a611171565b6000818152600e60209081526040808320815160e081018352815481526001820154938101939093526002810154918301919091526003810154606083015260048101546001600160a01b038116608084015260a0830190600160a01b900460ff1660078111156109ed576109ed6118e5565b60078111156109fe576109fe6118e5565b815260049190910154600160a81b900460ff161515602091820152818101516000908152600c90915260409020600b01549091506001600160a01b03163314610a8e5760405162461bcd60e51b815260206004820152601a60248201527f4f6e6c79206c656e6465722063616e20636c61696d206261636b00000000000060448201526064015b60405180910390fd5b6000828152600e6020526040902060040154600160a81b900460ff1615610aee5760405162461bcd60e51b8152602060048201526014602482015273131bd85b88185b1c9958591e4818db185a5b595960621b6044820152606401610a85565b6000828152600e602090815260408083206004808201805461ffff60a01b1916604160a21b179055600290910154858401518552600c909352922090910154610b4191906001600160a01b0316336113f4565b7f5a44e54e6176ee37f7560c3927abc3a9ff36b91a4e176e99e4349d314f0b812b338260200151600e600086815260200190815260200160002060020154604051610b8e93929190611c2f565b60405180910390a15050565b600a546001600160a01b03163314610bec5760405162461bcd60e51b81526020600482015260156024820152746f6e6c79206f776e65722063616e2075706461746560581b6044820152606401610a85565b6001600160a01b0382166000818152600b6020908152604091829020805460ff19168515159081179091558251938452908301527f84ac0234e7a1ba4fc29d3f83d9bb91c347b3be5a168a035675f8b5bb1d4b1d7c9101610b8e565b610c50611171565b6000828152600c60205260409020600a01546001600160a01b03163314610cb95760405162461bcd60e51b815260206004820152601a60248201527f4f6e6c7920426f72726f7765722063616e20706179206261636b0000000000006044820152606401610a85565b6000828152600c6020526040902060050154610cd59082611400565b6000838152600c602052604090206005810191909155600d8101805460ff1916600317905560040154610d129082906001600160a01b03166111da565b7f99e4fcb2ed30f260349583791c95b0fc82f5283e7b45bf2168dfd659c208bdbd338383604051610b8e93929190611c2f565b600d6020528160005260406000208181548110610d6157600080fd5b60009182526020909120600e9091020180546001820154600283015460038401546004850154600586015460068701546007880154600889015460098a0154600a8b0154600b8c0154600c8d0154600d909d01549b9e50999c50979a96996001600160a01b039687169995989497939692959194831693919092169160ff168e565b610deb611171565b6000828152600c6020818152604080842081516101c081018352815481526001820154938101939093526002810154918301919091526003810154606083015260048101546001600160a01b039081166080840152600582015460a0840152600682015460c084015260078083015460e085015260088301546101008501526009830154610120850152600a8301548216610140850152600b83015490911661016084015292810154610180830152600d810154919290916101a084019160ff90911690811115610ebe57610ebe6118e5565b6007811115610ecf57610ecf6118e5565b8152505090508061014001516001600160a01b0316336001600160a01b031614610f4e5760405162461bcd60e51b815260206004820152602a60248201527f4f6e6c7920426f72726f7765722063616e20616363657074206f722044656e79604482015269103a34329037b33332b960b11b6064820152608401610a85565b6000838152600c60205260409020600d01805483919060ff19166001836007811115610f7c57610f7c6118e5565b02179055506002826007811115610f9557610f956118e5565b0361100457610fb2816060015182608001518361014001516113f4565b6040805133815260208101829052600881830152671058d8d95c1d195960c21b606082015290517f9fc23e5defa88077cb299bfde5885bd1534503d789719ea5a449c7c2244a7bc39181900360800190a15b6005826007811115611018576110186118e5565b036110a1576000838152600c6020526040902060038101546004820154600b90920154611051926001600160a01b0390811691166113f4565b60408051338152602081018290526006818301526511195b9a595960d21b606082015290517f9fc23e5defa88077cb299bfde5885bd1534503d789719ea5a449c7c2244a7bc39181900360800190a15b505050565b600a546001600160a01b031633146110f85760405162461bcd60e51b81526020600482015260156024820152746f6e6c79206f776e65722063616e2075706461746560581b6044820152606401610a85565b806010836040516111099190611c74565b90815260405190819003602001812080546001600160a01b03939093166001600160a01b0319909316929092179091557fea875ad889ce70b5dafbf825355f0c4adcb3814f4ab2a1f1a0f80c39a431f45690610b8e9084908490611cbc565b80546001019055565b60075460ff16156111b75760405162461bcd60e51b815260206004820152601060248201526f14185d5cd8589b194e881c185d5cd95960821b6044820152606401610a85565b565b60006111c58284611cfc565b90505b92915050565b60006111c58284611d13565b6111e533828461140c565b6111f03382846114d5565b6111fc81333085611596565b5050565b6040518060e0016040528061121460095490565b815260208101849052604081018390526000606082015233608082015260a0016001815260200160001515815250600e600061124f60095490565b815260208082019290925260409081016000208351815591830151600183015582015160028201556060820151600382015560808201516004820180546001600160a01b039092166001600160a01b031983168117825560a0850151926001600160a81b03191617600160a01b8360078111156112ce576112ce6118e5565b021790555060c0919091015160049091018054911515600160a81b0260ff60a81b19909216919091179055336000908152600f6020526040812090600e9061131560095490565b81526020808201929092526040016000908120835460018181018655948352929091208154600590930201918255828101549282019290925560028083015490820155600380830154908201556004808301805491830180546001600160a01b031981166001600160a01b039094169384178255915460ff600160a01b91829004169391926001600160a81b031916909117908360078111156113ba576113ba6118e5565b02179055506004918201549101805460ff60a81b1916600160a81b9283900460ff1615159092029190911790556009805460010190555050565b6110a182308386611596565b60006111c58284611d26565b6040516370a0823160e01b81526001600160a01b0384811660048301528291908416906370a0823190602401602060405180830381865afa158015611455573d6000803e3d6000fd5b505050506040513d601f19601f820116820180604052508101906114799190611d39565b10156110a15760405162461bcd60e51b815260206004820152602560248201527f496e567946793a20696e73756666696369656e742063757272656e63792062616044820152646c616e636560d81b6064820152608401610a85565b604051636eb1769f60e11b81526001600160a01b03848116600483015230602483015282919084169063dd62ed3e90604401602060405180830381865afa158015611524573d6000803e3d6000fd5b505050506040513d601f19601f820116820180604052508101906115489190611d39565b10156110a15760405162461bcd60e51b815260206004820152601f60248201527f496e567946793a20696e73756666696369656e7420616c6c6f77616e63652e006044820152606401610a85565b604080516001600160a01b0385811660248301528416604482015260648082018490528251808303909101815260849091019091526020810180516001600160e01b03166323b872dd60e01b1790526115f09085906115f6565b50505050565b600061164b826040518060400160405280602081526020017f5361666545524332303a206c6f772d6c6576656c2063616c6c206661696c6564815250856001600160a01b03166116c89092919063ffffffff16565b8051909150156110a157808060200190518101906116699190611d52565b6110a15760405162461bcd60e51b815260206004820152602a60248201527f5361666545524332303a204552433230206f7065726174696f6e20646964206e6044820152691bdd081cdd58d8d9595960b21b6064820152608401610a85565b60606116d784846000856116df565b949350505050565b6060824710156117405760405162461bcd60e51b815260206004820152602660248201527f416464726573733a20696e73756666696369656e742062616c616e636520666f6044820152651c8818d85b1b60d21b6064820152608401610a85565b600080866001600160a01b0316858760405161175c9190611c74565b60006040518083038185875af1925050503d8060008114611799576040519150601f19603f3d011682016040523d82523d6000602084013e61179e565b606091505b50915091506117af878383876117ba565b979650505050505050565b60608315611829578251600003611822576001600160a01b0385163b6118225760405162461bcd60e51b815260206004820152601d60248201527f416464726573733a2063616c6c20746f206e6f6e2d636f6e74726163740000006044820152606401610a85565b50816116d7565b6116d7838381511561183e5781518083602001fd5b8060405162461bcd60e51b8152600401610a859190611d76565b80356001600160a01b038116811461186f57600080fd5b919050565b600080600080600060a0868803121561188c57600080fd5b8535945060208601359350604086013592506118aa60608701611858565b949793965091946080013592915050565b600080604083850312156118ce57600080fd5b6118d783611858565b946020939093013593505050565b634e487b7160e01b600052602160045260246000fd5b6008811061191957634e487b7160e01b600052602160045260246000fd5b9052565b8781526020810187905260408101869052606081018590526001600160a01b038416608082015260e0810161195560a08301856118fb565b82151560c083015298975050505050505050565b600080600080600060a0868803121561198157600080fd5b853594506020860135935060408601359250606086013591506080860135600481106119ac57600080fd5b809150509295509295909350565b6000602082840312156119cc57600080fd5b5035919050565b60006101c0820190508f82528e60208301528d60408301528c606083015260018060a01b03808d1660808401528b60a08401528a60c08401528960e084015288610100840152876101208401528087166101408401528086166101608401525083610180830152611a486101a08301846118fb565b9f9e505050505050505050505050505050565b8015158114611a6957600080fd5b50565b60008060408385031215611a7f57600080fd5b611a8883611858565b91506020830135611a9881611a5b565b809150509250929050565b600060208284031215611ab557600080fd5b6111c582611858565b60008060408385031215611ad157600080fd5b50508035926020909101359150565b634e487b7160e01b600052604160045260246000fd5b600082601f830112611b0757600080fd5b813567ffffffffffffffff80821115611b2257611b22611ae0565b604051601f8301601f19908116603f01168101908282118183101715611b4a57611b4a611ae0565b81604052838152866020858801011115611b6357600080fd5b836020870160208301376000602085830101528094505050505092915050565b600060208284031215611b9557600080fd5b813567ffffffffffffffff811115611bac57600080fd5b6116d784828501611af6565b60008060408385031215611bcb57600080fd5b82359150602083013560088110611a9857600080fd5b60008060408385031215611bf457600080fd5b823567ffffffffffffffff811115611c0b57600080fd5b611c1785828601611af6565b925050611c2660208401611858565b90509250929050565b6001600160a01b039390931683526020830191909152604082015260600190565b60005b83811015611c6b578181015183820152602001611c53565b50506000910152565b60008251611c86818460208701611c50565b9190910192915050565b60008151808452611ca8816020860160208601611c50565b601f01601f19169290920160200192915050565b604081526000611ccf6040830185611c90565b905060018060a01b03831660208301529392505050565b634e487b7160e01b600052601160045260246000fd5b80820281158282048414176111c8576111c8611ce6565b808201808211156111c8576111c8611ce6565b818103818111156111c8576111c8611ce6565b600060208284031215611d4b57600080fd5b5051919050565b600060208284031215611d6457600080fd5b8151611d6f81611a5b565b9392505050565b6020815260006111c56020830184611c9056fea26469706673582212206a1eebb0835ebe8c7686a24bea6a3c60a620f424d5b96167bd2f32a84578bb3864736f6c63430008110033","opcodes":"PUSH1 0x80 PUSH1 0x40 MSTORE PUSH1 0x1 PUSH1 0x4 SSTORE CALLVALUE DUP1 ISZERO PUSH3 0x16 JUMPI PUSH1 0x0 DUP1 REVERT JUMPDEST POP PUSH1 0x40 MLOAD PUSH3 0x1EB7 CODESIZE SUB DUP1 PUSH3 0x1EB7 DUP4 CODECOPY DUP2 ADD PUSH1 0x40 DUP2 SWAP1 MSTORE PUSH3 0x39 SWAP2 PUSH3 0xB6 JUMP JUMPDEST PUSH1 0x1 PUSH1 0x6 SSTORE PUSH1 0x7 DUP1 SLOAD PUSH1 0xFF NOT AND SWAP1 SSTORE PUSH1 0x2 DUP1 SLOAD PUSH1 0x1 PUSH1 0x1 PUSH1 0xA0 SHL SUB NOT AND PUSH1 0x1 PUSH1 0x1 PUSH1 0xA0 SHL SUB DUP4 AND OR SWAP1 SSTORE PUSH1 0xA DUP1 SLOAD CALLER PUSH1 0x1 PUSH1 0x1 PUSH1 0xA0 SHL SUB NOT SWAP1 SWAP2 AND OR SWAP1 SSTORE PUSH3 0x8F PUSH1 0x8 PUSH3 0xAD PUSH1 0x20 SWAP1 DUP2 SHL PUSH3 0x1168 OR SWAP1 SHR JUMP JUMPDEST PUSH3 0xA6 PUSH1 0x9 PUSH3 0xAD PUSH1 0x20 SHL PUSH3 0x1168 OR PUSH1 0x20 SHR JUMP JUMPDEST POP PUSH3 0xE8 JUMP JUMPDEST DUP1 SLOAD PUSH1 0x1 ADD SWAP1 SSTORE JUMP JUMPDEST PUSH1 0x0 PUSH1 0x20 DUP3 DUP5 SUB SLT ISZERO PUSH3 0xC9 JUMPI PUSH1 0x0 DUP1 REVERT JUMPDEST DUP2 MLOAD PUSH1 0x1 PUSH1 0x1 PUSH1 0xA0 SHL SUB DUP2 AND DUP2 EQ PUSH3 0xE1 JUMPI PUSH1 0x0 DUP1 REVERT JUMPDEST SWAP4 SWAP3 POP POP POP JUMP JUMPDEST PUSH2 0x1DBF DUP1 PUSH3 0xF8 PUSH1 0x0 CODECOPY PUSH1 0x0 RETURN INVALID PUSH1 0x80 PUSH1 0x40 MSTORE PUSH1 0x4 CALLDATASIZE LT PUSH2 0xF7 JUMPI PUSH1 0x0 CALLDATALOAD PUSH1 0xE0 SHR DUP1 PUSH4 0x8D14E127 GT PUSH2 0x8A JUMPI DUP1 PUSH4 0xAF7D86B9 GT PUSH2 0x59 JUMPI DUP1 PUSH4 0xAF7D86B9 EQ PUSH2 0x384 JUMPI DUP1 PUSH4 0xC8D5BC01 EQ PUSH2 0x3A4 JUMPI DUP1 PUSH4 0xE6A7622E EQ PUSH2 0x3E5 JUMPI DUP1 PUSH4 0xF2B8789F EQ PUSH2 0x3F8 JUMPI PUSH1 0x0 DUP1 REVERT JUMPDEST DUP1 PUSH4 0x8D14E127 EQ PUSH2 0x2E9 JUMPI DUP1 PUSH4 0x8DA5CB5B EQ PUSH2 0x309 JUMPI DUP1 PUSH4 0x9B19251A EQ PUSH2 0x341 JUMPI DUP1 PUSH4 0xA3A8D31B EQ PUSH2 0x371 JUMPI PUSH1 0x0 DUP1 REVERT JUMPDEST DUP1 PUSH4 0x5C975ABB GT PUSH2 0xC6 JUMPI DUP1 PUSH4 0x5C975ABB EQ PUSH2 0x191 JUMPI DUP1 PUSH4 0x61261AB2 EQ PUSH2 0x1B5 JUMPI DUP1 PUSH4 0x7AA489BB EQ PUSH2 0x21E JUMPI DUP1 PUSH4 0x863E76DB EQ PUSH2 0x2D2 JUMPI PUSH1 0x0 DUP1 REVERT JUMPDEST DUP1 PUSH4 0x9AF8574 EQ PUSH2 0x103 JUMPI DUP1 PUSH4 0xC0ED417 EQ PUSH2 0x136 JUMPI DUP1 PUSH4 0x4304F7E2 EQ PUSH2 0x169 JUMPI DUP1 PUSH4 0x53A469B3 EQ PUSH2 0x17E JUMPI PUSH1 0x0 DUP1 REVERT JUMPDEST CALLDATASIZE PUSH2 0xFE JUMPI STOP JUMPDEST PUSH1 0x0 DUP1 REVERT JUMPDEST CALLVALUE DUP1 ISZERO PUSH2 0x10F JUMPI PUSH1 0x0 DUP1 REVERT JUMPDEST POP PUSH2 0x123 PUSH2 0x11E CALLDATASIZE PUSH1 0x4 PUSH2 0x1874 JUMP JUMPDEST PUSH2 0x418 JUMP JUMPDEST PUSH1 0x40 MLOAD SWAP1 DUP2 MSTORE PUSH1 0x20 ADD JUMPDEST PUSH1 0x40 MLOAD DUP1 SWAP2 SUB SWAP1 RETURN JUMPDEST CALLVALUE DUP1 ISZERO PUSH2 0x142 JUMPI PUSH1 0x0 DUP1 REVERT JUMPDEST POP PUSH2 0x156 PUSH2 0x151 CALLDATASIZE PUSH1 0x4 PUSH2 0x18BB JUMP JUMPDEST PUSH2 0x766 JUMP JUMPDEST PUSH1 0x40 MLOAD PUSH2 0x12D SWAP8 SWAP7 SWAP6 SWAP5 SWAP4 SWAP3 SWAP2 SWAP1 PUSH2 0x191D JUMP JUMPDEST PUSH2 0x17C PUSH2 0x177 CALLDATASIZE PUSH1 0x4 PUSH2 0x1969 JUMP JUMPDEST PUSH2 0x7D3 JUMP JUMPDEST STOP JUMPDEST PUSH2 0x17C PUSH2 0x18C CALLDATASIZE PUSH1 0x4 PUSH2 0x19BA JUMP JUMPDEST PUSH2 0x972 JUMP JUMPDEST CALLVALUE DUP1 ISZERO PUSH2 0x19D JUMPI PUSH1 0x0 DUP1 REVERT JUMPDEST POP PUSH1 0x7 SLOAD PUSH1 0xFF AND JUMPDEST PUSH1 0x40 MLOAD SWAP1 ISZERO ISZERO DUP2 MSTORE PUSH1 0x20 ADD PUSH2 0x12D JUMP JUMPDEST CALLVALUE DUP1 ISZERO PUSH2 0x1C1 JUMPI PUSH1 0x0 DUP1 REVERT JUMPDEST POP PUSH2 0x156 PUSH2 0x1D0 CALLDATASIZE PUSH1 0x4 PUSH2 0x19BA JUMP JUMPDEST PUSH1 0xE PUSH1 0x20 MSTORE PUSH1 0x0 SWAP1 DUP2 MSTORE PUSH1 0x40 SWAP1 KECCAK256 DUP1 SLOAD PUSH1 0x1 DUP3 ADD SLOAD PUSH1 0x2 DUP4 ADD SLOAD PUSH1 0x3 DUP5 ADD SLOAD PUSH1 0x4 SWAP1 SWAP5 ADD SLOAD SWAP3 SWAP4 SWAP2 SWAP3 SWAP1 SWAP2 SWAP1 PUSH1 0x1 PUSH1 0x1 PUSH1 0xA0 SHL SUB DUP2 AND SWAP1 PUSH1 0xFF PUSH1 0x1 PUSH1 0xA0 SHL DUP3 DIV DUP2 AND SWAP2 PUSH1 0x1 PUSH1 0xA8 SHL SWAP1 DIV AND DUP8 JUMP JUMPDEST CALLVALUE DUP1 ISZERO PUSH2 0x22A JUMPI PUSH1 0x0 DUP1 REVERT JUMPDEST POP PUSH2 0x2B8 PUSH2 0x239 CALLDATASIZE PUSH1 0x4 PUSH2 0x19BA JUMP JUMPDEST PUSH1 0xC PUSH1 0x20 DUP2 SWAP1 MSTORE PUSH1 0x0 SWAP2 DUP3 MSTORE PUSH1 0x40 SWAP1 SWAP2 KECCAK256 DUP1 SLOAD PUSH1 0x1 DUP3 ADD SLOAD PUSH1 0x2 DUP4 ADD SLOAD PUSH1 0x3 DUP5 ADD SLOAD PUSH1 0x4 DUP6 ADD SLOAD PUSH1 0x5 DUP7 ADD SLOAD PUSH1 0x6 DUP8 ADD SLOAD PUSH1 0x7 DUP9 ADD SLOAD PUSH1 0x8 DUP10 ADD SLOAD PUSH1 0x9 DUP11 ADD SLOAD PUSH1 0xA DUP12 ADD SLOAD PUSH1 0xB DUP13 ADD SLOAD SWAP13 DUP13 ADD SLOAD PUSH1 0xD SWAP1 SWAP13 ADD SLOAD SWAP11 SWAP13 SWAP10 SWAP12 SWAP9 SWAP11 SWAP8 SWAP10 PUSH1 0x1 PUSH1 0x1 PUSH1 0xA0 SHL SUB SWAP8 DUP9 AND SWAP10 SWAP7 SWAP9 SWAP6 SWAP8 SWAP5 SWAP7 SWAP4 SWAP6 SWAP3 SWAP5 SWAP2 DUP3 AND SWAP4 SWAP2 AND SWAP2 PUSH1 0xFF AND DUP15 JUMP JUMPDEST PUSH1 0x40 MLOAD PUSH2 0x12D SWAP15 SWAP14 SWAP13 SWAP12 SWAP11 SWAP10 SWAP9 SWAP8 SWAP7 SWAP6 SWAP5 SWAP4 SWAP3 SWAP2 SWAP1 PUSH2 0x19D3 JUMP JUMPDEST CALLVALUE DUP1 ISZERO PUSH2 0x2DE JUMPI PUSH1 0x0 DUP1 REVERT JUMPDEST POP PUSH2 0x123 PUSH3 0x15180 DUP2 JUMP JUMPDEST CALLVALUE DUP1 ISZERO PUSH2 0x2F5 JUMPI PUSH1 0x0 DUP1 REVERT JUMPDEST POP PUSH2 0x17C PUSH2 0x304 CALLDATASIZE PUSH1 0x4 PUSH2 0x1A6C JUMP JUMPDEST PUSH2 0xB9A JUMP JUMPDEST CALLVALUE DUP1 ISZERO PUSH2 0x315 JUMPI PUSH1 0x0 DUP1 REVERT JUMPDEST POP PUSH1 0xA SLOAD PUSH2 0x329 SWAP1 PUSH1 0x1 PUSH1 0x1 PUSH1 0xA0 SHL SUB AND DUP2 JUMP JUMPDEST PUSH1 0x40 MLOAD PUSH1 0x1 PUSH1 0x1 PUSH1 0xA0 SHL SUB SWAP1 SWAP2 AND DUP2 MSTORE PUSH1 0x20 ADD PUSH2 0x12D JUMP JUMPDEST CALLVALUE DUP1 ISZERO PUSH2 0x34D JUMPI PUSH1 0x0 DUP1 REVERT JUMPDEST POP PUSH2 0x1A5 PUSH2 0x35C CALLDATASIZE PUSH1 0x4 PUSH2 0x1AA3 JUMP JUMPDEST PUSH1 0xB PUSH1 0x20 MSTORE PUSH1 0x0 SWAP1 DUP2 MSTORE PUSH1 0x40 SWAP1 KECCAK256 SLOAD PUSH1 0xFF AND DUP2 JUMP JUMPDEST PUSH2 0x17C PUSH2 0x37F CALLDATASIZE PUSH1 0x4 PUSH2 0x1ABE JUMP JUMPDEST PUSH2 0xC48 JUMP JUMPDEST CALLVALUE DUP1 ISZERO PUSH2 0x390 JUMPI PUSH1 0x0 DUP1 REVERT JUMPDEST POP PUSH2 0x2B8 PUSH2 0x39F CALLDATASIZE PUSH1 0x4 PUSH2 0x18BB JUMP JUMPDEST PUSH2 0xD45 JUMP JUMPDEST CALLVALUE DUP1 ISZERO PUSH2 0x3B0 JUMPI PUSH1 0x0 DUP1 REVERT JUMPDEST POP PUSH2 0x329 PUSH2 0x3BF CALLDATASIZE PUSH1 0x4 PUSH2 0x1B83 JUMP JUMPDEST DUP1 MLOAD PUSH1 0x20 DUP2 DUP4 ADD DUP2 ADD DUP1 MLOAD PUSH1 0x10 DUP3 MSTORE SWAP3 DUP3 ADD SWAP2 SWAP1 SWAP4 ADD KECCAK256 SWAP2 MSTORE SLOAD PUSH1 0x1 PUSH1 0x1 PUSH1 0xA0 SHL SUB AND DUP2 JUMP JUMPDEST PUSH2 0x17C PUSH2 0x3F3 CALLDATASIZE PUSH1 0x4 PUSH2 0x1BB8 JUMP JUMPDEST PUSH2 0xDE3 JUMP JUMPDEST CALLVALUE DUP1 ISZERO PUSH2 0x404 JUMPI PUSH1 0x0 DUP1 REVERT JUMPDEST POP PUSH2 0x17C PUSH2 0x413 CALLDATASIZE PUSH1 0x4 PUSH2 0x1BE1 JUMP JUMPDEST PUSH2 0x10A6 JUMP JUMPDEST PUSH1 0x0 PUSH2 0x422 PUSH2 0x1171 JUMP JUMPDEST PUSH1 0x0 PUSH2 0x42D PUSH1 0x8 SLOAD SWAP1 JUMP JUMPDEST SWAP1 POP PUSH1 0x40 MLOAD DUP1 PUSH2 0x1C0 ADD PUSH1 0x40 MSTORE DUP1 PUSH2 0x444 PUSH1 0x8 SLOAD SWAP1 JUMP JUMPDEST DUP2 MSTORE PUSH1 0x20 ADD DUP9 DUP2 MSTORE PUSH1 0x20 ADD DUP8 DUP2 MSTORE PUSH1 0x20 ADD DUP7 DUP2 MSTORE PUSH1 0x20 ADD DUP6 PUSH1 0x1 PUSH1 0x1 PUSH1 0xA0 SHL SUB AND DUP2 MSTORE PUSH1 0x20 ADD PUSH1 0x0 DUP2 MSTORE PUSH1 0x20 ADD PUSH1 0x0 DUP2 MSTORE PUSH1 0x20 ADD PUSH1 0x0 DUP2 MSTORE PUSH1 0x20 ADD PUSH1 0x0 DUP2 MSTORE PUSH1 0x20 ADD PUSH1 0x0 DUP2 MSTORE PUSH1 0x20 ADD CALLER PUSH1 0x1 PUSH1 0x1 PUSH1 0xA0 SHL SUB AND DUP2 MSTORE PUSH1 0x20 ADD PUSH1 0x0 PUSH1 0x1 PUSH1 0x1 PUSH1 0xA0 SHL SUB AND DUP2 MSTORE PUSH1 0x20 ADD DUP5 DUP2 MSTORE PUSH1 0x20 ADD PUSH1 0x0 PUSH1 0x7 DUP2 GT ISZERO PUSH2 0x4C5 JUMPI PUSH2 0x4C5 PUSH2 0x18E5 JUMP JUMPDEST PUSH1 0x7 DUP2 GT ISZERO PUSH2 0x4D6 JUMPI PUSH2 0x4D6 PUSH2 0x18E5 JUMP JUMPDEST SWAP1 MSTORE PUSH1 0xC PUSH1 0x0 PUSH2 0x4E5 PUSH1 0x8 SLOAD SWAP1 JUMP JUMPDEST DUP2 MSTORE PUSH1 0x20 DUP1 DUP3 ADD SWAP3 SWAP1 SWAP3 MSTORE PUSH1 0x40 SWAP1 DUP2 ADD PUSH1 0x0 KECCAK256 DUP4 MLOAD DUP2 SSTORE SWAP2 DUP4 ADD MLOAD PUSH1 0x1 DUP1 DUP5 ADD SWAP2 SWAP1 SWAP2 SSTORE SWAP1 DUP4 ADD MLOAD PUSH1 0x2 DUP4 ADD SSTORE PUSH1 0x60 DUP4 ADD MLOAD PUSH1 0x3 DUP4 ADD SSTORE PUSH1 0x80 DUP4 ADD MLOAD PUSH1 0x4 DUP4 ADD DUP1 SLOAD PUSH1 0x1 PUSH1 0x1 PUSH1 0xA0 SHL SUB NOT SWAP1 DUP2 AND PUSH1 0x1 PUSH1 0x1 PUSH1 0xA0 SHL SUB SWAP4 DUP5 AND OR SWAP1 SWAP2 SSTORE PUSH1 0xA0 DUP6 ADD MLOAD PUSH1 0x5 DUP6 ADD SSTORE PUSH1 0xC0 DUP6 ADD MLOAD PUSH1 0x6 DUP6 ADD SSTORE PUSH1 0xE0 DUP6 ADD MLOAD PUSH1 0x7 DUP1 DUP7 ADD SWAP2 SWAP1 SWAP2 SSTORE PUSH2 0x100 DUP7 ADD MLOAD PUSH1 0x8 DUP7 ADD SSTORE PUSH2 0x120 DUP7 ADD MLOAD PUSH1 0x9 DUP7 ADD SSTORE PUSH2 0x140 DUP7 ADD MLOAD PUSH1 0xA DUP7 ADD DUP1 SLOAD DUP5 AND SWAP2 DUP6 AND SWAP2 SWAP1 SWAP2 OR SWAP1 SSTORE PUSH2 0x160 DUP7 ADD MLOAD PUSH1 0xB DUP7 ADD DUP1 SLOAD SWAP1 SWAP4 AND SWAP4 AND SWAP3 SWAP1 SWAP3 OR SWAP1 SSTORE PUSH2 0x180 DUP5 ADD MLOAD PUSH1 0xC DUP5 ADD SSTORE PUSH2 0x1A0 DUP5 ADD MLOAD PUSH1 0xD DUP5 ADD DUP1 SLOAD SWAP2 SWAP4 SWAP1 SWAP3 PUSH1 0xFF NOT SWAP1 SWAP3 AND SWAP2 DUP5 SWAP1 DUP2 GT ISZERO PUSH2 0x5DB JUMPI PUSH2 0x5DB PUSH2 0x18E5 JUMP JUMPDEST MUL OR SWAP1 SSTORE POP POP CALLER PUSH1 0x0 SWAP1 DUP2 MSTORE PUSH1 0xD PUSH1 0x20 MSTORE PUSH1 0x40 DUP2 KECCAK256 SWAP2 POP PUSH1 0xC SWAP1 PUSH2 0x5FE PUSH1 0x8 SLOAD SWAP1 JUMP JUMPDEST DUP2 MSTORE PUSH1 0x20 DUP1 DUP3 ADD SWAP3 SWAP1 SWAP3 MSTORE PUSH1 0x40 ADD PUSH1 0x0 SWAP1 DUP2 KECCAK256 DUP4 SLOAD PUSH1 0x1 DUP2 DUP2 ADD DUP7 SSTORE SWAP5 DUP4 MSTORE SWAP3 SWAP1 SWAP2 KECCAK256 DUP2 SLOAD PUSH1 0xE SWAP1 SWAP4 MUL ADD SWAP2 DUP3 SSTORE DUP3 DUP2 ADD SLOAD DUP3 DUP5 ADD SSTORE PUSH1 0x2 DUP1 DUP3 ADD SLOAD SWAP1 DUP4 ADD SSTORE PUSH1 0x3 DUP1 DUP3 ADD SLOAD SWAP1 DUP4 ADD SSTORE PUSH1 0x4 DUP1 DUP3 ADD SLOAD SWAP1 DUP4 ADD DUP1 SLOAD PUSH1 0x1 PUSH1 0x1 PUSH1 0xA0 SHL SUB NOT SWAP1 DUP2 AND PUSH1 0x1 PUSH1 0x1 PUSH1 0xA0 SHL SUB SWAP4 DUP5 AND OR SWAP1 SWAP2 SSTORE PUSH1 0x5 DUP1 DUP5 ADD SLOAD SWAP1 DUP6 ADD SSTORE PUSH1 0x6 DUP1 DUP5 ADD SLOAD SWAP1 DUP6 ADD SSTORE PUSH1 0x7 DUP1 DUP5 ADD SLOAD DUP2 DUP7 ADD SSTORE PUSH1 0x8 DUP1 DUP6 ADD SLOAD SWAP1 DUP7 ADD SSTORE PUSH1 0x9 DUP1 DUP6 ADD SLOAD SWAP1 DUP7 ADD SSTORE PUSH1 0xA DUP1 DUP6 ADD SLOAD SWAP1 DUP7 ADD DUP1 SLOAD DUP5 AND SWAP2 DUP6 AND SWAP2 SWAP1 SWAP2 OR SWAP1 SSTORE PUSH1 0xB DUP1 DUP6 ADD SLOAD SWAP1 DUP7 ADD DUP1 SLOAD SWAP1 SWAP4 AND SWAP4 AND SWAP3 SWAP1 SWAP3 OR SWAP1 SSTORE PUSH1 0xC DUP1 DUP4 ADD SLOAD SWAP1 DUP5 ADD SSTORE PUSH1 0xD DUP1 DUP4 ADD SLOAD SWAP1 DUP5 ADD DUP1 SLOAD SWAP4 SWAP6 PUSH1 0xFF SWAP1 SWAP3 AND SWAP4 SWAP1 SWAP3 PUSH1 0xFF NOT SWAP1 SWAP2 AND SWAP2 SWAP1 DUP5 SWAP1 DUP2 GT ISZERO PUSH2 0x704 JUMPI PUSH2 0x704 PUSH2 0x18E5 JUMP JUMPDEST MUL OR SWAP1 SSTORE POP POP POP PUSH2 0x719 PUSH1 0x8 DUP1 SLOAD PUSH1 0x1 ADD SWAP1 SSTORE JUMP JUMPDEST PUSH32 0x7468760830AFF5679376E50470C0493D21C88C599388E89B08C9512B3F3FBC7D CALLER DUP9 PUSH2 0x745 PUSH1 0x8 SLOAD SWAP1 JUMP JUMPDEST PUSH1 0x40 MLOAD PUSH2 0x754 SWAP4 SWAP3 SWAP2 SWAP1 PUSH2 0x1C2F JUMP JUMPDEST PUSH1 0x40 MLOAD DUP1 SWAP2 SUB SWAP1 LOG1 SWAP7 SWAP6 POP POP POP POP POP POP JUMP JUMPDEST PUSH1 0xF PUSH1 0x20 MSTORE DUP2 PUSH1 0x0 MSTORE PUSH1 0x40 PUSH1 0x0 KECCAK256 DUP2 DUP2 SLOAD DUP2 LT PUSH2 0x782 JUMPI PUSH1 0x0 DUP1 REVERT JUMPDEST PUSH1 0x0 SWAP2 DUP3 MSTORE PUSH1 0x20 SWAP1 SWAP2 KECCAK256 PUSH1 0x5 SWAP1 SWAP2 MUL ADD DUP1 SLOAD PUSH1 0x1 DUP3 ADD SLOAD PUSH1 0x2 DUP4 ADD SLOAD PUSH1 0x3 DUP5 ADD SLOAD PUSH1 0x4 SWAP1 SWAP5 ADD SLOAD SWAP3 SWAP6 POP SWAP1 SWAP4 POP SWAP2 SWAP1 PUSH1 0x1 PUSH1 0x1 PUSH1 0xA0 SHL SUB DUP2 AND SWAP1 PUSH1 0xFF PUSH1 0x1 PUSH1 0xA0 SHL DUP3 DIV DUP2 AND SWAP2 PUSH1 0x1 PUSH1 0xA8 SHL SWAP1 DIV AND DUP8 JUMP JUMPDEST PUSH2 0x7DB PUSH2 0x1171 JUMP JUMPDEST TIMESTAMP PUSH1 0x0 PUSH2 0x7EB PUSH3 0x15180 DUP6 PUSH2 0x11B9 JUMP JUMPDEST SWAP1 POP PUSH1 0x0 PUSH2 0x7F9 DUP4 DUP4 PUSH2 0x11CE JUMP JUMPDEST PUSH1 0x0 DUP10 DUP2 MSTORE PUSH1 0xC PUSH1 0x20 MSTORE PUSH1 0x40 SWAP1 KECCAK256 PUSH1 0x8 DUP2 ADD DUP3 SWAP1 SSTORE PUSH1 0x9 DUP2 ADD DUP6 SWAP1 SSTORE PUSH1 0x3 DUP2 ADD DUP10 SWAP1 SSTORE PUSH1 0x6 DUP2 ADD DUP10 SWAP1 SSTORE PUSH1 0x5 DUP2 ADD DUP10 SWAP1 SSTORE PUSH1 0x7 DUP2 ADD DUP9 SWAP1 SSTORE PUSH1 0xB DUP2 ADD DUP1 SLOAD PUSH1 0x1 PUSH1 0x1 PUSH1 0xA0 SHL SUB NOT AND CALLER OR SWAP1 SSTORE PUSH1 0xD ADD DUP1 SLOAD SWAP2 SWAP3 POP PUSH1 0x1 SWAP2 PUSH1 0xFF NOT AND DUP3 DUP1 MUL OR SWAP1 SSTORE POP PUSH1 0x1 DUP5 PUSH1 0x3 DUP2 GT ISZERO PUSH2 0x86F JUMPI PUSH2 0x86F PUSH2 0x18E5 JUMP JUMPDEST SUB PUSH2 0x8AE JUMPI PUSH2 0x8AE DUP8 PUSH1 0x10 PUSH1 0x40 MLOAD PUSH2 0x890 SWAP1 PUSH3 0x504C49 PUSH1 0xE8 SHL DUP2 MSTORE PUSH1 0x3 ADD SWAP1 JUMP JUMPDEST SWAP1 DUP2 MSTORE PUSH1 0x40 MLOAD SWAP1 DUP2 SWAP1 SUB PUSH1 0x20 ADD SWAP1 KECCAK256 SLOAD PUSH1 0x1 PUSH1 0x1 PUSH1 0xA0 SHL SUB AND PUSH2 0x11DA JUMP JUMPDEST PUSH1 0x2 DUP5 PUSH1 0x3 DUP2 GT ISZERO PUSH2 0x8C2 JUMPI PUSH2 0x8C2 PUSH2 0x18E5 JUMP JUMPDEST SUB PUSH2 0x8E3 JUMPI PUSH2 0x8E3 DUP8 PUSH1 0x10 PUSH1 0x40 MLOAD PUSH2 0x890 SWAP1 PUSH3 0x43474F PUSH1 0xE8 SHL DUP2 MSTORE PUSH1 0x3 ADD SWAP1 JUMP JUMPDEST PUSH1 0x3 DUP5 PUSH1 0x3 DUP2 GT ISZERO PUSH2 0x8F7 JUMPI PUSH2 0x8F7 PUSH2 0x18E5 JUMP JUMPDEST SUB PUSH2 0x91B JUMPI PUSH2 0x91B DUP8 PUSH1 0x10 PUSH1 0x40 MLOAD PUSH2 0x890 SWAP1 PUSH6 0x5553504C5553 PUSH1 0xD0 SHL DUP2 MSTORE PUSH1 0x6 ADD SWAP1 JUMP JUMPDEST PUSH2 0x925 DUP9 DUP9 PUSH2 0x1200 JUMP JUMPDEST PUSH32 0xBB79982110A43CEA0C37E81A30713AE2C51ACDB54FF84B994F6D0FFAD72EAEBC CALLER DUP9 PUSH2 0x951 PUSH1 0x9 SLOAD SWAP1 JUMP JUMPDEST PUSH1 0x40 MLOAD PUSH2 0x960 SWAP4 SWAP3 SWAP2 SWAP1 PUSH2 0x1C2F JUMP JUMPDEST PUSH1 0x40 MLOAD DUP1 SWAP2 SUB SWAP1 LOG1 POP POP POP POP POP POP POP POP JUMP JUMPDEST PUSH2 0x97A PUSH2 0x1171 JUMP JUMPDEST PUSH1 0x0 DUP2 DUP2 MSTORE PUSH1 0xE PUSH1 0x20 SWAP1 DUP2 MSTORE PUSH1 0x40 DUP1 DUP4 KECCAK256 DUP2 MLOAD PUSH1 0xE0 DUP2 ADD DUP4 MSTORE DUP2 SLOAD DUP2 MSTORE PUSH1 0x1 DUP3 ADD SLOAD SWAP4 DUP2 ADD SWAP4 SWAP1 SWAP4 MSTORE PUSH1 0x2 DUP2 ADD SLOAD SWAP2 DUP4 ADD SWAP2 SWAP1 SWAP2 MSTORE PUSH1 0x3 DUP2 ADD SLOAD PUSH1 0x60 DUP4 ADD MSTORE PUSH1 0x4 DUP2 ADD SLOAD PUSH1 0x1 PUSH1 0x1 PUSH1 0xA0 SHL SUB DUP2 AND PUSH1 0x80 DUP5 ADD MSTORE PUSH1 0xA0 DUP4 ADD SWAP1 PUSH1 0x1 PUSH1 0xA0 SHL SWAP1 DIV PUSH1 0xFF AND PUSH1 0x7 DUP2 GT ISZERO PUSH2 0x9ED JUMPI PUSH2 0x9ED PUSH2 0x18E5 JUMP JUMPDEST PUSH1 0x7 DUP2 GT ISZERO PUSH2 0x9FE JUMPI PUSH2 0x9FE PUSH2 0x18E5 JUMP JUMPDEST DUP2 MSTORE PUSH1 0x4 SWAP2 SWAP1 SWAP2 ADD SLOAD PUSH1 0x1 PUSH1 0xA8 SHL SWAP1 DIV PUSH1 0xFF AND ISZERO ISZERO PUSH1 0x20 SWAP2 DUP3 ADD MSTORE DUP2 DUP2 ADD MLOAD PUSH1 0x0 SWAP1 DUP2 MSTORE PUSH1 0xC SWAP1 SWAP2 MSTORE PUSH1 0x40 SWAP1 KECCAK256 PUSH1 0xB ADD SLOAD SWAP1 SWAP2 POP PUSH1 0x1 PUSH1 0x1 PUSH1 0xA0 SHL SUB AND CALLER EQ PUSH2 0xA8E JUMPI PUSH1 0x40 MLOAD PUSH3 0x461BCD PUSH1 0xE5 SHL DUP2 MSTORE PUSH1 0x20 PUSH1 0x4 DUP3 ADD MSTORE PUSH1 0x1A PUSH1 0x24 DUP3 ADD MSTORE PUSH32 0x4F6E6C79206C656E6465722063616E20636C61696D206261636B000000000000 PUSH1 0x44 DUP3 ADD MSTORE PUSH1 0x64 ADD JUMPDEST PUSH1 0x40 MLOAD DUP1 SWAP2 SUB SWAP1 REVERT JUMPDEST PUSH1 0x0 DUP3 DUP2 MSTORE PUSH1 0xE PUSH1 0x20 MSTORE PUSH1 0x40 SWAP1 KECCAK256 PUSH1 0x4 ADD SLOAD PUSH1 0x1 PUSH1 0xA8 SHL SWAP1 DIV PUSH1 0xFF AND ISZERO PUSH2 0xAEE JUMPI PUSH1 0x40 MLOAD PUSH3 0x461BCD PUSH1 0xE5 SHL DUP2 MSTORE PUSH1 0x20 PUSH1 0x4 DUP3 ADD MSTORE PUSH1 0x14 PUSH1 0x24 DUP3 ADD MSTORE PUSH20 0x131BD85B88185B1C9958591E4818DB185A5B5959 PUSH1 0x62 SHL PUSH1 0x44 DUP3 ADD MSTORE PUSH1 0x64 ADD PUSH2 0xA85 JUMP JUMPDEST PUSH1 0x0 DUP3 DUP2 MSTORE PUSH1 0xE PUSH1 0x20 SWAP1 DUP2 MSTORE PUSH1 0x40 DUP1 DUP4 KECCAK256 PUSH1 0x4 DUP1 DUP3 ADD DUP1 SLOAD PUSH2 0xFFFF PUSH1 0xA0 SHL NOT AND PUSH1 0x41 PUSH1 0xA2 SHL OR SWAP1 SSTORE PUSH1 0x2 SWAP1 SWAP2 ADD SLOAD DUP6 DUP5 ADD MLOAD DUP6 MSTORE PUSH1 0xC SWAP1 SWAP4 MSTORE SWAP3 KECCAK256 SWAP1 SWAP2 ADD SLOAD PUSH2 0xB41 SWAP2 SWAP1 PUSH1 0x1 PUSH1 0x1 PUSH1 0xA0 SHL SUB AND CALLER PUSH2 0x13F4 JUMP JUMPDEST PUSH32 0x5A44E54E6176EE37F7560C3927ABC3A9FF36B91A4E176E99E4349D314F0B812B CALLER DUP3 PUSH1 0x20 ADD MLOAD PUSH1 0xE PUSH1 0x0 DUP7 DUP2 MSTORE PUSH1 0x20 ADD SWAP1 DUP2 MSTORE PUSH1 0x20 ADD PUSH1 0x0 KECCAK256 PUSH1 0x2 ADD SLOAD PUSH1 0x40 MLOAD PUSH2 0xB8E SWAP4 SWAP3 SWAP2 SWAP1 PUSH2 0x1C2F JUMP JUMPDEST PUSH1 0x40 MLOAD DUP1 SWAP2 SUB SWAP1 LOG1 POP POP JUMP JUMPDEST PUSH1 0xA SLOAD PUSH1 0x1 PUSH1 0x1 PUSH1 0xA0 SHL SUB AND CALLER EQ PUSH2 0xBEC JUMPI PUSH1 0x40 MLOAD PUSH3 0x461BCD PUSH1 0xE5 SHL DUP2 MSTORE PUSH1 0x20 PUSH1 0x4 DUP3 ADD MSTORE PUSH1 0x15 PUSH1 0x24 DUP3 ADD MSTORE PUSH21 0x6F6E6C79206F776E65722063616E20757064617465 PUSH1 0x58 SHL PUSH1 0x44 DUP3 ADD MSTORE PUSH1 0x64 ADD PUSH2 0xA85 JUMP JUMPDEST PUSH1 0x1 PUSH1 0x1 PUSH1 0xA0 SHL SUB DUP3 AND PUSH1 0x0 DUP2 DUP2 MSTORE PUSH1 0xB PUSH1 0x20 SWAP1 DUP2 MSTORE PUSH1 0x40 SWAP2 DUP3 SWAP1 KECCAK256 DUP1 SLOAD PUSH1 0xFF NOT AND DUP6 ISZERO ISZERO SWAP1 DUP2 OR SWAP1 SWAP2 SSTORE DUP3 MLOAD SWAP4 DUP5 MSTORE SWAP1 DUP4 ADD MSTORE PUSH32 0x84AC0234E7A1BA4FC29D3F83D9BB91C347B3BE5A168A035675F8B5BB1D4B1D7C SWAP2 ADD PUSH2 0xB8E JUMP JUMPDEST PUSH2 0xC50 PUSH2 0x1171 JUMP JUMPDEST PUSH1 0x0 DUP3 DUP2 MSTORE PUSH1 0xC PUSH1 0x20 MSTORE PUSH1 0x40 SWAP1 KECCAK256 PUSH1 0xA ADD SLOAD PUSH1 0x1 PUSH1 0x1 PUSH1 0xA0 SHL SUB AND CALLER EQ PUSH2 0xCB9 JUMPI PUSH1 0x40 MLOAD PUSH3 0x461BCD PUSH1 0xE5 SHL DUP2 MSTORE PUSH1 0x20 PUSH1 0x4 DUP3 ADD MSTORE PUSH1 0x1A PUSH1 0x24 DUP3 ADD MSTORE PUSH32 0x4F6E6C7920426F72726F7765722063616E20706179206261636B000000000000 PUSH1 0x44 DUP3 ADD MSTORE PUSH1 0x64 ADD PUSH2 0xA85 JUMP JUMPDEST PUSH1 0x0 DUP3 DUP2 MSTORE PUSH1 0xC PUSH1 0x20 MSTORE PUSH1 0x40 SWAP1 KECCAK256 PUSH1 0x5 ADD SLOAD PUSH2 0xCD5 SWAP1 DUP3 PUSH2 0x1400 JUMP JUMPDEST PUSH1 0x0 DUP4 DUP2 MSTORE PUSH1 0xC PUSH1 0x20 MSTORE PUSH1 0x40 SWAP1 KECCAK256 PUSH1 0x5 DUP2 ADD SWAP2 SWAP1 SWAP2 SSTORE PUSH1 0xD DUP2 ADD DUP1 SLOAD PUSH1 0xFF NOT AND PUSH1 0x3 OR SWAP1 SSTORE PUSH1 0x4 ADD SLOAD PUSH2 0xD12 SWAP1 DUP3 SWAP1 PUSH1 0x1 PUSH1 0x1 PUSH1 0xA0 SHL SUB AND PUSH2 0x11DA JUMP JUMPDEST PUSH32 0x99E4FCB2ED30F260349583791C95B0FC82F5283E7B45BF2168DFD659C208BDBD CALLER DUP4 DUP4 PUSH1 0x40 MLOAD PUSH2 0xB8E SWAP4 SWAP3 SWAP2 SWAP1 PUSH2 0x1C2F JUMP JUMPDEST PUSH1 0xD PUSH1 0x20 MSTORE DUP2 PUSH1 0x0 MSTORE PUSH1 0x40 PUSH1 0x0 KECCAK256 DUP2 DUP2 SLOAD DUP2 LT PUSH2 0xD61 JUMPI PUSH1 0x0 DUP1 REVERT JUMPDEST PUSH1 0x0 SWAP2 DUP3 MSTORE PUSH1 0x20 SWAP1 SWAP2 KECCAK256 PUSH1 0xE SWAP1 SWAP2 MUL ADD DUP1 SLOAD PUSH1 0x1 DUP3 ADD SLOAD PUSH1 0x2 DUP4 ADD SLOAD PUSH1 0x3 DUP5 ADD SLOAD PUSH1 0x4 DUP6 ADD SLOAD PUSH1 0x5 DUP7 ADD SLOAD PUSH1 0x6 DUP8 ADD SLOAD PUSH1 0x7 DUP9 ADD SLOAD PUSH1 0x8 DUP10 ADD SLOAD PUSH1 0x9 DUP11 ADD SLOAD PUSH1 0xA DUP12 ADD SLOAD PUSH1 0xB DUP13 ADD SLOAD PUSH1 0xC DUP14 ADD SLOAD PUSH1 0xD SWAP1 SWAP14 ADD SLOAD SWAP12 SWAP15 POP SWAP10 SWAP13 POP SWAP8 SWAP11 SWAP7 SWAP10 PUSH1 0x1 PUSH1 0x1 PUSH1 0xA0 SHL SUB SWAP7 DUP8 AND SWAP10 SWAP6 SWAP9 SWAP5 SWAP8 SWAP4 SWAP7 SWAP3 SWAP6 SWAP2 SWAP5 DUP4 AND SWAP4 SWAP2 SWAP1 SWAP3 AND SWAP2 PUSH1 0xFF AND DUP15 JUMP JUMPDEST PUSH2 0xDEB PUSH2 0x1171 JUMP JUMPDEST PUSH1 0x0 DUP3 DUP2 MSTORE PUSH1 0xC PUSH1 0x20 DUP2 DUP2 MSTORE PUSH1 0x40 DUP1 DUP5 KECCAK256 DUP2 MLOAD PUSH2 0x1C0 DUP2 ADD DUP4 MSTORE DUP2 SLOAD DUP2 MSTORE PUSH1 0x1 DUP3 ADD SLOAD SWAP4 DUP2 ADD SWAP4 SWAP1 SWAP4 MSTORE PUSH1 0x2 DUP2 ADD SLOAD SWAP2 DUP4 ADD SWAP2 SWAP1 SWAP2 MSTORE PUSH1 0x3 DUP2 ADD SLOAD PUSH1 0x60 DUP4 ADD MSTORE PUSH1 0x4 DUP2 ADD SLOAD PUSH1 0x1 PUSH1 0x1 PUSH1 0xA0 SHL SUB SWAP1 DUP2 AND PUSH1 0x80 DUP5 ADD MSTORE PUSH1 0x5 DUP3 ADD SLOAD PUSH1 0xA0 DUP5 ADD MSTORE PUSH1 0x6 DUP3 ADD SLOAD PUSH1 0xC0 DUP5 ADD MSTORE PUSH1 0x7 DUP1 DUP4 ADD SLOAD PUSH1 0xE0 DUP6 ADD MSTORE PUSH1 0x8 DUP4 ADD SLOAD PUSH2 0x100 DUP6 ADD MSTORE PUSH1 0x9 DUP4 ADD SLOAD PUSH2 0x120 DUP6 ADD MSTORE PUSH1 0xA DUP4 ADD SLOAD DUP3 AND PUSH2 0x140 DUP6 ADD MSTORE PUSH1 0xB DUP4 ADD SLOAD SWAP1 SWAP2 AND PUSH2 0x160 DUP5 ADD MSTORE SWAP3 DUP2 ADD SLOAD PUSH2 0x180 DUP4 ADD MSTORE PUSH1 0xD DUP2 ADD SLOAD SWAP2 SWAP3 SWAP1 SWAP2 PUSH2 0x1A0 DUP5 ADD SWAP2 PUSH1 0xFF SWAP1 SWAP2 AND SWAP1 DUP2 GT ISZERO PUSH2 0xEBE JUMPI PUSH2 0xEBE PUSH2 0x18E5 JUMP JUMPDEST PUSH1 0x7 DUP2 GT ISZERO PUSH2 0xECF JUMPI PUSH2 0xECF PUSH2 0x18E5 JUMP JUMPDEST DUP2 MSTORE POP POP SWAP1 POP DUP1 PUSH2 0x140 ADD MLOAD PUSH1 0x1 PUSH1 0x1 PUSH1 0xA0 SHL SUB AND CALLER PUSH1 0x1 PUSH1 0x1 PUSH1 0xA0 SHL SUB AND EQ PUSH2 0xF4E JUMPI PUSH1 0x40 MLOAD PUSH3 0x461BCD PUSH1 0xE5 SHL DUP2 MSTORE PUSH1 0x20 PUSH1 0x4 DUP3 ADD MSTORE PUSH1 0x2A PUSH1 0x24 DUP3 ADD MSTORE PUSH32 0x4F6E6C7920426F72726F7765722063616E20616363657074206F722044656E79 PUSH1 0x44 DUP3 ADD MSTORE PUSH10 0x103A34329037B33332B9 PUSH1 0xB1 SHL PUSH1 0x64 DUP3 ADD MSTORE PUSH1 0x84 ADD PUSH2 0xA85 JUMP JUMPDEST PUSH1 0x0 DUP4 DUP2 MSTORE PUSH1 0xC PUSH1 0x20 MSTORE PUSH1 0x40 SWAP1 KECCAK256 PUSH1 0xD ADD DUP1 SLOAD DUP4 SWAP2 SWAP1 PUSH1 0xFF NOT AND PUSH1 0x1 DUP4 PUSH1 0x7 DUP2 GT ISZERO PUSH2 0xF7C JUMPI PUSH2 0xF7C PUSH2 0x18E5 JUMP JUMPDEST MUL OR SWAP1 SSTORE POP PUSH1 0x2 DUP3 PUSH1 0x7 DUP2 GT ISZERO PUSH2 0xF95 JUMPI PUSH2 0xF95 PUSH2 0x18E5 JUMP JUMPDEST SUB PUSH2 0x1004 JUMPI PUSH2 0xFB2 DUP2 PUSH1 0x60 ADD MLOAD DUP3 PUSH1 0x80 ADD MLOAD DUP4 PUSH2 0x140 ADD MLOAD PUSH2 0x13F4 JUMP JUMPDEST PUSH1 0x40 DUP1 MLOAD CALLER DUP2 MSTORE PUSH1 0x20 DUP2 ADD DUP3 SWAP1 MSTORE PUSH1 0x8 DUP2 DUP4 ADD MSTORE PUSH8 0x1058D8D95C1D1959 PUSH1 0xC2 SHL PUSH1 0x60 DUP3 ADD MSTORE SWAP1 MLOAD PUSH32 0x9FC23E5DEFA88077CB299BFDE5885BD1534503D789719EA5A449C7C2244A7BC3 SWAP2 DUP2 SWAP1 SUB PUSH1 0x80 ADD SWAP1 LOG1 JUMPDEST PUSH1 0x5 DUP3 PUSH1 0x7 DUP2 GT ISZERO PUSH2 0x1018 JUMPI PUSH2 0x1018 PUSH2 0x18E5 JUMP JUMPDEST SUB PUSH2 0x10A1 JUMPI PUSH1 0x0 DUP4 DUP2 MSTORE PUSH1 0xC PUSH1 0x20 MSTORE PUSH1 0x40 SWAP1 KECCAK256 PUSH1 0x3 DUP2 ADD SLOAD PUSH1 0x4 DUP3 ADD SLOAD PUSH1 0xB SWAP1 SWAP3 ADD SLOAD PUSH2 0x1051 SWAP3 PUSH1 0x1 PUSH1 0x1 PUSH1 0xA0 SHL SUB SWAP1 DUP2 AND SWAP2 AND PUSH2 0x13F4 JUMP JUMPDEST PUSH1 0x40 DUP1 MLOAD CALLER DUP2 MSTORE PUSH1 0x20 DUP2 ADD DUP3 SWAP1 MSTORE PUSH1 0x6 DUP2 DUP4 ADD MSTORE PUSH6 0x11195B9A5959 PUSH1 0xD2 SHL PUSH1 0x60 DUP3 ADD MSTORE SWAP1 MLOAD PUSH32 0x9FC23E5DEFA88077CB299BFDE5885BD1534503D789719EA5A449C7C2244A7BC3 SWAP2 DUP2 SWAP1 SUB PUSH1 0x80 ADD SWAP1 LOG1 JUMPDEST POP POP POP JUMP JUMPDEST PUSH1 0xA SLOAD PUSH1 0x1 PUSH1 0x1 PUSH1 0xA0 SHL SUB AND CALLER EQ PUSH2 0x10F8 JUMPI PUSH1 0x40 MLOAD PUSH3 0x461BCD PUSH1 0xE5 SHL DUP2 MSTORE PUSH1 0x20 PUSH1 0x4 DUP3 ADD MSTORE PUSH1 0x15 PUSH1 0x24 DUP3 ADD MSTORE PUSH21 0x6F6E6C79206F776E65722063616E20757064617465 PUSH1 0x58 SHL PUSH1 0x44 DUP3 ADD MSTORE PUSH1 0x64 ADD PUSH2 0xA85 JUMP JUMPDEST DUP1 PUSH1 0x10 DUP4 PUSH1 0x40 MLOAD PUSH2 0x1109 SWAP2 SWAP1 PUSH2 0x1C74 JUMP JUMPDEST SWAP1 DUP2 MSTORE PUSH1 0x40 MLOAD SWAP1 DUP2 SWAP1 SUB PUSH1 0x20 ADD DUP2 KECCAK256 DUP1 SLOAD PUSH1 0x1 PUSH1 0x1 PUSH1 0xA0 SHL SUB SWAP4 SWAP1 SWAP4 AND PUSH1 0x1 PUSH1 0x1 PUSH1 0xA0 SHL SUB NOT SWAP1 SWAP4 AND SWAP3 SWAP1 SWAP3 OR SWAP1 SWAP2 SSTORE PUSH32 0xEA875AD889CE70B5DAFBF825355F0C4ADCB3814F4AB2A1F1A0F80C39A431F456 SWAP1 PUSH2 0xB8E SWAP1 DUP5 SWAP1 DUP5 SWAP1 PUSH2 0x1CBC JUMP JUMPDEST DUP1 SLOAD PUSH1 0x1 ADD SWAP1 SSTORE JUMP JUMPDEST PUSH1 0x7 SLOAD PUSH1 0xFF AND ISZERO PUSH2 0x11B7 JUMPI PUSH1 0x40 MLOAD PUSH3 0x461BCD PUSH1 0xE5 SHL DUP2 MSTORE PUSH1 0x20 PUSH1 0x4 DUP3 ADD MSTORE PUSH1 0x10 PUSH1 0x24 DUP3 ADD MSTORE PUSH16 0x14185D5CD8589B194E881C185D5CD959 PUSH1 0x82 SHL PUSH1 0x44 DUP3 ADD MSTORE PUSH1 0x64 ADD PUSH2 0xA85 JUMP JUMPDEST JUMP JUMPDEST PUSH1 0x0 PUSH2 0x11C5 DUP3 DUP5 PUSH2 0x1CFC JUMP JUMPDEST SWAP1 POP JUMPDEST SWAP3 SWAP2 POP POP JUMP JUMPDEST PUSH1 0x0 PUSH2 0x11C5 DUP3 DUP5 PUSH2 0x1D13 JUMP JUMPDEST PUSH2 0x11E5 CALLER DUP3 DUP5 PUSH2 0x140C JUMP JUMPDEST PUSH2 0x11F0 CALLER DUP3 DUP5 PUSH2 0x14D5 JUMP JUMPDEST PUSH2 0x11FC DUP2 CALLER ADDRESS DUP6 PUSH2 0x1596 JUMP JUMPDEST POP POP JUMP JUMPDEST PUSH1 0x40 MLOAD DUP1 PUSH1 0xE0 ADD PUSH1 0x40 MSTORE DUP1 PUSH2 0x1214 PUSH1 0x9 SLOAD SWAP1 JUMP JUMPDEST DUP2 MSTORE PUSH1 0x20 DUP2 ADD DUP5 SWAP1 MSTORE PUSH1 0x40 DUP2 ADD DUP4 SWAP1 MSTORE PUSH1 0x0 PUSH1 0x60 DUP3 ADD MSTORE CALLER PUSH1 0x80 DUP3 ADD MSTORE PUSH1 0xA0 ADD PUSH1 0x1 DUP2 MSTORE PUSH1 0x20 ADD PUSH1 0x0 ISZERO ISZERO DUP2 MSTORE POP PUSH1 0xE PUSH1 0x0 PUSH2 0x124F PUSH1 0x9 SLOAD SWAP1 JUMP JUMPDEST DUP2 MSTORE PUSH1 0x20 DUP1 DUP3 ADD SWAP3 SWAP1 SWAP3 MSTORE PUSH1 0x40 SWAP1 DUP2 ADD PUSH1 0x0 KECCAK256 DUP4 MLOAD DUP2 SSTORE SWAP2 DUP4 ADD MLOAD PUSH1 0x1 DUP4 ADD SSTORE DUP3 ADD MLOAD PUSH1 0x2 DUP3 ADD SSTORE PUSH1 0x60 DUP3 ADD MLOAD PUSH1 0x3 DUP3 ADD SSTORE PUSH1 0x80 DUP3 ADD MLOAD PUSH1 0x4 DUP3 ADD DUP1 SLOAD PUSH1 0x1 PUSH1 0x1 PUSH1 0xA0 SHL SUB SWAP1 SWAP3 AND PUSH1 0x1 PUSH1 0x1 PUSH1 0xA0 SHL SUB NOT DUP4 AND DUP2 OR DUP3 SSTORE PUSH1 0xA0 DUP6 ADD MLOAD SWAP3 PUSH1 0x1 PUSH1 0x1 PUSH1 0xA8 SHL SUB NOT AND OR PUSH1 0x1 PUSH1 0xA0 SHL DUP4 PUSH1 0x7 DUP2 GT ISZERO PUSH2 0x12CE JUMPI PUSH2 0x12CE PUSH2 0x18E5 JUMP JUMPDEST MUL OR SWAP1 SSTORE POP PUSH1 0xC0 SWAP2 SWAP1 SWAP2 ADD MLOAD PUSH1 0x4 SWAP1 SWAP2 ADD DUP1 SLOAD SWAP2 ISZERO ISZERO PUSH1 0x1 PUSH1 0xA8 SHL MUL PUSH1 0xFF PUSH1 0xA8 SHL NOT SWAP1 SWAP3 AND SWAP2 SWAP1 SWAP2 OR SWAP1 SSTORE CALLER PUSH1 0x0 SWAP1 DUP2 MSTORE PUSH1 0xF PUSH1 0x20 MSTORE PUSH1 0x40 DUP2 KECCAK256 SWAP1 PUSH1 0xE SWAP1 PUSH2 0x1315 PUSH1 0x9 SLOAD SWAP1 JUMP JUMPDEST DUP2 MSTORE PUSH1 0x20 DUP1 DUP3 ADD SWAP3 SWAP1 SWAP3 MSTORE PUSH1 0x40 ADD PUSH1 0x0 SWAP1 DUP2 KECCAK256 DUP4 SLOAD PUSH1 0x1 DUP2 DUP2 ADD DUP7 SSTORE SWAP5 DUP4 MSTORE SWAP3 SWAP1 SWAP2 KECCAK256 DUP2 SLOAD PUSH1 0x5 SWAP1 SWAP4 MUL ADD SWAP2 DUP3 SSTORE DUP3 DUP2 ADD SLOAD SWAP3 DUP3 ADD SWAP3 SWAP1 SWAP3 SSTORE PUSH1 0x2 DUP1 DUP4 ADD SLOAD SWAP1 DUP3 ADD SSTORE PUSH1 0x3 DUP1 DUP4 ADD SLOAD SWAP1 DUP3 ADD SSTORE PUSH1 0x4 DUP1 DUP4 ADD DUP1 SLOAD SWAP2 DUP4 ADD DUP1 SLOAD PUSH1 0x1 PUSH1 0x1 PUSH1 0xA0 SHL SUB NOT DUP2 AND PUSH1 0x1 PUSH1 0x1 PUSH1 0xA0 SHL SUB SWAP1 SWAP5 AND SWAP4 DUP5 OR DUP3 SSTORE SWAP2 SLOAD PUSH1 0xFF PUSH1 0x1 PUSH1 0xA0 SHL SWAP2 DUP3 SWAP1 DIV AND SWAP4 SWAP2 SWAP3 PUSH1 0x1 PUSH1 0x1 PUSH1 0xA8 SHL SUB NOT AND SWAP1 SWAP2 OR SWAP1 DUP4 PUSH1 0x7 DUP2 GT ISZERO PUSH2 0x13BA JUMPI PUSH2 0x13BA PUSH2 0x18E5 JUMP JUMPDEST MUL OR SWAP1 SSTORE POP PUSH1 0x4 SWAP2 DUP3 ADD SLOAD SWAP2 ADD DUP1 SLOAD PUSH1 0xFF PUSH1 0xA8 SHL NOT AND PUSH1 0x1 PUSH1 0xA8 SHL SWAP3 DUP4 SWAP1 DIV PUSH1 0xFF AND ISZERO ISZERO SWAP1 SWAP3 MUL SWAP2 SWAP1 SWAP2 OR SWAP1 SSTORE PUSH1 0x9 DUP1 SLOAD PUSH1 0x1 ADD SWAP1 SSTORE POP POP JUMP JUMPDEST PUSH2 0x10A1 DUP3 ADDRESS DUP4 DUP7 PUSH2 0x1596 JUMP JUMPDEST PUSH1 0x0 PUSH2 0x11C5 DUP3 DUP5 PUSH2 0x1D26 JUMP JUMPDEST PUSH1 0x40 MLOAD PUSH4 0x70A08231 PUSH1 0xE0 SHL DUP2 MSTORE PUSH1 0x1 PUSH1 0x1 PUSH1 0xA0 SHL SUB DUP5 DUP2 AND PUSH1 0x4 DUP4 ADD MSTORE DUP3 SWAP2 SWAP1 DUP5 AND SWAP1 PUSH4 0x70A08231 SWAP1 PUSH1 0x24 ADD PUSH1 0x20 PUSH1 0x40 MLOAD DUP1 DUP4 SUB DUP2 DUP7 GAS STATICCALL ISZERO DUP1 ISZERO PUSH2 0x1455 JUMPI RETURNDATASIZE PUSH1 0x0 DUP1 RETURNDATACOPY RETURNDATASIZE PUSH1 0x0 REVERT JUMPDEST POP POP POP POP PUSH1 0x40 MLOAD RETURNDATASIZE PUSH1 0x1F NOT PUSH1 0x1F DUP3 ADD AND DUP3 ADD DUP1 PUSH1 0x40 MSTORE POP DUP2 ADD SWAP1 PUSH2 0x1479 SWAP2 SWAP1 PUSH2 0x1D39 JUMP JUMPDEST LT ISZERO PUSH2 0x10A1 JUMPI PUSH1 0x40 MLOAD PUSH3 0x461BCD PUSH1 0xE5 SHL DUP2 MSTORE PUSH1 0x20 PUSH1 0x4 DUP3 ADD MSTORE PUSH1 0x25 PUSH1 0x24 DUP3 ADD MSTORE PUSH32 0x496E567946793A20696E73756666696369656E742063757272656E6379206261 PUSH1 0x44 DUP3 ADD MSTORE PUSH5 0x6C616E6365 PUSH1 0xD8 SHL PUSH1 0x64 DUP3 ADD MSTORE PUSH1 0x84 ADD PUSH2 0xA85 JUMP JUMPDEST PUSH1 0x40 MLOAD PUSH4 0x6EB1769F PUSH1 0xE1 SHL DUP2 MSTORE PUSH1 0x1 PUSH1 0x1 PUSH1 0xA0 SHL SUB DUP5 DUP2 AND PUSH1 0x4 DUP4 ADD MSTORE ADDRESS PUSH1 0x24 DUP4 ADD MSTORE DUP3 SWAP2 SWAP1 DUP5 AND SWAP1 PUSH4 0xDD62ED3E SWAP1 PUSH1 0x44 ADD PUSH1 0x20 PUSH1 0x40 MLOAD DUP1 DUP4 SUB DUP2 DUP7 GAS STATICCALL ISZERO DUP1 ISZERO PUSH2 0x1524 JUMPI RETURNDATASIZE PUSH1 0x0 DUP1 RETURNDATACOPY RETURNDATASIZE PUSH1 0x0 REVERT JUMPDEST POP POP POP POP PUSH1 0x40 MLOAD RETURNDATASIZE PUSH1 0x1F NOT PUSH1 0x1F DUP3 ADD AND DUP3 ADD DUP1 PUSH1 0x40 MSTORE POP DUP2 ADD SWAP1 PUSH2 0x1548 SWAP2 SWAP1 PUSH2 0x1D39 JUMP JUMPDEST LT ISZERO PUSH2 0x10A1 JUMPI PUSH1 0x40 MLOAD PUSH3 0x461BCD PUSH1 0xE5 SHL DUP2 MSTORE PUSH1 0x20 PUSH1 0x4 DUP3 ADD MSTORE PUSH1 0x1F PUSH1 0x24 DUP3 ADD MSTORE PUSH32 0x496E567946793A20696E73756666696369656E7420616C6C6F77616E63652E00 PUSH1 0x44 DUP3 ADD MSTORE PUSH1 0x64 ADD PUSH2 0xA85 JUMP JUMPDEST PUSH1 0x40 DUP1 MLOAD PUSH1 0x1 PUSH1 0x1 PUSH1 0xA0 SHL SUB DUP6 DUP2 AND PUSH1 0x24 DUP4 ADD MSTORE DUP5 AND PUSH1 0x44 DUP3 ADD MSTORE PUSH1 0x64 DUP1 DUP3 ADD DUP5 SWAP1 MSTORE DUP3 MLOAD DUP1 DUP4 SUB SWAP1 SWAP2 ADD DUP2 MSTORE PUSH1 0x84 SWAP1 SWAP2 ADD SWAP1 SWAP2 MSTORE PUSH1 0x20 DUP2 ADD DUP1 MLOAD PUSH1 0x1 PUSH1 0x1 PUSH1 0xE0 SHL SUB AND PUSH4 0x23B872DD PUSH1 0xE0 SHL OR SWAP1 MSTORE PUSH2 0x15F0 SWAP1 DUP6 SWAP1 PUSH2 0x15F6 JUMP JUMPDEST POP POP POP POP JUMP JUMPDEST PUSH1 0x0 PUSH2 0x164B DUP3 PUSH1 0x40 MLOAD DUP1 PUSH1 0x40 ADD PUSH1 0x40 MSTORE DUP1 PUSH1 0x20 DUP2 MSTORE PUSH1 0x20 ADD PUSH32 0x5361666545524332303A206C6F772D6C6576656C2063616C6C206661696C6564 DUP2 MSTORE POP DUP6 PUSH1 0x1 PUSH1 0x1 PUSH1 0xA0 SHL SUB AND PUSH2 0x16C8 SWAP1 SWAP3 SWAP2 SWAP1 PUSH4 0xFFFFFFFF AND JUMP JUMPDEST DUP1 MLOAD SWAP1 SWAP2 POP ISZERO PUSH2 0x10A1 JUMPI DUP1 DUP1 PUSH1 0x20 ADD SWAP1 MLOAD DUP2 ADD SWAP1 PUSH2 0x1669 SWAP2 SWAP1 PUSH2 0x1D52 JUMP JUMPDEST PUSH2 0x10A1 JUMPI PUSH1 0x40 MLOAD PUSH3 0x461BCD PUSH1 0xE5 SHL DUP2 MSTORE PUSH1 0x20 PUSH1 0x4 DUP3 ADD MSTORE PUSH1 0x2A PUSH1 0x24 DUP3 ADD MSTORE PUSH32 0x5361666545524332303A204552433230206F7065726174696F6E20646964206E PUSH1 0x44 DUP3 ADD MSTORE PUSH10 0x1BDD081CDD58D8D95959 PUSH1 0xB2 SHL PUSH1 0x64 DUP3 ADD MSTORE PUSH1 0x84 ADD PUSH2 0xA85 JUMP JUMPDEST PUSH1 0x60 PUSH2 0x16D7 DUP5 DUP5 PUSH1 0x0 DUP6 PUSH2 0x16DF JUMP JUMPDEST SWAP5 SWAP4 POP POP POP POP JUMP JUMPDEST PUSH1 0x60 DUP3 SELFBALANCE LT ISZERO PUSH2 0x1740 JUMPI PUSH1 0x40 MLOAD PUSH3 0x461BCD PUSH1 0xE5 SHL DUP2 MSTORE PUSH1 0x20 PUSH1 0x4 DUP3 ADD MSTORE PUSH1 0x26 PUSH1 0x24 DUP3 ADD MSTORE PUSH32 0x416464726573733A20696E73756666696369656E742062616C616E636520666F PUSH1 0x44 DUP3 ADD MSTORE PUSH6 0x1C8818D85B1B PUSH1 0xD2 SHL PUSH1 0x64 DUP3 ADD MSTORE PUSH1 0x84 ADD PUSH2 0xA85 JUMP JUMPDEST PUSH1 0x0 DUP1 DUP7 PUSH1 0x1 PUSH1 0x1 PUSH1 0xA0 SHL SUB AND DUP6 DUP8 PUSH1 0x40 MLOAD PUSH2 0x175C SWAP2 SWAP1 PUSH2 0x1C74 JUMP JUMPDEST PUSH1 0x0 PUSH1 0x40 MLOAD DUP1 DUP4 SUB DUP2 DUP6 DUP8 GAS CALL SWAP3 POP POP POP RETURNDATASIZE DUP1 PUSH1 0x0 DUP2 EQ PUSH2 0x1799 JUMPI PUSH1 0x40 MLOAD SWAP2 POP PUSH1 0x1F NOT PUSH1 0x3F RETURNDATASIZE ADD AND DUP3 ADD PUSH1 0x40 MSTORE RETURNDATASIZE DUP3 MSTORE RETURNDATASIZE PUSH1 0x0 PUSH1 0x20 DUP5 ADD RETURNDATACOPY PUSH2 0x179E JUMP JUMPDEST PUSH1 0x60 SWAP2 POP JUMPDEST POP SWAP2 POP SWAP2 POP PUSH2 0x17AF DUP8 DUP4 DUP4 DUP8 PUSH2 0x17BA JUMP JUMPDEST SWAP8 SWAP7 POP POP POP POP POP POP POP JUMP JUMPDEST PUSH1 0x60 DUP4 ISZERO PUSH2 0x1829 JUMPI DUP3 MLOAD PUSH1 0x0 SUB PUSH2 0x1822 JUMPI PUSH1 0x1 PUSH1 0x1 PUSH1 0xA0 SHL SUB DUP6 AND EXTCODESIZE PUSH2 0x1822 JUMPI PUSH1 0x40 MLOAD PUSH3 0x461BCD PUSH1 0xE5 SHL DUP2 MSTORE PUSH1 0x20 PUSH1 0x4 DUP3 ADD MSTORE PUSH1 0x1D PUSH1 0x24 DUP3 ADD MSTORE PUSH32 0x416464726573733A2063616C6C20746F206E6F6E2D636F6E7472616374000000 PUSH1 0x44 DUP3 ADD MSTORE PUSH1 0x64 ADD PUSH2 0xA85 JUMP JUMPDEST POP DUP2 PUSH2 0x16D7 JUMP JUMPDEST PUSH2 0x16D7 DUP4 DUP4 DUP2 MLOAD ISZERO PUSH2 0x183E JUMPI DUP2 MLOAD DUP1 DUP4 PUSH1 0x20 ADD REVERT JUMPDEST DUP1 PUSH1 0x40 MLOAD PUSH3 0x461BCD PUSH1 0xE5 SHL DUP2 MSTORE PUSH1 0x4 ADD PUSH2 0xA85 SWAP2 SWAP1 PUSH2 0x1D76 JUMP JUMPDEST DUP1 CALLDATALOAD PUSH1 0x1 PUSH1 0x1 PUSH1 0xA0 SHL SUB DUP2 AND DUP2 EQ PUSH2 0x186F JUMPI PUSH1 0x0 DUP1 REVERT JUMPDEST SWAP2 SWAP1 POP JUMP JUMPDEST PUSH1 0x0 DUP1 PUSH1 0x0 DUP1 PUSH1 0x0 PUSH1 0xA0 DUP7 DUP9 SUB SLT ISZERO PUSH2 0x188C JUMPI PUSH1 0x0 DUP1 REVERT JUMPDEST DUP6 CALLDATALOAD SWAP5 POP PUSH1 0x20 DUP7 ADD CALLDATALOAD SWAP4 POP PUSH1 0x40 DUP7 ADD CALLDATALOAD SWAP3 POP PUSH2 0x18AA PUSH1 0x60 DUP8 ADD PUSH2 0x1858 JUMP JUMPDEST SWAP5 SWAP8 SWAP4 SWAP7 POP SWAP2 SWAP5 PUSH1 0x80 ADD CALLDATALOAD SWAP3 SWAP2 POP POP JUMP JUMPDEST PUSH1 0x0 DUP1 PUSH1 0x40 DUP4 DUP6 SUB SLT ISZERO PUSH2 0x18CE JUMPI PUSH1 0x0 DUP1 REVERT JUMPDEST PUSH2 0x18D7 DUP4 PUSH2 0x1858 JUMP JUMPDEST SWAP5 PUSH1 0x20 SWAP4 SWAP1 SWAP4 ADD CALLDATALOAD SWAP4 POP POP POP JUMP JUMPDEST PUSH4 0x4E487B71 PUSH1 0xE0 SHL PUSH1 0x0 MSTORE PUSH1 0x21 PUSH1 0x4 MSTORE PUSH1 0x24 PUSH1 0x0 REVERT JUMPDEST PUSH1 0x8 DUP2 LT PUSH2 0x1919 JUMPI PUSH4 0x4E487B71 PUSH1 0xE0 SHL PUSH1 0x0 MSTORE PUSH1 0x21 PUSH1 0x4 MSTORE PUSH1 0x24 PUSH1 0x0 REVERT JUMPDEST SWAP1 MSTORE JUMP JUMPDEST DUP8 DUP2 MSTORE PUSH1 0x20 DUP2 ADD DUP8 SWAP1 MSTORE PUSH1 0x40 DUP2 ADD DUP7 SWAP1 MSTORE PUSH1 0x60 DUP2 ADD DUP6 SWAP1 MSTORE PUSH1 0x1 PUSH1 0x1 PUSH1 0xA0 SHL SUB DUP5 AND PUSH1 0x80 DUP3 ADD MSTORE PUSH1 0xE0 DUP2 ADD PUSH2 0x1955 PUSH1 0xA0 DUP4 ADD DUP6 PUSH2 0x18FB JUMP JUMPDEST DUP3 ISZERO ISZERO PUSH1 0xC0 DUP4 ADD MSTORE SWAP9 SWAP8 POP POP POP POP POP POP POP POP JUMP JUMPDEST PUSH1 0x0 DUP1 PUSH1 0x0 DUP1 PUSH1 0x0 PUSH1 0xA0 DUP7 DUP9 SUB SLT ISZERO PUSH2 0x1981 JUMPI PUSH1 0x0 DUP1 REVERT JUMPDEST DUP6 CALLDATALOAD SWAP5 POP PUSH1 0x20 DUP7 ADD CALLDATALOAD SWAP4 POP PUSH1 0x40 DUP7 ADD CALLDATALOAD SWAP3 POP PUSH1 0x60 DUP7 ADD CALLDATALOAD SWAP2 POP PUSH1 0x80 DUP7 ADD CALLDATALOAD PUSH1 0x4 DUP2 LT PUSH2 0x19AC JUMPI PUSH1 0x0 DUP1 REVERT JUMPDEST DUP1 SWAP2 POP POP SWAP3 SWAP6 POP SWAP3 SWAP6 SWAP1 SWAP4 POP JUMP JUMPDEST PUSH1 0x0 PUSH1 0x20 DUP3 DUP5 SUB SLT ISZERO PUSH2 0x19CC JUMPI PUSH1 0x0 DUP1 REVERT JUMPDEST POP CALLDATALOAD SWAP2 SWAP1 POP JUMP JUMPDEST PUSH1 0x0 PUSH2 0x1C0 DUP3 ADD SWAP1 POP DUP16 DUP3 MSTORE DUP15 PUSH1 0x20 DUP4 ADD MSTORE DUP14 PUSH1 0x40 DUP4 ADD MSTORE DUP13 PUSH1 0x60 DUP4 ADD MSTORE PUSH1 0x1 DUP1 PUSH1 0xA0 SHL SUB DUP1 DUP14 AND PUSH1 0x80 DUP5 ADD MSTORE DUP12 PUSH1 0xA0 DUP5 ADD MSTORE DUP11 PUSH1 0xC0 DUP5 ADD MSTORE DUP10 PUSH1 0xE0 DUP5 ADD MSTORE DUP9 PUSH2 0x100 DUP5 ADD MSTORE DUP8 PUSH2 0x120 DUP5 ADD MSTORE DUP1 DUP8 AND PUSH2 0x140 DUP5 ADD MSTORE DUP1 DUP7 AND PUSH2 0x160 DUP5 ADD MSTORE POP DUP4 PUSH2 0x180 DUP4 ADD MSTORE PUSH2 0x1A48 PUSH2 0x1A0 DUP4 ADD DUP5 PUSH2 0x18FB JUMP JUMPDEST SWAP16 SWAP15 POP POP POP POP POP POP POP POP POP POP POP POP POP POP POP JUMP JUMPDEST DUP1 ISZERO ISZERO DUP2 EQ PUSH2 0x1A69 JUMPI PUSH1 0x0 DUP1 REVERT JUMPDEST POP JUMP JUMPDEST PUSH1 0x0 DUP1 PUSH1 0x40 DUP4 DUP6 SUB SLT ISZERO PUSH2 0x1A7F JUMPI PUSH1 0x0 DUP1 REVERT JUMPDEST PUSH2 0x1A88 DUP4 PUSH2 0x1858 JUMP JUMPDEST SWAP2 POP PUSH1 0x20 DUP4 ADD CALLDATALOAD PUSH2 0x1A98 DUP2 PUSH2 0x1A5B JUMP JUMPDEST DUP1 SWAP2 POP POP SWAP3 POP SWAP3 SWAP1 POP JUMP JUMPDEST PUSH1 0x0 PUSH1 0x20 DUP3 DUP5 SUB SLT ISZERO PUSH2 0x1AB5 JUMPI PUSH1 0x0 DUP1 REVERT JUMPDEST PUSH2 0x11C5 DUP3 PUSH2 0x1858 JUMP JUMPDEST PUSH1 0x0 DUP1 PUSH1 0x40 DUP4 DUP6 SUB SLT ISZERO PUSH2 0x1AD1 JUMPI PUSH1 0x0 DUP1 REVERT JUMPDEST POP POP DUP1 CALLDATALOAD SWAP3 PUSH1 0x20 SWAP1 SWAP2 ADD CALLDATALOAD SWAP2 POP JUMP JUMPDEST PUSH4 0x4E487B71 PUSH1 0xE0 SHL PUSH1 0x0 MSTORE PUSH1 0x41 PUSH1 0x4 MSTORE PUSH1 0x24 PUSH1 0x0 REVERT JUMPDEST PUSH1 0x0 DUP3 PUSH1 0x1F DUP4 ADD SLT PUSH2 0x1B07 JUMPI PUSH1 0x0 DUP1 REVERT JUMPDEST DUP2 CALLDATALOAD PUSH8 0xFFFFFFFFFFFFFFFF DUP1 DUP3 GT ISZERO PUSH2 0x1B22 JUMPI PUSH2 0x1B22 PUSH2 0x1AE0 JUMP JUMPDEST PUSH1 0x40 MLOAD PUSH1 0x1F DUP4 ADD PUSH1 0x1F NOT SWAP1 DUP2 AND PUSH1 0x3F ADD AND DUP2 ADD SWAP1 DUP3 DUP3 GT DUP2 DUP4 LT OR ISZERO PUSH2 0x1B4A JUMPI PUSH2 0x1B4A PUSH2 0x1AE0 JUMP JUMPDEST DUP2 PUSH1 0x40 MSTORE DUP4 DUP2 MSTORE DUP7 PUSH1 0x20 DUP6 DUP9 ADD ADD GT ISZERO PUSH2 0x1B63 JUMPI PUSH1 0x0 DUP1 REVERT JUMPDEST DUP4 PUSH1 0x20 DUP8 ADD PUSH1 0x20 DUP4 ADD CALLDATACOPY PUSH1 0x0 PUSH1 0x20 DUP6 DUP4 ADD ADD MSTORE DUP1 SWAP5 POP POP POP POP POP SWAP3 SWAP2 POP POP JUMP JUMPDEST PUSH1 0x0 PUSH1 0x20 DUP3 DUP5 SUB SLT ISZERO PUSH2 0x1B95 JUMPI PUSH1 0x0 DUP1 REVERT JUMPDEST DUP2 CALLDATALOAD PUSH8 0xFFFFFFFFFFFFFFFF DUP2 GT ISZERO PUSH2 0x1BAC JUMPI PUSH1 0x0 DUP1 REVERT JUMPDEST PUSH2 0x16D7 DUP5 DUP3 DUP6 ADD PUSH2 0x1AF6 JUMP JUMPDEST PUSH1 0x0 DUP1 PUSH1 0x40 DUP4 DUP6 SUB SLT ISZERO PUSH2 0x1BCB JUMPI PUSH1 0x0 DUP1 REVERT JUMPDEST DUP3 CALLDATALOAD SWAP2 POP PUSH1 0x20 DUP4 ADD CALLDATALOAD PUSH1 0x8 DUP2 LT PUSH2 0x1A98 JUMPI PUSH1 0x0 DUP1 REVERT JUMPDEST PUSH1 0x0 DUP1 PUSH1 0x40 DUP4 DUP6 SUB SLT ISZERO PUSH2 0x1BF4 JUMPI PUSH1 0x0 DUP1 REVERT JUMPDEST DUP3 CALLDATALOAD PUSH8 0xFFFFFFFFFFFFFFFF DUP2 GT ISZERO PUSH2 0x1C0B JUMPI PUSH1 0x0 DUP1 REVERT JUMPDEST PUSH2 0x1C17 DUP6 DUP3 DUP7 ADD PUSH2 0x1AF6 JUMP JUMPDEST SWAP3 POP POP PUSH2 0x1C26 PUSH1 0x20 DUP5 ADD PUSH2 0x1858 JUMP JUMPDEST SWAP1 POP SWAP3 POP SWAP3 SWAP1 POP JUMP JUMPDEST PUSH1 0x1 PUSH1 0x1 PUSH1 0xA0 SHL SUB SWAP4 SWAP1 SWAP4 AND DUP4 MSTORE PUSH1 0x20 DUP4 ADD SWAP2 SWAP1 SWAP2 MSTORE PUSH1 0x40 DUP3 ADD MSTORE PUSH1 0x60 ADD SWAP1 JUMP JUMPDEST PUSH1 0x0 JUMPDEST DUP4 DUP2 LT ISZERO PUSH2 0x1C6B JUMPI DUP2 DUP2 ADD MLOAD DUP4 DUP3 ADD MSTORE PUSH1 0x20 ADD PUSH2 0x1C53 JUMP JUMPDEST POP POP PUSH1 0x0 SWAP2 ADD MSTORE JUMP JUMPDEST PUSH1 0x0 DUP3 MLOAD PUSH2 0x1C86 DUP2 DUP5 PUSH1 0x20 DUP8 ADD PUSH2 0x1C50 JUMP JUMPDEST SWAP2 SWAP1 SWAP2 ADD SWAP3 SWAP2 POP POP JUMP JUMPDEST PUSH1 0x0 DUP2 MLOAD DUP1 DUP5 MSTORE PUSH2 0x1CA8 DUP2 PUSH1 0x20 DUP7 ADD PUSH1 0x20 DUP7 ADD PUSH2 0x1C50 JUMP JUMPDEST PUSH1 0x1F ADD PUSH1 0x1F NOT AND SWAP3 SWAP1 SWAP3 ADD PUSH1 0x20 ADD SWAP3 SWAP2 POP POP JUMP JUMPDEST PUSH1 0x40 DUP2 MSTORE PUSH1 0x0 PUSH2 0x1CCF PUSH1 0x40 DUP4 ADD DUP6 PUSH2 0x1C90 JUMP JUMPDEST SWAP1 POP PUSH1 0x1 DUP1 PUSH1 0xA0 SHL SUB DUP4 AND PUSH1 0x20 DUP4 ADD MSTORE SWAP4 SWAP3 POP POP POP JUMP JUMPDEST PUSH4 0x4E487B71 PUSH1 0xE0 SHL PUSH1 0x0 MSTORE PUSH1 0x11 PUSH1 0x4 MSTORE PUSH1 0x24 PUSH1 0x0 REVERT JUMPDEST DUP1 DUP3 MUL DUP2 ISZERO DUP3 DUP3 DIV DUP5 EQ OR PUSH2 0x11C8 JUMPI PUSH2 0x11C8 PUSH2 0x1CE6 JUMP JUMPDEST DUP1 DUP3 ADD DUP1 DUP3 GT ISZERO PUSH2 0x11C8 JUMPI PUSH2 0x11C8 PUSH2 0x1CE6 JUMP JUMPDEST DUP2 DUP2 SUB DUP2 DUP2 GT ISZERO PUSH2 0x11C8 JUMPI PUSH2 0x11C8 PUSH2 0x1CE6 JUMP JUMPDEST PUSH1 0x0 PUSH1 0x20 DUP3 DUP5 SUB SLT ISZERO PUSH2 0x1D4B JUMPI PUSH1 0x0 DUP1 REVERT JUMPDEST POP MLOAD SWAP2 SWAP1 POP JUMP JUMPDEST PUSH1 0x0 PUSH1 0x20 DUP3 DUP5 SUB SLT ISZERO PUSH2 0x1D64 JUMPI PUSH1 0x0 DUP1 REVERT JUMPDEST DUP2 MLOAD PUSH2 0x1D6F DUP2 PUSH2 0x1A5B JUMP JUMPDEST SWAP4 SWAP3 POP POP POP JUMP JUMPDEST PUSH1 0x20 DUP2 MSTORE PUSH1 0x0 PUSH2 0x11C5 PUSH1 0x20 DUP4 ADD DUP5 PUSH2 0x1C90 JUMP INVALID LOG2 PUSH5 0x6970667358 0x22 SLT KECCAK256 PUSH11 0x1EEBB0835EBE8C7686A24B 0xEA PUSH11 0x3C60A620F424D5B96167BD 0x2F ORIGIN 0xA8 GASLIMIT PUSH25 0xBB3864736F6C63430008110033000000000000000000000000 "},"methodIdentifiers":{"AcceptLoanRequestAndLend(uint256,uint256,uint256,uint256,uint8)":"4304f7e2","ONE_DAY()":"863e76db","acceptOrDenyLoanOffer(uint256,uint8)":"e6a7622e","claimLoan(uint256)":"53a469b3","createLoanRequest(uint256,uint256,uint256,address,uint256)":"09af8574","keyMappings(string)":"c8d5bc01","lendingDetails(uint256)":"61261ab2","loanBorrower(address,uint256)":"af7d86b9","loanDetails(uint256)":"7aa489bb","loanIssuer(address,uint256)":"0c0ed417","loanPayBack(uint256,uint256)":"a3a8d31b","owner()":"8da5cb5b","paused()":"5c975abb","setWhiteList(address,bool)":"8d14e127","updateKeymappings(string,address)":"f2b8789f","whitelist(address)":"9b19251a"}}}}}