{
  "_format": "hh-sol-artifact-1",
  "contractName": "InvyFi",
  "sourceName": "contracts/InvyFi.sol",
  "abi": [
    {
      "inputs": [
        {
          "internalType": "address",
          "name": "_pli",
          "type": "address"
        }
      ],
      "stateMutability": "nonpayable",
      "type": "constructor"
    },
    {
      "anonymous": false,
      "inputs": [
        {
          "indexed": false,
          "internalType": "string",
          "name": "_symbol",
          "type": "string"
        },
        {
          "indexed": false,
          "internalType": "address",
          "name": "_destination",
          "type": "address"
        }
      ],
      "name": "KeyAddressAdded",
      "type": "event"
    },
    {
      "anonymous": false,
      "inputs": [
        {
          "indexed": false,
          "internalType": "address",
          "name": "_lender",
          "type": "address"
        },
        {
          "indexed": false,
          "internalType": "uint256",
          "name": "_amount",
          "type": "uint256"
        },
        {
          "indexed": false,
          "internalType": "uint256",
          "name": "_lendingid",
          "type": "uint256"
        }
      ],
      "name": "LendingOffered",
      "type": "event"
    },
    {
      "anonymous": false,
      "inputs": [
        {
          "indexed": false,
          "internalType": "address",
          "name": "_borrower",
          "type": "address"
        },
        {
          "indexed": false,
          "internalType": "string",
          "name": "_status",
          "type": "string"
        }
      ],
      "name": "LoanAcceptOrDenyStatus",
      "type": "event"
    },
    {
      "anonymous": false,
      "inputs": [
        {
          "indexed": false,
          "internalType": "address",
          "name": "_lender",
          "type": "address"
        },
        {
          "indexed": false,
          "internalType": "uint256",
          "name": "_loanreqid",
          "type": "uint256"
        },
        {
          "indexed": false,
          "internalType": "uint256",
          "name": "_amount",
          "type": "uint256"
        }
      ],
      "name": "LoanClaimed",
      "type": "event"
    },
    {
      "anonymous": false,
      "inputs": [
        {
          "indexed": false,
          "internalType": "address",
          "name": "_borrower",
          "type": "address"
        },
        {
          "indexed": false,
          "internalType": "uint256",
          "name": "_loanreqid",
          "type": "uint256"
        },
        {
          "indexed": false,
          "internalType": "uint256",
          "name": "_amount",
          "type": "uint256"
        }
      ],
      "name": "LoanPaidBack",
      "type": "event"
    },
    {
      "anonymous": false,
      "inputs": [
        {
          "indexed": false,
          "internalType": "address",
          "name": "_borrower",
          "type": "address"
        },
        {
          "indexed": false,
          "internalType": "uint256",
          "name": "_amount",
          "type": "uint256"
        },
        {
          "indexed": false,
          "internalType": "uint256",
          "name": "_loanId",
          "type": "uint256"
        }
      ],
      "name": "LoanRequested",
      "type": "event"
    },
    {
      "anonymous": false,
      "inputs": [
        {
          "indexed": false,
          "internalType": "address",
          "name": "account",
          "type": "address"
        }
      ],
      "name": "Paused",
      "type": "event"
    },
    {
      "anonymous": false,
      "inputs": [
        {
          "indexed": true,
          "internalType": "bytes32",
          "name": "id",
          "type": "bytes32"
        }
      ],
      "name": "PluginCancelled",
      "type": "event"
    },
    {
      "anonymous": false,
      "inputs": [
        {
          "indexed": true,
          "internalType": "bytes32",
          "name": "id",
          "type": "bytes32"
        }
      ],
      "name": "PluginFulfilled",
      "type": "event"
    },
    {
      "anonymous": false,
      "inputs": [
        {
          "indexed": true,
          "internalType": "bytes32",
          "name": "id",
          "type": "bytes32"
        }
      ],
      "name": "PluginRequested",
      "type": "event"
    },
    {
      "anonymous": false,
      "inputs": [
        {
          "indexed": false,
          "internalType": "address",
          "name": "account",
          "type": "address"
        }
      ],
      "name": "Unpaused",
      "type": "event"
    },
    {
      "anonymous": false,
      "inputs": [
        {
          "indexed": false,
          "internalType": "address",
          "name": "_to",
          "type": "address"
        },
        {
          "indexed": false,
          "internalType": "bool",
          "name": "_flag",
          "type": "bool"
        }
      ],
      "name": "WhiteListed",
      "type": "event"
    },
    {
      "inputs": [
        {
          "internalType": "uint256",
          "name": "_loanReqId",
          "type": "uint256"
        },
        {
          "internalType": "uint256",
          "name": "_loanAmountOffered",
          "type": "uint256"
        },
        {
          "internalType": "uint256",
          "name": "_interestRate",
          "type": "uint256"
        },
        {
          "internalType": "uint256",
          "name": "_daysToExpire",
          "type": "uint256"
        },
        {
          "internalType": "enum InvyFi.Assets",
          "name": "_assets",
          "type": "uint8"
        }
      ],
      "name": "AcceptLoanRequestAndLend",
      "outputs": [],
      "stateMutability": "payable",
      "type": "function"
    },
    {
      "inputs": [],
      "name": "ONE_DAY",
      "outputs": [
        {
          "internalType": "uint256",
          "name": "",
          "type": "uint256"
        }
      ],
      "stateMutability": "view",
      "type": "function"
    },
    {
      "inputs": [
        {
          "internalType": "uint256",
          "name": "_loanReqId",
          "type": "uint256"
        },
        {
          "internalType": "enum InvyFi.Status",
          "name": "_status",
          "type": "uint8"
        }
      ],
      "name": "acceptOrDenyOffer",
      "outputs": [],
      "stateMutability": "payable",
      "type": "function"
    },
    {
      "inputs": [
        {
          "internalType": "uint256",
          "name": "_lendingId",
          "type": "uint256"
        }
      ],
      "name": "claimLoan",
      "outputs": [],
      "stateMutability": "payable",
      "type": "function"
    },
    {
      "inputs": [
        {
          "internalType": "uint256",
          "name": "_invoiceAmount",
          "type": "uint256"
        },
        {
          "internalType": "uint256",
          "name": "_loanEligibility",
          "type": "uint256"
        },
        {
          "internalType": "uint256",
          "name": "_loanToAcquire",
          "type": "uint256"
        },
        {
          "internalType": "address",
          "name": "_loanRequestedIn",
          "type": "address"
        },
        {
          "internalType": "uint256",
          "name": "_tokenId",
          "type": "uint256"
        }
      ],
      "name": "createLoanRequest",
      "outputs": [
        {
          "internalType": "uint256",
          "name": "",
          "type": "uint256"
        }
      ],
      "stateMutability": "nonpayable",
      "type": "function"
    },
    {
      "inputs": [
        {
          "internalType": "string",
          "name": "",
          "type": "string"
        }
      ],
      "name": "keyMappings",
      "outputs": [
        {
          "internalType": "address",
          "name": "",
          "type": "address"
        }
      ],
      "stateMutability": "view",
      "type": "function"
    },
    {
      "inputs": [
        {
          "internalType": "uint256",
          "name": "",
          "type": "uint256"
        }
      ],
      "name": "lendingDetails",
      "outputs": [
        {
          "internalType": "uint256",
          "name": "lendingId",
          "type": "uint256"
        },
        {
          "internalType": "uint256",
          "name": "loanReqId",
          "type": "uint256"
        },
        {
          "internalType": "uint256",
          "name": "lendingAmount",
          "type": "uint256"
        },
        {
          "internalType": "uint256",
          "name": "earnings",
          "type": "uint256"
        },
        {
          "internalType": "address",
          "name": "lender",
          "type": "address"
        },
        {
          "internalType": "enum InvyFi.Status",
          "name": "status",
          "type": "uint8"
        },
        {
          "internalType": "bool",
          "name": "isLoanClaimedBack",
          "type": "bool"
        }
      ],
      "stateMutability": "view",
      "type": "function"
    },
    {
      "inputs": [
        {
          "internalType": "address",
          "name": "",
          "type": "address"
        },
        {
          "internalType": "uint256",
          "name": "",
          "type": "uint256"
        }
      ],
      "name": "loanBorrower",
      "outputs": [
        {
          "internalType": "uint256",
          "name": "loanReqId",
          "type": "uint256"
        },
        {
          "internalType": "uint256",
          "name": "invoiceAmount",
          "type": "uint256"
        },
        {
          "internalType": "uint256",
          "name": "loanEligibility",
          "type": "uint256"
        },
        {
          "internalType": "uint256",
          "name": "loanAcquired",
          "type": "uint256"
        },
        {
          "internalType": "address",
          "name": "loanRequestedIn",
          "type": "address"
        },
        {
          "internalType": "uint256",
          "name": "currentPrincipal",
          "type": "uint256"
        },
        {
          "internalType": "uint256",
          "name": "initialPrincipal",
          "type": "uint256"
        },
        {
          "internalType": "uint256",
          "name": "interestRate",
          "type": "uint256"
        },
        {
          "internalType": "uint256",
          "name": "expiresAt",
          "type": "uint256"
        },
        {
          "internalType": "uint256",
          "name": "createdAt",
          "type": "uint256"
        },
        {
          "internalType": "address",
          "name": "borrower",
          "type": "address"
        },
        {
          "internalType": "address",
          "name": "lender",
          "type": "address"
        },
        {
          "internalType": "uint256",
          "name": "nftTokenId",
          "type": "uint256"
        },
        {
          "internalType": "enum InvyFi.Status",
          "name": "status",
          "type": "uint8"
        }
      ],
      "stateMutability": "view",
      "type": "function"
    },
    {
      "inputs": [
        {
          "internalType": "uint256",
          "name": "",
          "type": "uint256"
        }
      ],
      "name": "loanDetails",
      "outputs": [
        {
          "internalType": "uint256",
          "name": "loanReqId",
          "type": "uint256"
        },
        {
          "internalType": "uint256",
          "name": "invoiceAmount",
          "type": "uint256"
        },
        {
          "internalType": "uint256",
          "name": "loanEligibility",
          "type": "uint256"
        },
        {
          "internalType": "uint256",
          "name": "loanAcquired",
          "type": "uint256"
        },
        {
          "internalType": "address",
          "name": "loanRequestedIn",
          "type": "address"
        },
        {
          "internalType": "uint256",
          "name": "currentPrincipal",
          "type": "uint256"
        },
        {
          "internalType": "uint256",
          "name": "initialPrincipal",
          "type": "uint256"
        },
        {
          "internalType": "uint256",
          "name": "interestRate",
          "type": "uint256"
        },
        {
          "internalType": "uint256",
          "name": "expiresAt",
          "type": "uint256"
        },
        {
          "internalType": "uint256",
          "name": "createdAt",
          "type": "uint256"
        },
        {
          "internalType": "address",
          "name": "borrower",
          "type": "address"
        },
        {
          "internalType": "address",
          "name": "lender",
          "type": "address"
        },
        {
          "internalType": "uint256",
          "name": "nftTokenId",
          "type": "uint256"
        },
        {
          "internalType": "enum InvyFi.Status",
          "name": "status",
          "type": "uint8"
        }
      ],
      "stateMutability": "view",
      "type": "function"
    },
    {
      "inputs": [
        {
          "internalType": "address",
          "name": "",
          "type": "address"
        },
        {
          "internalType": "uint256",
          "name": "",
          "type": "uint256"
        }
      ],
      "name": "loanIssuer",
      "outputs": [
        {
          "internalType": "uint256",
          "name": "lendingId",
          "type": "uint256"
        },
        {
          "internalType": "uint256",
          "name": "loanReqId",
          "type": "uint256"
        },
        {
          "internalType": "uint256",
          "name": "lendingAmount",
          "type": "uint256"
        },
        {
          "internalType": "uint256",
          "name": "earnings",
          "type": "uint256"
        },
        {
          "internalType": "address",
          "name": "lender",
          "type": "address"
        },
        {
          "internalType": "enum InvyFi.Status",
          "name": "status",
          "type": "uint8"
        },
        {
          "internalType": "bool",
          "name": "isLoanClaimedBack",
          "type": "bool"
        }
      ],
      "stateMutability": "view",
      "type": "function"
    },
    {
      "inputs": [
        {
          "internalType": "uint256",
          "name": "_loanReqId",
          "type": "uint256"
        },
        {
          "internalType": "uint256",
          "name": "_amount",
          "type": "uint256"
        },
        {
          "internalType": "enum InvyFi.Status",
          "name": "_status",
          "type": "uint8"
        }
      ],
      "name": "loanPayBack",
      "outputs": [],
      "stateMutability": "payable",
      "type": "function"
    },
    {
      "inputs": [],
      "name": "owner",
      "outputs": [
        {
          "internalType": "address",
          "name": "",
          "type": "address"
        }
      ],
      "stateMutability": "view",
      "type": "function"
    },
    {
      "inputs": [],
      "name": "paused",
      "outputs": [
        {
          "internalType": "bool",
          "name": "",
          "type": "bool"
        }
      ],
      "stateMutability": "view",
      "type": "function"
    },
    {
      "inputs": [
        {
          "internalType": "address",
          "name": "_to",
          "type": "address"
        },
        {
          "internalType": "bool",
          "name": "_flag",
          "type": "bool"
        }
      ],
      "name": "setWhiteList",
      "outputs": [],
      "stateMutability": "nonpayable",
      "type": "function"
    },
    {
      "inputs": [
        {
          "internalType": "address",
          "name": "_newOwneraddress",
          "type": "address"
        }
      ],
      "name": "transferContractOwnership",
      "outputs": [],
      "stateMutability": "nonpayable",
      "type": "function"
    },
    {
      "inputs": [
        {
          "internalType": "string",
          "name": "_name",
          "type": "string"
        },
        {
          "internalType": "address",
          "name": "_destination",
          "type": "address"
        }
      ],
      "name": "updateKeymappings",
      "outputs": [],
      "stateMutability": "nonpayable",
      "type": "function"
    },
    {
      "inputs": [
        {
          "internalType": "address",
          "name": "",
          "type": "address"
        }
      ],
      "name": "whitelist",
      "outputs": [
        {
          "internalType": "bool",
          "name": "",
          "type": "bool"
        }
      ],
      "stateMutability": "view",
      "type": "function"
    },
    {
      "stateMutability": "payable",
      "type": "receive"
    }
  ],
  "bytecode": "0x608060405260016004553480156200001657600080fd5b50604051620022c8380380620022c88339810160408190526200003991620000b6565b60016006556007805460ff19169055600280546001600160a01b0319166001600160a01b038316179055600a8054336001600160a01b03199091161790556200008f6008620000ad602090811b620014e617901c565b620000a66009620000ad60201b620014e61760201c565b50620000e8565b80546001019055565b600060208284031215620000c957600080fd5b81516001600160a01b0381168114620000e157600080fd5b9392505050565b6121d080620000f86000396000f3fe6080604052600436106101025760003560e01c80638d14e12711610095578063af7d86b911610064578063af7d86b91461039c578063bfc2388f146103bc578063c8d5bc01146103cf578063d5e8d51c14610410578063f2b8789f1461042357600080fd5b80638d14e127146102f45780638da5cb5b146103145780639b19251a1461034c578063a843c51f1461037c57600080fd5b80635c975abb116100d15780635c975abb1461019c57806361261ab2146101c05780637aa489bb14610229578063863e76db146102dd57600080fd5b806309af85741461010e5780630c0ed417146101415780634304f7e21461017457806353a469b31461018957600080fd5b3661010957005b600080fd5b34801561011a57600080fd5b5061012e610129366004611c32565b610443565b6040519081526020015b60405180910390f35b34801561014d57600080fd5b5061016161015c366004611c79565b61079d565b6040516101389796959493929190611cdb565b610187610182366004611d27565b61080a565b005b610187610197366004611d78565b6109e4565b3480156101a857600080fd5b5060075460ff165b6040519015158152602001610138565b3480156101cc57600080fd5b506101616101db366004611d78565b600e6020526000908152604090208054600182015460028301546003840154600490940154929391929091906001600160a01b0381169060ff600160a01b8204811691600160a81b90041687565b34801561023557600080fd5b506102c3610244366004611d78565b600c60208190526000918252604090912080546001820154600283015460038401546004850154600586015460068701546007880154600889015460098a0154600a8b0154600b8c01549c8c0154600d909c01549a9c999b989a97996001600160a01b0397881699969895979496939592949182169391169160ff168e565b6040516101389e9d9c9b9a99989796959493929190611d91565b3480156102e957600080fd5b5061012e6201518081565b34801561030057600080fd5b5061018761030f366004611e27565b610ccb565b34801561032057600080fd5b50600a54610334906001600160a01b031681565b6040516001600160a01b039091168152602001610138565b34801561035857600080fd5b506101b0610367366004611e5e565b600b6020526000908152604090205460ff1681565b34801561038857600080fd5b50610187610397366004611e5e565b610d79565b3480156103a857600080fd5b506102c36103b7366004611c79565b610de9565b6101876103ca366004611e88565b610e87565b3480156103db57600080fd5b506103346103ea366004611f60565b80516020818301810180516010825292820191909301209152546001600160a01b031681565b61018761041e366004611f95565b6110fb565b34801561042f57600080fd5b5061018761043e366004611fc1565b611424565b600061044d6114ef565b336000908152600b602052604090205460ff16151560011461048a5760405162461bcd60e51b815260040161048190612006565b60405180910390fd5b600061049560085490565b9050604051806101c00160405280828152602001888152602001878152602001868152602001856001600160a01b031681526020016000815260200160008152602001600081526020016000815260200160008152602001336001600160a01b0316815260200160006001600160a01b031681526020018481526020016000600781111561052557610525611ca3565b600781111561053657610536611ca3565b90526000828152600c602081815260409283902084518155908401516001808301919091559284015160028201556060840151600382015560808401516004820180546001600160a01b03199081166001600160a01b039384161790915560a0860151600584015560c0860151600684015560e086015160078085019190915561010087015160088501556101208701516009850155610140870151600a850180548416918516919091179055610160870151600b850180549093169316929092179055610180850151928201929092556101a0840151600d8201805492949193909260ff19169190849081111561063057610630611ca3565b021790555050336000908152600d60208181526040808420868552600c808452918520815460018181018455928752939095208554600e909402019283558085015483820155600280860154908401556003808601549084015560048086015490840180546001600160a01b03199081166001600160a01b03938416179091556005808801549086015560068088015490860155600780880154818701556008808901549087015560098089015490870155600a8089015490870180548416918516919091179055600b80890154908701805490931693169290921790558583015492840192909255848401549383018054959650929460ff9094169360ff191691849081111561074357610743611ca3565b02179055505050610758600880546001019055565b7f7468760830aff5679376e50470c0493d21c88c599388e89b08c9512b3f3fbc7d33888360405161078b9392919061202f565b60405180910390a19695505050505050565b600f60205281600052604060002081815481106107b957600080fd5b60009182526020909120600590910201805460018201546002830154600384015460049094015492955090935091906001600160a01b0381169060ff600160a01b8204811691600160a81b90041687565b6108126114ef565b336000908152600b602052604090205460ff1615156001146108465760405162461bcd60e51b815260040161048190612006565b4260006108566201518085611537565b90506000610864838361154c565b9050600061087160095490565b60008a8152600c602052604090206008810184905560098101869055600381018a9055600681018a9055600581018a905560078101899055600b810180546001600160a01b03191633179055600d01805491925060019160ff19168280021790555060018560038111156108e7576108e7611ca3565b03610926576109268860106040516109089062504c4960e81b815260030190565b908152604051908190036020019020546001600160a01b0316611558565b600285600381111561093a5761093a611ca3565b0361095b5761095b886010604051610908906243474f60e81b815260030190565b600385600381111561096f5761096f611ca3565b036109935761099388601060405161090890655553504c555360d01b815260060190565b61099e89898361157e565b7fbb79982110a43cea0c37e81a30713ae2c51acdb54ff84b994f6d0ffad72eaebc3389836040516109d19392919061202f565b60405180910390a1505050505050505050565b6109ec6114ef565b336000908152600b602052604090205460ff161515600114610a205760405162461bcd60e51b815260040161048190612006565b6000818152600e60209081526040808320815160e081018352815481526001820154938101939093526002810154918301919091526003810154606083015260048101546001600160a01b038116608084015260a0830190600160a01b900460ff166007811115610a9357610a93611ca3565b6007811115610aa457610aa4611ca3565b815260049190910154600160a81b900460ff161515602091820152818101516000908152600c90915260409020600b01549091506001600160a01b03163314610b2f5760405162461bcd60e51b815260206004820152601a60248201527f4f6e6c79206c656e6465722063616e20636c61696d206261636b0000000000006044820152606401610481565b6000828152600e6020526040902060040154600160a81b900460ff1615610b8f5760405162461bcd60e51b8152602060048201526014602482015273131bd85b88185b1c9958591e4818db185a5b595960621b6044820152606401610481565b60036020808301516000908152600c90915260409020600d015460ff166007811115610bbd57610bbd611ca3565b14610c1f5760405162461bcd60e51b815260206004820152602c60248201527f4f6e6c792050616964204261636b204c6f616e2063616e20626520636c61696d60448201526b32b210313c902632b73232b960a11b6064820152608401610481565b6000828152600e602090815260408083206004808201805461ffff60a01b1916604160a21b179055600290910154858401518552600c909352922090910154610c7291906001600160a01b031633611749565b7f5a44e54e6176ee37f7560c3927abc3a9ff36b91a4e176e99e4349d314f0b812b338260200151600e600086815260200190815260200160002060020154604051610cbf9392919061202f565b60405180910390a15050565b600a546001600160a01b03163314610d1d5760405162461bcd60e51b81526020600482015260156024820152746f6e6c79206f776e65722063616e2075706461746560581b6044820152606401610481565b6001600160a01b0382166000818152600b6020908152604091829020805460ff19168515159081179091558251938452908301527f84ac0234e7a1ba4fc29d3f83d9bb91c347b3be5a168a035675f8b5bb1d4b1d7c9101610cbf565b600a546001600160a01b03163314610ddd5760405162461bcd60e51b815260206004820152602160248201527f4f6e6c79206f776e65722063616e207472616e73666572206f776e65727368696044820152600760fc1b6064820152608401610481565b610de681611754565b50565b600d6020528160005260406000208181548110610e0557600080fd5b60009182526020909120600e9091020180546001820154600283015460038401546004850154600586015460068701546007880154600889015460098a0154600a8b0154600b8c0154600c8d0154600d909d01549b9e50999c50979a96996001600160a01b039687169995989497939692959194831693919092169160ff168e565b610e8f6114ef565b336000908152600b602052604090205460ff161515600114610ec35760405162461bcd60e51b815260040161048190612006565b6000838152600c6020818152604080842081516101c081018352815481526001820154938101939093526002810154918301919091526003810154606083015260048101546001600160a01b039081166080840152600582015460a0840152600682015460c084015260078083015460e085015260088301546101008501526009830154610120850152600a8301548216610140850152600b83015490911661016084015292810154610180830152600d810154919290916101a084019160ff90911690811115610f9657610f96611ca3565b6007811115610fa757610fa7611ca3565b8152505090508061014001516001600160a01b0316336001600160a01b0316146110135760405162461bcd60e51b815260206004820152601a60248201527f4f6e6c7920426f72726f7765722063616e20706179206261636b0000000000006044820152606401610481565b6002816101a00151600781111561102c5761102c611ca3565b146110795760405162461bcd60e51b815260206004820152601f60248201527f4f6e6c79204163636570746564204c6f616e2063616e20706179206261636b006044820152606401610481565b6000848152600c60205260409020600d01805483919060ff191660018360078111156110a7576110a7611ca3565b02179055506110ba838260800151611558565b7f99e4fcb2ed30f260349583791c95b0fc82f5283e7b45bf2168dfd659c208bdbd3385856040516110ed9392919061202f565b60405180910390a150505050565b6111036114ef565b336000908152600b602052604090205460ff1615156001146111375760405162461bcd60e51b815260040161048190612006565b6000828152600c6020818152604080842081516101c081018352815481526001820154938101939093526002810154918301919091526003810154606083015260048101546001600160a01b039081166080840152600582015460a0840152600682015460c084015260078083015460e085015260088301546101008501526009830154610120850152600a8301548216610140850152600b83015490911661016084015292810154610180830152600d810154919290916101a084019160ff9091169081111561120a5761120a611ca3565b600781111561121b5761121b611ca3565b8152505090508061014001516001600160a01b0316336001600160a01b03161461129a5760405162461bcd60e51b815260206004820152602a60248201527f4f6e6c7920426f72726f7765722063616e20616363657074206f722044656e79604482015269103a34329037b33332b960b11b6064820152608401610481565b6001816101a0015160078111156112b3576112b3611ca3565b146113145760405162461bcd60e51b815260206004820152602b60248201527f4f6e6c79204f666665726564204c6f616e2063616e206265206163636570746560448201526a19081bdc8819195b9a595960aa1b6064820152608401610481565b6000838152600c60205260409020600d01805483919060ff1916600183600781111561134257611342611ca3565b0217905550604080516020810190915260008152600283600781111561136a5761136a611ca3565b036113a85761138782606001518360800151846101400151611749565b506040805180820190915260088152671050d0d15415115160c21b60208201525b60058360078111156113bc576113bc611ca3565b036113f3576113d48260600151836080015133611749565b5060408051808201909152600681526511115392515160d21b60208201525b7f9023397428beb52cc5d6d3382a78e748312f76860de055688ac423fe3f1a837d33826040516110ed9291906120a0565b600a546001600160a01b031633146114765760405162461bcd60e51b81526020600482015260156024820152746f6e6c79206f776e65722063616e2075706461746560581b6044820152606401610481565b8060108360405161148791906120c4565b90815260405190819003602001812080546001600160a01b03939093166001600160a01b0319909316929092179091557fea875ad889ce70b5dafbf825355f0c4adcb3814f4ab2a1f1a0f80c39a431f45690610cbf90849084906120e0565b80546001019055565b60075460ff16156115355760405162461bcd60e51b815260206004820152601060248201526f14185d5cd8589b194e881c185d5cd95960821b6044820152606401610481565b565b60006115438284612120565b90505b92915050565b60006115438284612137565b611563338284611789565b61156e338284611852565b61157a81333085611913565b5050565b6040805160e081018252828152602081018590529081018390526000606082015233608082015260a081016001815260006020918201819052838152600e82526040908190208351815591830151600183015582015160028201556060820151600382015560808201516004820180546001600160a01b039092166001600160a01b031983168117825560a0850151926001600160a81b03191617600160a01b83600781111561163057611630611ca3565b021790555060c0919091015160049182018054911515600160a81b0260ff60a81b19909216919091179055336000908152600f60209081526040808320858452600e835290832081546001818101845592855292909320835460059093020191825582810154908201556002808301549082015560038083015490820155818301805493820180546001600160a01b031981166001600160a01b03969096169586178255915493949293600160a01b9081900460ff169391926001600160a81b0319169091179083600781111561170957611709611ca3565b02179055506004918201549101805460ff60a81b1916600160a81b9283900460ff161515909202919091179055600980546001019055505050565b505050565b611744828285611984565b6001600160a01b03811661176757600080fd5b600a80546001600160a01b0319166001600160a01b0392909216919091179055565b6040516370a0823160e01b81526001600160a01b0384811660048301528291908416906370a0823190602401602060405180830381865afa1580156117d2573d6000803e3d6000fd5b505050506040513d601f19601f820116820180604052508101906117f6919061214a565b10156117445760405162461bcd60e51b815260206004820152602560248201527f496e567946793a20696e73756666696369656e742063757272656e63792062616044820152646c616e636560d81b6064820152608401610481565b604051636eb1769f60e11b81526001600160a01b03848116600483015230602483015282919084169063dd62ed3e90604401602060405180830381865afa1580156118a1573d6000803e3d6000fd5b505050506040513d601f19601f820116820180604052508101906118c5919061214a565b10156117445760405162461bcd60e51b815260206004820152601f60248201527f496e567946793a20696e73756666696369656e7420616c6c6f77616e63652e006044820152606401610481565b6040516001600160a01b038085166024830152831660448201526064810182905261197e9085906323b872dd60e01b906084015b60408051601f198184030181529190526020810180516001600160e01b03166001600160e01b0319909316929092179091526119b4565b50505050565b6040516001600160a01b03831660248201526044810182905261174490849063a9059cbb60e01b90606401611947565b6000611a09826040518060400160405280602081526020017f5361666545524332303a206c6f772d6c6576656c2063616c6c206661696c6564815250856001600160a01b0316611a869092919063ffffffff16565b8051909150156117445780806020019051810190611a279190612163565b6117445760405162461bcd60e51b815260206004820152602a60248201527f5361666545524332303a204552433230206f7065726174696f6e20646964206e6044820152691bdd081cdd58d8d9595960b21b6064820152608401610481565b6060611a958484600085611a9d565b949350505050565b606082471015611afe5760405162461bcd60e51b815260206004820152602660248201527f416464726573733a20696e73756666696369656e742062616c616e636520666f6044820152651c8818d85b1b60d21b6064820152608401610481565b600080866001600160a01b03168587604051611b1a91906120c4565b60006040518083038185875af1925050503d8060008114611b57576040519150601f19603f3d011682016040523d82523d6000602084013e611b5c565b606091505b5091509150611b6d87838387611b78565b979650505050505050565b60608315611be7578251600003611be0576001600160a01b0385163b611be05760405162461bcd60e51b815260206004820152601d60248201527f416464726573733a2063616c6c20746f206e6f6e2d636f6e74726163740000006044820152606401610481565b5081611a95565b611a958383815115611bfc5781518083602001fd5b8060405162461bcd60e51b81526004016104819190612187565b80356001600160a01b0381168114611c2d57600080fd5b919050565b600080600080600060a08688031215611c4a57600080fd5b853594506020860135935060408601359250611c6860608701611c16565b949793965091946080013592915050565b60008060408385031215611c8c57600080fd5b611c9583611c16565b946020939093013593505050565b634e487b7160e01b600052602160045260246000fd5b60088110611cd757634e487b7160e01b600052602160045260246000fd5b9052565b8781526020810187905260408101869052606081018590526001600160a01b038416608082015260e08101611d1360a0830185611cb9565b82151560c083015298975050505050505050565b600080600080600060a08688031215611d3f57600080fd5b85359450602086013593506040860135925060608601359150608086013560048110611d6a57600080fd5b809150509295509295909350565b600060208284031215611d8a57600080fd5b5035919050565b60006101c0820190508f82528e60208301528d60408301528c606083015260018060a01b03808d1660808401528b60a08401528a60c08401528960e084015288610100840152876101208401528087166101408401528086166101608401525083610180830152611e066101a0830184611cb9565b9f9e505050505050505050505050505050565b8015158114610de657600080fd5b60008060408385031215611e3a57600080fd5b611e4383611c16565b91506020830135611e5381611e19565b809150509250929050565b600060208284031215611e7057600080fd5b61154382611c16565b803560088110611c2d57600080fd5b600080600060608486031215611e9d57600080fd5b8335925060208401359150611eb460408501611e79565b90509250925092565b634e487b7160e01b600052604160045260246000fd5b600082601f830112611ee457600080fd5b813567ffffffffffffffff80821115611eff57611eff611ebd565b604051601f8301601f19908116603f01168101908282118183101715611f2757611f27611ebd565b81604052838152866020858801011115611f4057600080fd5b836020870160208301376000602085830101528094505050505092915050565b600060208284031215611f7257600080fd5b813567ffffffffffffffff811115611f8957600080fd5b611a9584828501611ed3565b60008060408385031215611fa857600080fd5b82359150611fb860208401611e79565b90509250929050565b60008060408385031215611fd457600080fd5b823567ffffffffffffffff811115611feb57600080fd5b611ff785828601611ed3565b925050611fb860208401611c16565b6020808252600f908201526e139bdd081dda1a5d195b1a5cdd1959608a1b604082015260600190565b6001600160a01b039390931683526020830191909152604082015260600190565b60005b8381101561206b578181015183820152602001612053565b50506000910152565b6000815180845261208c816020860160208601612050565b601f01601f19169290920160200192915050565b6001600160a01b0383168152604060208201819052600090611a9590830184612074565b600082516120d6818460208701612050565b9190910192915050565b6040815260006120f36040830185612074565b905060018060a01b03831660208301529392505050565b634e487b7160e01b600052601160045260246000fd5b80820281158282048414176115465761154661210a565b808201808211156115465761154661210a565b60006020828403121561215c57600080fd5b5051919050565b60006020828403121561217557600080fd5b815161218081611e19565b9392505050565b602081526000611543602083018461207456fea2646970667358221220c652684229ce49d387d2677b88646ab9aa7301e312b4b856032645cd96d3f6ad64736f6c63430008110033",
  "linkReferences": {},
  "deployedLinkReferences": {}
}