{
  "_format": "hh-sol-artifact-1",
  "contractName": "InvyFi",
  "sourceName": "contracts/InvyFi.sol",
  "abi": [
    {
      "inputs": [
        {
          "internalType": "address",
          "name": "_pli",
          "type": "address"
        }
      ],
      "stateMutability": "nonpayable",
      "type": "constructor"
    },
    {
      "anonymous": false,
      "inputs": [
        {
          "indexed": false,
          "internalType": "string",
          "name": "_symbol",
          "type": "string"
        },
        {
          "indexed": false,
          "internalType": "address",
          "name": "_destination",
          "type": "address"
        }
      ],
      "name": "KeyAddressAdded",
      "type": "event"
    },
    {
      "anonymous": false,
      "inputs": [
        {
          "indexed": false,
          "internalType": "address",
          "name": "_lender",
          "type": "address"
        },
        {
          "indexed": false,
          "internalType": "uint256",
          "name": "_amount",
          "type": "uint256"
        },
        {
          "indexed": false,
          "internalType": "uint256",
          "name": "_lendingid",
          "type": "uint256"
        }
      ],
      "name": "LendingOffered",
      "type": "event"
    },
    {
      "anonymous": false,
      "inputs": [
        {
          "indexed": false,
          "internalType": "address",
          "name": "_borrower",
          "type": "address"
        },
        {
          "indexed": false,
          "internalType": "string",
          "name": "_status",
          "type": "string"
        }
      ],
      "name": "LoanAcceptStatus",
      "type": "event"
    },
    {
      "anonymous": false,
      "inputs": [
        {
          "indexed": false,
          "internalType": "address",
          "name": "_lender",
          "type": "address"
        },
        {
          "indexed": false,
          "internalType": "uint256",
          "name": "_loanreqid",
          "type": "uint256"
        },
        {
          "indexed": false,
          "internalType": "uint256",
          "name": "_amount",
          "type": "uint256"
        }
      ],
      "name": "LoanClaimed",
      "type": "event"
    },
    {
      "anonymous": false,
      "inputs": [
        {
          "indexed": false,
          "internalType": "address",
          "name": "_borrower",
          "type": "address"
        },
        {
          "indexed": false,
          "internalType": "uint256",
          "name": "_loanreqid",
          "type": "uint256"
        },
        {
          "indexed": false,
          "internalType": "uint256",
          "name": "_amount",
          "type": "uint256"
        }
      ],
      "name": "LoanPaidBack",
      "type": "event"
    },
    {
      "anonymous": false,
      "inputs": [
        {
          "indexed": false,
          "internalType": "address",
          "name": "_borrower",
          "type": "address"
        },
        {
          "indexed": false,
          "internalType": "uint256",
          "name": "_amount",
          "type": "uint256"
        },
        {
          "indexed": false,
          "internalType": "uint256",
          "name": "_reqid",
          "type": "uint256"
        }
      ],
      "name": "LoanRequested",
      "type": "event"
    },
    {
      "anonymous": false,
      "inputs": [
        {
          "indexed": false,
          "internalType": "address",
          "name": "account",
          "type": "address"
        }
      ],
      "name": "Paused",
      "type": "event"
    },
    {
      "anonymous": false,
      "inputs": [
        {
          "indexed": true,
          "internalType": "bytes32",
          "name": "id",
          "type": "bytes32"
        }
      ],
      "name": "PluginCancelled",
      "type": "event"
    },
    {
      "anonymous": false,
      "inputs": [
        {
          "indexed": true,
          "internalType": "bytes32",
          "name": "id",
          "type": "bytes32"
        }
      ],
      "name": "PluginFulfilled",
      "type": "event"
    },
    {
      "anonymous": false,
      "inputs": [
        {
          "indexed": true,
          "internalType": "bytes32",
          "name": "id",
          "type": "bytes32"
        }
      ],
      "name": "PluginRequested",
      "type": "event"
    },
    {
      "anonymous": false,
      "inputs": [
        {
          "indexed": false,
          "internalType": "address",
          "name": "account",
          "type": "address"
        }
      ],
      "name": "Unpaused",
      "type": "event"
    },
    {
      "anonymous": false,
      "inputs": [
        {
          "indexed": false,
          "internalType": "address",
          "name": "_to",
          "type": "address"
        },
        {
          "indexed": false,
          "internalType": "bool",
          "name": "_flag",
          "type": "bool"
        }
      ],
      "name": "WhiteListed",
      "type": "event"
    },
    {
      "inputs": [
        {
          "internalType": "uint256",
          "name": "_loanReqId",
          "type": "uint256"
        },
        {
          "internalType": "uint256",
          "name": "_loanAmountOffered",
          "type": "uint256"
        },
        {
          "internalType": "uint256",
          "name": "_interestRate",
          "type": "uint256"
        },
        {
          "internalType": "uint256",
          "name": "_daysToExpire",
          "type": "uint256"
        },
        {
          "internalType": "enum InvyFi.Assets",
          "name": "_assets",
          "type": "uint8"
        }
      ],
      "name": "AcceptLoanRequestAndLend",
      "outputs": [],
      "stateMutability": "payable",
      "type": "function"
    },
    {
      "inputs": [],
      "name": "ONE_DAY",
      "outputs": [
        {
          "internalType": "uint256",
          "name": "",
          "type": "uint256"
        }
      ],
      "stateMutability": "view",
      "type": "function"
    },
    {
      "inputs": [
        {
          "internalType": "uint256",
          "name": "_loanReqId",
          "type": "uint256"
        }
      ],
      "name": "acceptOffer",
      "outputs": [],
      "stateMutability": "payable",
      "type": "function"
    },
    {
      "inputs": [
        {
          "internalType": "uint256",
          "name": "_lendingId",
          "type": "uint256"
        }
      ],
      "name": "claimLoan",
      "outputs": [],
      "stateMutability": "payable",
      "type": "function"
    },
    {
      "inputs": [
        {
          "internalType": "uint256",
          "name": "_invoiceAmount",
          "type": "uint256"
        },
        {
          "internalType": "uint256",
          "name": "_loanEligibility",
          "type": "uint256"
        },
        {
          "internalType": "uint256",
          "name": "_loanToAcquire",
          "type": "uint256"
        },
        {
          "internalType": "address",
          "name": "_loanRequestedIn",
          "type": "address"
        },
        {
          "internalType": "uint256",
          "name": "_tokenId",
          "type": "uint256"
        }
      ],
      "name": "createLoanRequest",
      "outputs": [
        {
          "internalType": "uint256",
          "name": "",
          "type": "uint256"
        }
      ],
      "stateMutability": "nonpayable",
      "type": "function"
    },
    {
      "inputs": [
        {
          "internalType": "string",
          "name": "",
          "type": "string"
        }
      ],
      "name": "keyMappings",
      "outputs": [
        {
          "internalType": "address",
          "name": "",
          "type": "address"
        }
      ],
      "stateMutability": "view",
      "type": "function"
    },
    {
      "inputs": [
        {
          "internalType": "uint256",
          "name": "",
          "type": "uint256"
        }
      ],
      "name": "lendingDetails",
      "outputs": [
        {
          "internalType": "uint256",
          "name": "lendingId",
          "type": "uint256"
        },
        {
          "internalType": "uint256",
          "name": "loanReqId",
          "type": "uint256"
        },
        {
          "internalType": "uint256",
          "name": "lendingAmount",
          "type": "uint256"
        },
        {
          "internalType": "uint256",
          "name": "earnings",
          "type": "uint256"
        },
        {
          "internalType": "address",
          "name": "lender",
          "type": "address"
        },
        {
          "internalType": "enum InvyFi.Status",
          "name": "status",
          "type": "uint8"
        },
        {
          "internalType": "bool",
          "name": "isLoanClaimedBack",
          "type": "bool"
        }
      ],
      "stateMutability": "view",
      "type": "function"
    },
    {
      "inputs": [
        {
          "internalType": "address",
          "name": "",
          "type": "address"
        },
        {
          "internalType": "uint256",
          "name": "",
          "type": "uint256"
        }
      ],
      "name": "loanBorrower",
      "outputs": [
        {
          "internalType": "uint256",
          "name": "loanReqId",
          "type": "uint256"
        },
        {
          "internalType": "uint256",
          "name": "invoiceAmount",
          "type": "uint256"
        },
        {
          "internalType": "uint256",
          "name": "loanEligibility",
          "type": "uint256"
        },
        {
          "internalType": "uint256",
          "name": "loanAcquired",
          "type": "uint256"
        },
        {
          "internalType": "address",
          "name": "loanRequestedIn",
          "type": "address"
        },
        {
          "internalType": "uint256",
          "name": "currentPrincipal",
          "type": "uint256"
        },
        {
          "internalType": "uint256",
          "name": "initialPrincipal",
          "type": "uint256"
        },
        {
          "internalType": "uint256",
          "name": "interestRate",
          "type": "uint256"
        },
        {
          "internalType": "uint256",
          "name": "expiresAt",
          "type": "uint256"
        },
        {
          "internalType": "uint256",
          "name": "createdAt",
          "type": "uint256"
        },
        {
          "internalType": "address",
          "name": "borrower",
          "type": "address"
        },
        {
          "internalType": "address",
          "name": "lender",
          "type": "address"
        },
        {
          "internalType": "uint256",
          "name": "nftTokenId",
          "type": "uint256"
        },
        {
          "internalType": "enum InvyFi.Status",
          "name": "status",
          "type": "uint8"
        }
      ],
      "stateMutability": "view",
      "type": "function"
    },
    {
      "inputs": [
        {
          "internalType": "uint256",
          "name": "",
          "type": "uint256"
        }
      ],
      "name": "loanDetails",
      "outputs": [
        {
          "internalType": "uint256",
          "name": "loanReqId",
          "type": "uint256"
        },
        {
          "internalType": "uint256",
          "name": "invoiceAmount",
          "type": "uint256"
        },
        {
          "internalType": "uint256",
          "name": "loanEligibility",
          "type": "uint256"
        },
        {
          "internalType": "uint256",
          "name": "loanAcquired",
          "type": "uint256"
        },
        {
          "internalType": "address",
          "name": "loanRequestedIn",
          "type": "address"
        },
        {
          "internalType": "uint256",
          "name": "currentPrincipal",
          "type": "uint256"
        },
        {
          "internalType": "uint256",
          "name": "initialPrincipal",
          "type": "uint256"
        },
        {
          "internalType": "uint256",
          "name": "interestRate",
          "type": "uint256"
        },
        {
          "internalType": "uint256",
          "name": "expiresAt",
          "type": "uint256"
        },
        {
          "internalType": "uint256",
          "name": "createdAt",
          "type": "uint256"
        },
        {
          "internalType": "address",
          "name": "borrower",
          "type": "address"
        },
        {
          "internalType": "address",
          "name": "lender",
          "type": "address"
        },
        {
          "internalType": "uint256",
          "name": "nftTokenId",
          "type": "uint256"
        },
        {
          "internalType": "enum InvyFi.Status",
          "name": "status",
          "type": "uint8"
        }
      ],
      "stateMutability": "view",
      "type": "function"
    },
    {
      "inputs": [
        {
          "internalType": "address",
          "name": "",
          "type": "address"
        },
        {
          "internalType": "uint256",
          "name": "",
          "type": "uint256"
        }
      ],
      "name": "loanIssuer",
      "outputs": [
        {
          "internalType": "uint256",
          "name": "lendingId",
          "type": "uint256"
        },
        {
          "internalType": "uint256",
          "name": "loanReqId",
          "type": "uint256"
        },
        {
          "internalType": "uint256",
          "name": "lendingAmount",
          "type": "uint256"
        },
        {
          "internalType": "uint256",
          "name": "earnings",
          "type": "uint256"
        },
        {
          "internalType": "address",
          "name": "lender",
          "type": "address"
        },
        {
          "internalType": "enum InvyFi.Status",
          "name": "status",
          "type": "uint8"
        },
        {
          "internalType": "bool",
          "name": "isLoanClaimedBack",
          "type": "bool"
        }
      ],
      "stateMutability": "view",
      "type": "function"
    },
    {
      "inputs": [
        {
          "internalType": "uint256",
          "name": "_loanReqId",
          "type": "uint256"
        },
        {
          "internalType": "uint256",
          "name": "_amount",
          "type": "uint256"
        }
      ],
      "name": "loanPayBack",
      "outputs": [],
      "stateMutability": "payable",
      "type": "function"
    },
    {
      "inputs": [],
      "name": "owner",
      "outputs": [
        {
          "internalType": "address",
          "name": "",
          "type": "address"
        }
      ],
      "stateMutability": "view",
      "type": "function"
    },
    {
      "inputs": [],
      "name": "paused",
      "outputs": [
        {
          "internalType": "bool",
          "name": "",
          "type": "bool"
        }
      ],
      "stateMutability": "view",
      "type": "function"
    },
    {
      "inputs": [
        {
          "internalType": "address",
          "name": "_to",
          "type": "address"
        },
        {
          "internalType": "bool",
          "name": "_flag",
          "type": "bool"
        }
      ],
      "name": "setWhiteList",
      "outputs": [],
      "stateMutability": "nonpayable",
      "type": "function"
    },
    {
      "inputs": [
        {
          "internalType": "string",
          "name": "_name",
          "type": "string"
        },
        {
          "internalType": "address",
          "name": "_destination",
          "type": "address"
        }
      ],
      "name": "updateKeymappings",
      "outputs": [],
      "stateMutability": "nonpayable",
      "type": "function"
    },
    {
      "inputs": [
        {
          "internalType": "address",
          "name": "",
          "type": "address"
        }
      ],
      "name": "whitelist",
      "outputs": [
        {
          "internalType": "bool",
          "name": "",
          "type": "bool"
        }
      ],
      "stateMutability": "view",
      "type": "function"
    },
    {
      "stateMutability": "payable",
      "type": "receive"
    }
  ],
  "bytecode": "0x608060405260016004553480156200001657600080fd5b5060405162001eac38038062001eac8339810160408190526200003991620000b6565b60016006556007805460ff19169055600280546001600160a01b0319166001600160a01b038316179055600a8054336001600160a01b03199091161790556200008f6008620000ad602090811b6200116017901c565b620000a66009620000ad60201b620011601760201c565b50620000e8565b80546001019055565b600060208284031215620000c957600080fd5b81516001600160a01b0381168114620000e157600080fd5b9392505050565b611db480620000f86000396000f3fe6080604052600436106100f75760003560e01c80638d14e1271161008a578063af7d86b911610059578063af7d86b914610384578063c815729d146103a4578063c8d5bc01146103b7578063f2b8789f146103f857600080fd5b80638d14e127146102e95780638da5cb5b146103095780639b19251a14610341578063a3a8d31b1461037157600080fd5b80635c975abb116100c65780635c975abb1461019157806361261ab2146101b55780637aa489bb1461021e578063863e76db146102d257600080fd5b806309af8574146101035780630c0ed417146101365780634304f7e21461016957806353a469b31461017e57600080fd5b366100fe57005b600080fd5b34801561010f57600080fd5b5061012361011e3660046118a5565b610418565b6040519081526020015b60405180910390f35b34801561014257600080fd5b506101566101513660046118ec565b610766565b60405161012d979695949392919061194e565b61017c61017736600461199a565b6107d3565b005b61017c61018c3660046119eb565b610972565b34801561019d57600080fd5b5060075460ff165b604051901515815260200161012d565b3480156101c157600080fd5b506101566101d03660046119eb565b600e6020526000908152604090208054600182015460028301546003840154600490940154929391929091906001600160a01b0381169060ff600160a01b8204811691600160a81b90041687565b34801561022a57600080fd5b506102b86102393660046119eb565b600c60208190526000918252604090912080546001820154600283015460038401546004850154600586015460068701546007880154600889015460098a0154600a8b0154600b8c01549c8c0154600d909c01549a9c999b989a97996001600160a01b0397881699969895979496939592949182169391169160ff168e565b60405161012d9e9d9c9b9a99989796959493929190611a04565b3480156102de57600080fd5b506101236201518081565b3480156102f557600080fd5b5061017c610304366004611a9d565b610b9a565b34801561031557600080fd5b50600a54610329906001600160a01b031681565b6040516001600160a01b03909116815260200161012d565b34801561034d57600080fd5b506101a561035c366004611ad4565b600b6020526000908152604090205460ff1681565b61017c61037f366004611aef565b610c48565b34801561039057600080fd5b506102b861039f3660046118ec565b610e0c565b61017c6103b23660046119eb565b610eaa565b3480156103c357600080fd5b506103296103d2366004611bb4565b80516020818301810180516010825292820191909301209152546001600160a01b031681565b34801561040457600080fd5b5061017c610413366004611be9565b61109e565b6000610422611169565b600061042d60085490565b9050604051806101c0016040528061044460085490565b8152602001888152602001878152602001868152602001856001600160a01b031681526020016000815260200160008152602001600081526020016000815260200160008152602001336001600160a01b0316815260200160006001600160a01b03168152602001848152602001600060078111156104c5576104c5611916565b60078111156104d6576104d6611916565b9052600c60006104e560085490565b8152602080820192909252604090810160002083518155918301516001808401919091559083015160028301556060830151600383015560808301516004830180546001600160a01b03199081166001600160a01b039384161790915560a0850151600585015560c0850151600685015560e085015160078086019190915561010086015160088601556101208601516009860155610140860151600a860180548416918516919091179055610160860151600b860180549093169316929092179055610180840151600c8401556101a0840151600d840180549193909260ff199092169184908111156105db576105db611916565b021790555050336000908152600d602052604081209150600c906105fe60085490565b81526020808201929092526040016000908120835460018181018655948352929091208154600e909302019182558281015482840155600280820154908301556003808201549083015560048082015490830180546001600160a01b03199081166001600160a01b03938416179091556005808401549085015560068084015490850155600780840154818601556008808501549086015560098085015490860155600a8085015490860180548416918516919091179055600b8085015490860180549093169316929092179055600c8083015490840155600d808301549084018054939560ff90921693909260ff199091169190849081111561070457610704611916565b02179055505050610719600880546001019055565b7f7468760830aff5679376e50470c0493d21c88c599388e89b08c9512b3f3fbc7d338861074560085490565b60405161075493929190611c37565b60405180910390a19695505050505050565b600f602052816000526040600020818154811061078257600080fd5b60009182526020909120600590910201805460018201546002830154600384015460049094015492955090935091906001600160a01b0381169060ff600160a01b8204811691600160a81b90041687565b6107db611169565b4260006107eb62015180856111b1565b905060006107f983836111c6565b6000898152600c60205260409020600881018290556009810185905560038101899055600681018990556005810189905560078101889055600b810180546001600160a01b03191633179055600d01805491925060019160ff191682800217905550600184600381111561086f5761086f611916565b036108ae576108ae8760106040516108909062504c4960e81b815260030190565b908152604051908190036020019020546001600160a01b03166111d2565b60028460038111156108c2576108c2611916565b036108e3576108e3876010604051610890906243474f60e81b815260030190565b60038460038111156108f7576108f7611916565b0361091b5761091b87601060405161089090655553504c555360d01b815260060190565b61092588886111f8565b7fbb79982110a43cea0c37e81a30713ae2c51acdb54ff84b994f6d0ffad72eaebc338861095160095490565b60405161096093929190611c37565b60405180910390a15050505050505050565b61097a611169565b6000818152600e60209081526040808320815160e081018352815481526001820154938101939093526002810154918301919091526003810154606083015260048101546001600160a01b038116608084015260a0830190600160a01b900460ff1660078111156109ed576109ed611916565b60078111156109fe576109fe611916565b815260049190910154600160a81b900460ff161515602091820152818101516000908152600c90915260409020600b01549091506001600160a01b03163314610a8e5760405162461bcd60e51b815260206004820152601a60248201527f4f6e6c79206c656e6465722063616e20636c61696d206261636b00000000000060448201526064015b60405180910390fd5b6000828152600e6020526040902060040154600160a81b900460ff1615610aee5760405162461bcd60e51b8152602060048201526014602482015273131bd85b88185b1c9958591e4818db185a5b595960621b6044820152606401610a85565b6000828152600e602090815260408083206004808201805461ffff60a01b1916604160a21b179055600290910154858401518552600c909352922090910154610b4191906001600160a01b0316336113ec565b7f5a44e54e6176ee37f7560c3927abc3a9ff36b91a4e176e99e4349d314f0b812b338260200151600e600086815260200190815260200160002060020154604051610b8e93929190611c37565b60405180910390a15050565b600a546001600160a01b03163314610bec5760405162461bcd60e51b81526020600482015260156024820152746f6e6c79206f776e65722063616e2075706461746560581b6044820152606401610a85565b6001600160a01b0382166000818152600b6020908152604091829020805460ff19168515159081179091558251938452908301527f84ac0234e7a1ba4fc29d3f83d9bb91c347b3be5a168a035675f8b5bb1d4b1d7c9101610b8e565b610c50611169565b6000828152600c6020818152604080842081516101c081018352815481526001820154938101939093526002810154918301919091526003810154606083015260048101546001600160a01b039081166080840152600582015460a0840152600682015460c084015260078083015460e085015260088301546101008501526009830154610120850152600a8301548216610140850152600b83015490911661016084015292810154610180830152600d810154919290916101a084019160ff90911690811115610d2357610d23611916565b6007811115610d3457610d34611916565b8152505090508061014001516001600160a01b0316336001600160a01b031614610da05760405162461bcd60e51b815260206004820152601a60248201527f4f6e6c7920426f72726f7765722063616e20706179206261636b0000000000006044820152606401610a85565b6000838152600c60205260409020600d01805460ff191660031790556080810151610dcc9083906111d2565b7f99e4fcb2ed30f260349583791c95b0fc82f5283e7b45bf2168dfd659c208bdbd338484604051610dff93929190611c37565b60405180910390a1505050565b600d6020528160005260406000208181548110610e2857600080fd5b60009182526020909120600e9091020180546001820154600283015460038401546004850154600586015460068701546007880154600889015460098a0154600a8b0154600b8c0154600c8d0154600d909d01549b9e50999c50979a96996001600160a01b039687169995989497939692959194831693919092169160ff168e565b610eb2611169565b6000818152600c6020818152604080842081516101c081018352815481526001820154938101939093526002810154918301919091526003810154606083015260048101546001600160a01b039081166080840152600582015460a0840152600682015460c084015260078083015460e085015260088301546101008501526009830154610120850152600a8301548216610140850152600b83015490911661016084015292810154610180830152600d810154919290916101a084019160ff90911690811115610f8557610f85611916565b6007811115610f9657610f96611916565b8152505090508061014001516001600160a01b0316336001600160a01b0316146110155760405162461bcd60e51b815260206004820152602a60248201527f4f6e6c7920426f72726f7765722063616e20616363657074206f722044656e79604482015269103a34329037b33332b960b11b6064820152608401610a85565b6000828152600c60205260409020600d01805460ff191660021790556060810151608082015161014083015161104c9291906113ec565b6040805133815260208101829052600891810191909152671058d8d95c1d195960c21b60608201527f9fc23e5defa88077cb299bfde5885bd1534503d789719ea5a449c7c2244a7bc390608001610b8e565b600a546001600160a01b031633146110f05760405162461bcd60e51b81526020600482015260156024820152746f6e6c79206f776e65722063616e2075706461746560581b6044820152606401610a85565b806010836040516111019190611c7c565b90815260405190819003602001812080546001600160a01b03939093166001600160a01b0319909316929092179091557fea875ad889ce70b5dafbf825355f0c4adcb3814f4ab2a1f1a0f80c39a431f45690610b8e9084908490611cc4565b80546001019055565b60075460ff16156111af5760405162461bcd60e51b815260206004820152601060248201526f14185d5cd8589b194e881c185d5cd95960821b6044820152606401610a85565b565b60006111bd8284611d04565b90505b92915050565b60006111bd8284611d1b565b6111dd3382846113fc565b6111e83382846114c5565b6111f481333085611586565b5050565b6040518060e0016040528061120c60095490565b815260208101849052604081018390526000606082015233608082015260a0016001815260200160001515815250600e600061124760095490565b815260208082019290925260409081016000208351815591830151600183015582015160028201556060820151600382015560808201516004820180546001600160a01b039092166001600160a01b031983168117825560a0850151926001600160a81b03191617600160a01b8360078111156112c6576112c6611916565b021790555060c0919091015160049091018054911515600160a81b0260ff60a81b19909216919091179055336000908152600f6020526040812090600e9061130d60095490565b81526020808201929092526040016000908120835460018181018655948352929091208154600590930201918255828101549282019290925560028083015490820155600380830154908201556004808301805491830180546001600160a01b031981166001600160a01b039094169384178255915460ff600160a01b91829004169391926001600160a81b031916909117908360078111156113b2576113b2611916565b02179055506004918201549101805460ff60a81b1916600160a81b9283900460ff1615159092029190911790556009805460010190555050565b6113f78282856115f7565b505050565b6040516370a0823160e01b81526001600160a01b0384811660048301528291908416906370a0823190602401602060405180830381865afa158015611445573d6000803e3d6000fd5b505050506040513d601f19601f820116820180604052508101906114699190611d2e565b10156113f75760405162461bcd60e51b815260206004820152602560248201527f496e567946793a20696e73756666696369656e742063757272656e63792062616044820152646c616e636560d81b6064820152608401610a85565b604051636eb1769f60e11b81526001600160a01b03848116600483015230602483015282919084169063dd62ed3e90604401602060405180830381865afa158015611514573d6000803e3d6000fd5b505050506040513d601f19601f820116820180604052508101906115389190611d2e565b10156113f75760405162461bcd60e51b815260206004820152601f60248201527f496e567946793a20696e73756666696369656e7420616c6c6f77616e63652e006044820152606401610a85565b6040516001600160a01b03808516602483015283166044820152606481018290526115f19085906323b872dd60e01b906084015b60408051601f198184030181529190526020810180516001600160e01b03166001600160e01b031990931692909217909152611627565b50505050565b6040516001600160a01b0383166024820152604481018290526113f790849063a9059cbb60e01b906064016115ba565b600061167c826040518060400160405280602081526020017f5361666545524332303a206c6f772d6c6576656c2063616c6c206661696c6564815250856001600160a01b03166116f99092919063ffffffff16565b8051909150156113f7578080602001905181019061169a9190611d47565b6113f75760405162461bcd60e51b815260206004820152602a60248201527f5361666545524332303a204552433230206f7065726174696f6e20646964206e6044820152691bdd081cdd58d8d9595960b21b6064820152608401610a85565b60606117088484600085611710565b949350505050565b6060824710156117715760405162461bcd60e51b815260206004820152602660248201527f416464726573733a20696e73756666696369656e742062616c616e636520666f6044820152651c8818d85b1b60d21b6064820152608401610a85565b600080866001600160a01b0316858760405161178d9190611c7c565b60006040518083038185875af1925050503d80600081146117ca576040519150601f19603f3d011682016040523d82523d6000602084013e6117cf565b606091505b50915091506117e0878383876117eb565b979650505050505050565b6060831561185a578251600003611853576001600160a01b0385163b6118535760405162461bcd60e51b815260206004820152601d60248201527f416464726573733a2063616c6c20746f206e6f6e2d636f6e74726163740000006044820152606401610a85565b5081611708565b611708838381511561186f5781518083602001fd5b8060405162461bcd60e51b8152600401610a859190611d6b565b80356001600160a01b03811681146118a057600080fd5b919050565b600080600080600060a086880312156118bd57600080fd5b8535945060208601359350604086013592506118db60608701611889565b949793965091946080013592915050565b600080604083850312156118ff57600080fd5b61190883611889565b946020939093013593505050565b634e487b7160e01b600052602160045260246000fd5b6008811061194a57634e487b7160e01b600052602160045260246000fd5b9052565b8781526020810187905260408101869052606081018590526001600160a01b038416608082015260e0810161198660a083018561192c565b82151560c083015298975050505050505050565b600080600080600060a086880312156119b257600080fd5b853594506020860135935060408601359250606086013591506080860135600481106119dd57600080fd5b809150509295509295909350565b6000602082840312156119fd57600080fd5b5035919050565b60006101c0820190508f82528e60208301528d60408301528c606083015260018060a01b03808d1660808401528b60a08401528a60c08401528960e084015288610100840152876101208401528087166101408401528086166101608401525083610180830152611a796101a083018461192c565b9f9e505050505050505050505050505050565b8015158114611a9a57600080fd5b50565b60008060408385031215611ab057600080fd5b611ab983611889565b91506020830135611ac981611a8c565b809150509250929050565b600060208284031215611ae657600080fd5b6111bd82611889565b60008060408385031215611b0257600080fd5b50508035926020909101359150565b634e487b7160e01b600052604160045260246000fd5b600082601f830112611b3857600080fd5b813567ffffffffffffffff80821115611b5357611b53611b11565b604051601f8301601f19908116603f01168101908282118183101715611b7b57611b7b611b11565b81604052838152866020858801011115611b9457600080fd5b836020870160208301376000602085830101528094505050505092915050565b600060208284031215611bc657600080fd5b813567ffffffffffffffff811115611bdd57600080fd5b61170884828501611b27565b60008060408385031215611bfc57600080fd5b823567ffffffffffffffff811115611c1357600080fd5b611c1f85828601611b27565b925050611c2e60208401611889565b90509250929050565b6001600160a01b039390931683526020830191909152604082015260600190565b60005b83811015611c73578181015183820152602001611c5b565b50506000910152565b60008251611c8e818460208701611c58565b9190910192915050565b60008151808452611cb0816020860160208601611c58565b601f01601f19169290920160200192915050565b604081526000611cd76040830185611c98565b905060018060a01b03831660208301529392505050565b634e487b7160e01b600052601160045260246000fd5b80820281158282048414176111c0576111c0611cee565b808201808211156111c0576111c0611cee565b600060208284031215611d4057600080fd5b5051919050565b600060208284031215611d5957600080fd5b8151611d6481611a8c565b9392505050565b6020815260006111bd6020830184611c9856fea2646970667358221220f4b8fcab994f361d76afde6b56a95a0b15a4b16f65c890b0cfcfd9a68d10136d64736f6c63430008110033",
  "linkReferences": {},
  "deployedLinkReferences": {}
}