{
  "_format": "hh-sol-artifact-1",
  "contractName": "InvyFi",
  "sourceName": "contracts/InvyFi.sol",
  "abi": [
    {
      "inputs": [
        {
          "internalType": "address",
          "name": "_pli",
          "type": "address"
        }
      ],
      "stateMutability": "nonpayable",
      "type": "constructor"
    },
    {
      "anonymous": false,
      "inputs": [
        {
          "indexed": false,
          "internalType": "string",
          "name": "_symbol",
          "type": "string"
        },
        {
          "indexed": false,
          "internalType": "address",
          "name": "_destination",
          "type": "address"
        }
      ],
      "name": "KeyAddressAdded",
      "type": "event"
    },
    {
      "anonymous": false,
      "inputs": [
        {
          "indexed": false,
          "internalType": "address",
          "name": "_lender",
          "type": "address"
        },
        {
          "indexed": false,
          "internalType": "uint256",
          "name": "_amount",
          "type": "uint256"
        },
        {
          "indexed": false,
          "internalType": "uint256",
          "name": "_lendingid",
          "type": "uint256"
        }
      ],
      "name": "LendingOffered",
      "type": "event"
    },
    {
      "anonymous": false,
      "inputs": [
        {
          "indexed": false,
          "internalType": "address",
          "name": "_borrower",
          "type": "address"
        },
        {
          "indexed": false,
          "internalType": "string",
          "name": "_status",
          "type": "string"
        }
      ],
      "name": "LoanAcceptStatus",
      "type": "event"
    },
    {
      "anonymous": false,
      "inputs": [
        {
          "indexed": false,
          "internalType": "address",
          "name": "_lender",
          "type": "address"
        },
        {
          "indexed": false,
          "internalType": "uint256",
          "name": "_loanreqid",
          "type": "uint256"
        },
        {
          "indexed": false,
          "internalType": "uint256",
          "name": "_amount",
          "type": "uint256"
        }
      ],
      "name": "LoanClaimed",
      "type": "event"
    },
    {
      "anonymous": false,
      "inputs": [
        {
          "indexed": false,
          "internalType": "address",
          "name": "_borrower",
          "type": "address"
        },
        {
          "indexed": false,
          "internalType": "uint256",
          "name": "_loanreqid",
          "type": "uint256"
        },
        {
          "indexed": false,
          "internalType": "uint256",
          "name": "_amount",
          "type": "uint256"
        }
      ],
      "name": "LoanPaidBack",
      "type": "event"
    },
    {
      "anonymous": false,
      "inputs": [
        {
          "indexed": false,
          "internalType": "address",
          "name": "_borrower",
          "type": "address"
        },
        {
          "indexed": false,
          "internalType": "uint256",
          "name": "_amount",
          "type": "uint256"
        },
        {
          "indexed": false,
          "internalType": "uint256",
          "name": "_reqid",
          "type": "uint256"
        }
      ],
      "name": "LoanRequested",
      "type": "event"
    },
    {
      "anonymous": false,
      "inputs": [
        {
          "indexed": false,
          "internalType": "address",
          "name": "account",
          "type": "address"
        }
      ],
      "name": "Paused",
      "type": "event"
    },
    {
      "anonymous": false,
      "inputs": [
        {
          "indexed": true,
          "internalType": "bytes32",
          "name": "id",
          "type": "bytes32"
        }
      ],
      "name": "PluginCancelled",
      "type": "event"
    },
    {
      "anonymous": false,
      "inputs": [
        {
          "indexed": true,
          "internalType": "bytes32",
          "name": "id",
          "type": "bytes32"
        }
      ],
      "name": "PluginFulfilled",
      "type": "event"
    },
    {
      "anonymous": false,
      "inputs": [
        {
          "indexed": true,
          "internalType": "bytes32",
          "name": "id",
          "type": "bytes32"
        }
      ],
      "name": "PluginRequested",
      "type": "event"
    },
    {
      "anonymous": false,
      "inputs": [
        {
          "indexed": false,
          "internalType": "address",
          "name": "account",
          "type": "address"
        }
      ],
      "name": "Unpaused",
      "type": "event"
    },
    {
      "anonymous": false,
      "inputs": [
        {
          "indexed": false,
          "internalType": "address",
          "name": "_to",
          "type": "address"
        },
        {
          "indexed": false,
          "internalType": "bool",
          "name": "_flag",
          "type": "bool"
        }
      ],
      "name": "WhiteListed",
      "type": "event"
    },
    {
      "inputs": [
        {
          "internalType": "uint256",
          "name": "_loanReqId",
          "type": "uint256"
        },
        {
          "internalType": "uint256",
          "name": "_loanAmountOffered",
          "type": "uint256"
        },
        {
          "internalType": "uint256",
          "name": "_interestRate",
          "type": "uint256"
        },
        {
          "internalType": "uint256",
          "name": "_daysToExpire",
          "type": "uint256"
        },
        {
          "internalType": "enum InvyFi.Assets",
          "name": "_assets",
          "type": "uint8"
        }
      ],
      "name": "AcceptLoanRequestAndLend",
      "outputs": [],
      "stateMutability": "payable",
      "type": "function"
    },
    {
      "inputs": [],
      "name": "ONE_DAY",
      "outputs": [
        {
          "internalType": "uint256",
          "name": "",
          "type": "uint256"
        }
      ],
      "stateMutability": "view",
      "type": "function"
    },
    {
      "inputs": [
        {
          "internalType": "uint256",
          "name": "_loanReqId",
          "type": "uint256"
        },
        {
          "internalType": "enum InvyFi.State",
          "name": "state",
          "type": "uint8"
        }
      ],
      "name": "acceptOrDenyLoanOffer",
      "outputs": [],
      "stateMutability": "nonpayable",
      "type": "function"
    },
    {
      "inputs": [
        {
          "internalType": "uint256",
          "name": "_lendingId",
          "type": "uint256"
        }
      ],
      "name": "claimLoan",
      "outputs": [],
      "stateMutability": "nonpayable",
      "type": "function"
    },
    {
      "inputs": [
        {
          "internalType": "uint256",
          "name": "_invoiceAmount",
          "type": "uint256"
        },
        {
          "internalType": "uint256",
          "name": "_loanEligibility",
          "type": "uint256"
        },
        {
          "internalType": "uint256",
          "name": "_loanToAcquire",
          "type": "uint256"
        },
        {
          "internalType": "address",
          "name": "_loanRequestedIn",
          "type": "address"
        },
        {
          "internalType": "uint256",
          "name": "_tokenId",
          "type": "uint256"
        }
      ],
      "name": "createLoanRequest",
      "outputs": [
        {
          "internalType": "uint256",
          "name": "",
          "type": "uint256"
        }
      ],
      "stateMutability": "nonpayable",
      "type": "function"
    },
    {
      "inputs": [
        {
          "internalType": "string",
          "name": "",
          "type": "string"
        }
      ],
      "name": "keyMappings",
      "outputs": [
        {
          "internalType": "address",
          "name": "",
          "type": "address"
        }
      ],
      "stateMutability": "view",
      "type": "function"
    },
    {
      "inputs": [
        {
          "internalType": "uint256",
          "name": "",
          "type": "uint256"
        }
      ],
      "name": "lendingDetails",
      "outputs": [
        {
          "internalType": "uint256",
          "name": "lendingId",
          "type": "uint256"
        },
        {
          "internalType": "uint256",
          "name": "loanReqId",
          "type": "uint256"
        },
        {
          "internalType": "uint256",
          "name": "lendingAmount",
          "type": "uint256"
        },
        {
          "internalType": "uint256",
          "name": "earnings",
          "type": "uint256"
        },
        {
          "internalType": "address",
          "name": "lender",
          "type": "address"
        },
        {
          "internalType": "enum InvyFi.State",
          "name": "state",
          "type": "uint8"
        },
        {
          "internalType": "bool",
          "name": "isLoanClaimedBack",
          "type": "bool"
        }
      ],
      "stateMutability": "view",
      "type": "function"
    },
    {
      "inputs": [
        {
          "internalType": "address",
          "name": "",
          "type": "address"
        },
        {
          "internalType": "uint256",
          "name": "",
          "type": "uint256"
        }
      ],
      "name": "loanBorrower",
      "outputs": [
        {
          "internalType": "uint256",
          "name": "loanReqId",
          "type": "uint256"
        },
        {
          "internalType": "uint256",
          "name": "invoiceAmount",
          "type": "uint256"
        },
        {
          "internalType": "uint256",
          "name": "loanEligibility",
          "type": "uint256"
        },
        {
          "internalType": "uint256",
          "name": "loanAcquired",
          "type": "uint256"
        },
        {
          "internalType": "address",
          "name": "loanRequestedIn",
          "type": "address"
        },
        {
          "internalType": "uint256",
          "name": "currentPrincipal",
          "type": "uint256"
        },
        {
          "internalType": "uint256",
          "name": "initialPrincipal",
          "type": "uint256"
        },
        {
          "internalType": "uint256",
          "name": "interestRate",
          "type": "uint256"
        },
        {
          "internalType": "uint256",
          "name": "expiresAt",
          "type": "uint256"
        },
        {
          "internalType": "uint256",
          "name": "createdAt",
          "type": "uint256"
        },
        {
          "internalType": "address",
          "name": "borrower",
          "type": "address"
        },
        {
          "internalType": "address",
          "name": "lender",
          "type": "address"
        },
        {
          "internalType": "uint256",
          "name": "nftTokenId",
          "type": "uint256"
        },
        {
          "internalType": "enum InvyFi.State",
          "name": "state",
          "type": "uint8"
        }
      ],
      "stateMutability": "view",
      "type": "function"
    },
    {
      "inputs": [
        {
          "internalType": "uint256",
          "name": "",
          "type": "uint256"
        }
      ],
      "name": "loanDetails",
      "outputs": [
        {
          "internalType": "uint256",
          "name": "loanReqId",
          "type": "uint256"
        },
        {
          "internalType": "uint256",
          "name": "invoiceAmount",
          "type": "uint256"
        },
        {
          "internalType": "uint256",
          "name": "loanEligibility",
          "type": "uint256"
        },
        {
          "internalType": "uint256",
          "name": "loanAcquired",
          "type": "uint256"
        },
        {
          "internalType": "address",
          "name": "loanRequestedIn",
          "type": "address"
        },
        {
          "internalType": "uint256",
          "name": "currentPrincipal",
          "type": "uint256"
        },
        {
          "internalType": "uint256",
          "name": "initialPrincipal",
          "type": "uint256"
        },
        {
          "internalType": "uint256",
          "name": "interestRate",
          "type": "uint256"
        },
        {
          "internalType": "uint256",
          "name": "expiresAt",
          "type": "uint256"
        },
        {
          "internalType": "uint256",
          "name": "createdAt",
          "type": "uint256"
        },
        {
          "internalType": "address",
          "name": "borrower",
          "type": "address"
        },
        {
          "internalType": "address",
          "name": "lender",
          "type": "address"
        },
        {
          "internalType": "uint256",
          "name": "nftTokenId",
          "type": "uint256"
        },
        {
          "internalType": "enum InvyFi.State",
          "name": "state",
          "type": "uint8"
        }
      ],
      "stateMutability": "view",
      "type": "function"
    },
    {
      "inputs": [
        {
          "internalType": "address",
          "name": "",
          "type": "address"
        },
        {
          "internalType": "uint256",
          "name": "",
          "type": "uint256"
        }
      ],
      "name": "loanIssuer",
      "outputs": [
        {
          "internalType": "uint256",
          "name": "lendingId",
          "type": "uint256"
        },
        {
          "internalType": "uint256",
          "name": "loanReqId",
          "type": "uint256"
        },
        {
          "internalType": "uint256",
          "name": "lendingAmount",
          "type": "uint256"
        },
        {
          "internalType": "uint256",
          "name": "earnings",
          "type": "uint256"
        },
        {
          "internalType": "address",
          "name": "lender",
          "type": "address"
        },
        {
          "internalType": "enum InvyFi.State",
          "name": "state",
          "type": "uint8"
        },
        {
          "internalType": "bool",
          "name": "isLoanClaimedBack",
          "type": "bool"
        }
      ],
      "stateMutability": "view",
      "type": "function"
    },
    {
      "inputs": [
        {
          "internalType": "uint256",
          "name": "_loanReqId",
          "type": "uint256"
        },
        {
          "internalType": "uint256",
          "name": "_amount",
          "type": "uint256"
        }
      ],
      "name": "loanPayBack",
      "outputs": [],
      "stateMutability": "payable",
      "type": "function"
    },
    {
      "inputs": [],
      "name": "owner",
      "outputs": [
        {
          "internalType": "address",
          "name": "",
          "type": "address"
        }
      ],
      "stateMutability": "view",
      "type": "function"
    },
    {
      "inputs": [],
      "name": "paused",
      "outputs": [
        {
          "internalType": "bool",
          "name": "",
          "type": "bool"
        }
      ],
      "stateMutability": "view",
      "type": "function"
    },
    {
      "inputs": [
        {
          "internalType": "address",
          "name": "_to",
          "type": "address"
        },
        {
          "internalType": "bool",
          "name": "_flag",
          "type": "bool"
        }
      ],
      "name": "setWhiteList",
      "outputs": [],
      "stateMutability": "nonpayable",
      "type": "function"
    },
    {
      "inputs": [
        {
          "internalType": "string",
          "name": "_name",
          "type": "string"
        },
        {
          "internalType": "address",
          "name": "_destination",
          "type": "address"
        }
      ],
      "name": "updateKeymappings",
      "outputs": [],
      "stateMutability": "nonpayable",
      "type": "function"
    },
    {
      "inputs": [
        {
          "internalType": "address",
          "name": "",
          "type": "address"
        }
      ],
      "name": "whitelist",
      "outputs": [
        {
          "internalType": "bool",
          "name": "",
          "type": "bool"
        }
      ],
      "stateMutability": "view",
      "type": "function"
    },
    {
      "stateMutability": "payable",
      "type": "receive"
    }
  ],
  "bytecode": "0x608060405260016004553480156200001657600080fd5b5060405162001fa538038062001fa58339810160408190526200003991620000b6565b60016006556007805460ff19169055600280546001600160a01b0319166001600160a01b038316179055600a8054336001600160a01b03199091161790556200008f6008620000ad602090811b6200125517901c565b620000a66009620000ad60201b620012551760201c565b50620000e8565b80546001019055565b600060208284031215620000c957600080fd5b81516001600160a01b0381168114620000e157600080fd5b9392505050565b611ead80620000f86000396000f3fe6080604052600436106100f75760003560e01c80638d14e1271161008a578063af7d86b911610059578063af7d86b914610391578063c8d5bc01146103b1578063e6a7622e146103f2578063f2b8789f1461041257600080fd5b80638d14e127146102f65780638da5cb5b146103165780639b19251a1461034e578063a3a8d31b1461037e57600080fd5b80635c975abb116100c65780635c975abb1461019e57806361261ab2146101c25780637aa489bb1461022b578063863e76db146102df57600080fd5b806309af8574146101035780630c0ed417146101365780634304f7e21461016957806353a469b31461017e57600080fd5b366100fe57005b600080fd5b34801561010f57600080fd5b5061012361011e366004611962565b610432565b6040519081526020015b60405180910390f35b34801561014257600080fd5b506101566101513660046119a9565b610780565b60405161012d9796959493929190611a0b565b61017c610177366004611a57565b6107ed565b005b34801561018a57600080fd5b5061017c610199366004611aa8565b61098c565b3480156101aa57600080fd5b5060075460ff165b604051901515815260200161012d565b3480156101ce57600080fd5b506101566101dd366004611aa8565b600e6020526000908152604090208054600182015460028301546003840154600490940154929391929091906001600160a01b0381169060ff600160a01b8204811691600160a81b90041687565b34801561023757600080fd5b506102c5610246366004611aa8565b600c60208190526000918252604090912080546001820154600283015460038401546004850154600586015460068701546007880154600889015460098a0154600a8b0154600b8c01549c8c0154600d909c01549a9c999b989a97996001600160a01b0397881699969895979496939592949182169391169160ff168e565b60405161012d9e9d9c9b9a99989796959493929190611ac1565b3480156102eb57600080fd5b506101236201518081565b34801561030257600080fd5b5061017c610311366004611b5a565b610c45565b34801561032257600080fd5b50600a54610336906001600160a01b031681565b6040516001600160a01b03909116815260200161012d565b34801561035a57600080fd5b506101b2610369366004611b91565b600b6020526000908152604090205460ff1681565b61017c61038c366004611bac565b610cf3565b34801561039d57600080fd5b506102c56103ac3660046119a9565b610e71565b3480156103bd57600080fd5b506103366103cc366004611c71565b80516020818301810180516010825292820191909301209152546001600160a01b031681565b3480156103fe57600080fd5b5061017c61040d366004611ca6565b610f0f565b34801561041e57600080fd5b5061017c61042d366004611ccf565b611193565b600061043c61125e565b600061044760085490565b9050604051806101c0016040528061045e60085490565b8152602001888152602001878152602001868152602001856001600160a01b031681526020016000815260200160008152602001600081526020016000815260200160008152602001336001600160a01b0316815260200160006001600160a01b03168152602001848152602001600060078111156104df576104df6119d3565b60078111156104f0576104f06119d3565b9052600c60006104ff60085490565b8152602080820192909252604090810160002083518155918301516001808401919091559083015160028301556060830151600383015560808301516004830180546001600160a01b03199081166001600160a01b039384161790915560a0850151600585015560c0850151600685015560e085015160078086019190915561010086015160088601556101208601516009860155610140860151600a860180548416918516919091179055610160860151600b860180549093169316929092179055610180840151600c8401556101a0840151600d840180549193909260ff199092169184908111156105f5576105f56119d3565b021790555050336000908152600d602052604081209150600c9061061860085490565b81526020808201929092526040016000908120835460018181018655948352929091208154600e909302019182558281015482840155600280820154908301556003808201549083015560048082015490830180546001600160a01b03199081166001600160a01b03938416179091556005808401549085015560068084015490850155600780840154818601556008808501549086015560098085015490860155600a8085015490860180548416918516919091179055600b8085015490860180549093169316929092179055600c8083015490840155600d808301549084018054939560ff90921693909260ff199091169190849081111561071e5761071e6119d3565b02179055505050610733600880546001019055565b7f7468760830aff5679376e50470c0493d21c88c599388e89b08c9512b3f3fbc7d338861075f60085490565b60405161076e93929190611d1d565b60405180910390a19695505050505050565b600f602052816000526040600020818154811061079c57600080fd5b60009182526020909120600590910201805460018201546002830154600384015460049094015492955090935091906001600160a01b0381169060ff600160a01b8204811691600160a81b90041687565b6107f561125e565b42600061080562015180856112a6565b9050600061081383836112bb565b6000898152600c60205260409020600881018290556009810185905560038101899055600681018990556005810189905560078101889055600b810180546001600160a01b03191633179055600d01805491925060019160ff1916828002179055506001846003811115610889576108896119d3565b036108c8576108c88760106040516108aa9062504c4960e81b815260030190565b908152604051908190036020019020546001600160a01b03166112c7565b60028460038111156108dc576108dc6119d3565b036108fd576108fd8760106040516108aa906243474f60e81b815260030190565b6003846003811115610911576109116119d3565b03610935576109358760106040516108aa90655553504c555360d01b815260060190565b61093f88886112e9565b7fbb79982110a43cea0c37e81a30713ae2c51acdb54ff84b994f6d0ffad72eaebc338861096b60095490565b60405161097a93929190611d1d565b60405180910390a15050505050505050565b61099461125e565b6000818152600e60209081526040808320815160e081018352815481526001820154938101939093526002810154918301919091526003810154606083015260048101546001600160a01b038116608084015260a0830190600160a01b900460ff166007811115610a0757610a076119d3565b6007811115610a1857610a186119d3565b815260049190910154600160a81b900460ff161515602091820152818101516000908152600c90915260409020600b01549091506001600160a01b03163314610aa85760405162461bcd60e51b815260206004820152601a60248201527f4f6e6c79206c656e6465722063616e20636c61696d206261636b00000000000060448201526064015b60405180910390fd5b6000828152600e6020526040902060040154600160a81b900460ff1615610b085760405162461bcd60e51b8152602060048201526014602482015273131bd85b88185b1c9958591e4818db185a5b595960621b6044820152606401610a9f565b60036020808301516000908152600c90915260409020600d015460ff166007811115610b3657610b366119d3565b14610b995760405162461bcd60e51b815260206004820152602d60248201527f4f6e6c7920746865206c6f616e2063616e2062652070616964206261636b206360448201526c185b8818994818db185a5b5959609a1b6064820152608401610a9f565b6000828152600e602090815260408083206004808201805461ffff60a01b1916604160a21b179055600290910154858401518552600c909352922090910154610bec91906001600160a01b0316336114dd565b7f5a44e54e6176ee37f7560c3927abc3a9ff36b91a4e176e99e4349d314f0b812b338260200151600e600086815260200190815260200160002060020154604051610c3993929190611d1d565b60405180910390a15050565b600a546001600160a01b03163314610c975760405162461bcd60e51b81526020600482015260156024820152746f6e6c79206f776e65722063616e2075706461746560581b6044820152606401610a9f565b6001600160a01b0382166000818152600b6020908152604091829020805460ff19168515159081179091558251938452908301527f84ac0234e7a1ba4fc29d3f83d9bb91c347b3be5a168a035675f8b5bb1d4b1d7c9101610c39565b610cfb61125e565b6000828152600c60205260409020600a01546001600160a01b03163314610d645760405162461bcd60e51b815260206004820152601a60248201527f4f6e6c7920426f72726f7765722063616e20706179206261636b0000000000006044820152606401610a9f565b60026000838152600c60205260409020600d015460ff166007811115610d8c57610d8c6119d3565b14610de55760405162461bcd60e51b815260206004820152602360248201527f4f6e6c7920746865206163636570746564206c6f616e2063616e20706179206260448201526261636b60e81b6064820152608401610a9f565b6000828152600c6020526040902060050154610e0190826114ee565b6000838152600c602052604090206005810191909155600d8101805460ff1916600317905560040154610e3e9082906001600160a01b03166112c7565b7f99e4fcb2ed30f260349583791c95b0fc82f5283e7b45bf2168dfd659c208bdbd338383604051610c3993929190611d1d565b600d6020528160005260406000208181548110610e8d57600080fd5b60009182526020909120600e9091020180546001820154600283015460038401546004850154600586015460068701546007880154600889015460098a0154600a8b0154600b8c0154600c8d0154600d909d01549b9e50999c50979a96996001600160a01b039687169995989497939692959194831693919092169160ff168e565b610f1761125e565b6000828152600c60205260409020600a01546001600160a01b03163314610f935760405162461bcd60e51b815260206004820152602a60248201527f4f6e6c7920426f72726f7765722063616e20616363657074206f722044656e79604482015269103a34329037b33332b960b11b6064820152608401610a9f565b60016000838152600c60205260409020600d015460ff166007811115610fbb57610fbb6119d3565b146110205760405162461bcd60e51b815260206004820152602f60248201527f4f6e6c7920746865206f666665726564206c6f616e2063616e2062652061636360448201526e195c1d1959081bdc8819195b9a5959608a1b6064820152608401610a9f565b6000828152600c60205260409020600d01805482919060ff1916600183600781111561104e5761104e6119d3565b02179055506002816007811115611067576110676119d3565b036110f2576000828152600c6020526040902060038101546004820154600a909201546110a0926001600160a01b0390811691166114dd565b6040805133815260208101829052600881830152671058d8d95c1d195960c21b606082015290517f9fc23e5defa88077cb299bfde5885bd1534503d789719ea5a449c7c2244a7bc39181900360800190a15b6005816007811115611106576111066119d3565b0361118f576000828152600c6020526040902060038101546004820154600b9092015461113f926001600160a01b0390811691166114dd565b60408051338152602081018290526006918101919091526511195b9a595960d21b60608201527f9fc23e5defa88077cb299bfde5885bd1534503d789719ea5a449c7c2244a7bc390608001610c39565b5050565b600a546001600160a01b031633146111e55760405162461bcd60e51b81526020600482015260156024820152746f6e6c79206f776e65722063616e2075706461746560581b6044820152606401610a9f565b806010836040516111f69190611d62565b90815260405190819003602001812080546001600160a01b03939093166001600160a01b0319909316929092179091557fea875ad889ce70b5dafbf825355f0c4adcb3814f4ab2a1f1a0f80c39a431f45690610c399084908490611daa565b80546001019055565b60075460ff16156112a45760405162461bcd60e51b815260206004820152601060248201526f14185d5cd8589b194e881c185d5cd95960821b6044820152606401610a9f565b565b60006112b28284611dea565b90505b92915050565b60006112b28284611e01565b6112d23382846114fa565b6112dd3382846115c3565b61118f81333085611684565b6040518060e001604052806112fd60095490565b815260208101849052604081018390526000606082015233608082015260a0016001815260200160001515815250600e600061133860095490565b815260208082019290925260409081016000208351815591830151600183015582015160028201556060820151600382015560808201516004820180546001600160a01b039092166001600160a01b031983168117825560a0850151926001600160a81b03191617600160a01b8360078111156113b7576113b76119d3565b021790555060c0919091015160049091018054911515600160a81b0260ff60a81b19909216919091179055336000908152600f6020526040812090600e906113fe60095490565b81526020808201929092526040016000908120835460018181018655948352929091208154600590930201918255828101549282019290925560028083015490820155600380830154908201556004808301805491830180546001600160a01b031981166001600160a01b039094169384178255915460ff600160a01b91829004169391926001600160a81b031916909117908360078111156114a3576114a36119d3565b02179055506004918201549101805460ff60a81b1916600160a81b9283900460ff1615159092029190911790556009805460010190555050565b6114e982308386611684565b505050565b60006112b28284611e14565b6040516370a0823160e01b81526001600160a01b0384811660048301528291908416906370a0823190602401602060405180830381865afa158015611543573d6000803e3d6000fd5b505050506040513d601f19601f820116820180604052508101906115679190611e27565b10156114e95760405162461bcd60e51b815260206004820152602560248201527f496e567946793a20696e73756666696369656e742063757272656e63792062616044820152646c616e636560d81b6064820152608401610a9f565b604051636eb1769f60e11b81526001600160a01b03848116600483015230602483015282919084169063dd62ed3e90604401602060405180830381865afa158015611612573d6000803e3d6000fd5b505050506040513d601f19601f820116820180604052508101906116369190611e27565b10156114e95760405162461bcd60e51b815260206004820152601f60248201527f496e567946793a20696e73756666696369656e7420616c6c6f77616e63652e006044820152606401610a9f565b604080516001600160a01b0385811660248301528416604482015260648082018490528251808303909101815260849091019091526020810180516001600160e01b03166323b872dd60e01b1790526116de9085906116e4565b50505050565b6000611739826040518060400160405280602081526020017f5361666545524332303a206c6f772d6c6576656c2063616c6c206661696c6564815250856001600160a01b03166117b69092919063ffffffff16565b8051909150156114e957808060200190518101906117579190611e40565b6114e95760405162461bcd60e51b815260206004820152602a60248201527f5361666545524332303a204552433230206f7065726174696f6e20646964206e6044820152691bdd081cdd58d8d9595960b21b6064820152608401610a9f565b60606117c584846000856117cd565b949350505050565b60608247101561182e5760405162461bcd60e51b815260206004820152602660248201527f416464726573733a20696e73756666696369656e742062616c616e636520666f6044820152651c8818d85b1b60d21b6064820152608401610a9f565b600080866001600160a01b0316858760405161184a9190611d62565b60006040518083038185875af1925050503d8060008114611887576040519150601f19603f3d011682016040523d82523d6000602084013e61188c565b606091505b509150915061189d878383876118a8565b979650505050505050565b60608315611917578251600003611910576001600160a01b0385163b6119105760405162461bcd60e51b815260206004820152601d60248201527f416464726573733a2063616c6c20746f206e6f6e2d636f6e74726163740000006044820152606401610a9f565b50816117c5565b6117c5838381511561192c5781518083602001fd5b8060405162461bcd60e51b8152600401610a9f9190611e64565b80356001600160a01b038116811461195d57600080fd5b919050565b600080600080600060a0868803121561197a57600080fd5b85359450602086013593506040860135925061199860608701611946565b949793965091946080013592915050565b600080604083850312156119bc57600080fd5b6119c583611946565b946020939093013593505050565b634e487b7160e01b600052602160045260246000fd5b60088110611a0757634e487b7160e01b600052602160045260246000fd5b9052565b8781526020810187905260408101869052606081018590526001600160a01b038416608082015260e08101611a4360a08301856119e9565b82151560c083015298975050505050505050565b600080600080600060a08688031215611a6f57600080fd5b85359450602086013593506040860135925060608601359150608086013560048110611a9a57600080fd5b809150509295509295909350565b600060208284031215611aba57600080fd5b5035919050565b60006101c0820190508f82528e60208301528d60408301528c606083015260018060a01b03808d1660808401528b60a08401528a60c08401528960e084015288610100840152876101208401528087166101408401528086166101608401525083610180830152611b366101a08301846119e9565b9f9e505050505050505050505050505050565b8015158114611b5757600080fd5b50565b60008060408385031215611b6d57600080fd5b611b7683611946565b91506020830135611b8681611b49565b809150509250929050565b600060208284031215611ba357600080fd5b6112b282611946565b60008060408385031215611bbf57600080fd5b50508035926020909101359150565b634e487b7160e01b600052604160045260246000fd5b600082601f830112611bf557600080fd5b813567ffffffffffffffff80821115611c1057611c10611bce565b604051601f8301601f19908116603f01168101908282118183101715611c3857611c38611bce565b81604052838152866020858801011115611c5157600080fd5b836020870160208301376000602085830101528094505050505092915050565b600060208284031215611c8357600080fd5b813567ffffffffffffffff811115611c9a57600080fd5b6117c584828501611be4565b60008060408385031215611cb957600080fd5b82359150602083013560088110611b8657600080fd5b60008060408385031215611ce257600080fd5b823567ffffffffffffffff811115611cf957600080fd5b611d0585828601611be4565b925050611d1460208401611946565b90509250929050565b6001600160a01b039390931683526020830191909152604082015260600190565b60005b83811015611d59578181015183820152602001611d41565b50506000910152565b60008251611d74818460208701611d3e565b9190910192915050565b60008151808452611d96816020860160208601611d3e565b601f01601f19169290920160200192915050565b604081526000611dbd6040830185611d7e565b905060018060a01b03831660208301529392505050565b634e487b7160e01b600052601160045260246000fd5b80820281158282048414176112b5576112b5611dd4565b808201808211156112b5576112b5611dd4565b818103818111156112b5576112b5611dd4565b600060208284031215611e3957600080fd5b5051919050565b600060208284031215611e5257600080fd5b8151611e5d81611b49565b9392505050565b6020815260006112b26020830184611d7e56fea26469706673582212203ba4bed87a5187c76b3554d47428aa4f4fe25191fe82760710724a98d09a106f64736f6c63430008110033",
  "linkReferences": {},
  "deployedLinkReferences": {}
}