{
  "_format": "hh-sol-artifact-1",
  "contractName": "InvyFi",
  "sourceName": "contracts/InvyFi.sol",
  "abi": [
    {
      "inputs": [
        {
          "internalType": "address",
          "name": "_pli",
          "type": "address"
        }
      ],
      "stateMutability": "nonpayable",
      "type": "constructor"
    },
    {
      "anonymous": false,
      "inputs": [
        {
          "indexed": false,
          "internalType": "string",
          "name": "_symbol",
          "type": "string"
        },
        {
          "indexed": false,
          "internalType": "address",
          "name": "_destination",
          "type": "address"
        }
      ],
      "name": "KeyAddressAdded",
      "type": "event"
    },
    {
      "anonymous": false,
      "inputs": [
        {
          "indexed": false,
          "internalType": "address",
          "name": "_lender",
          "type": "address"
        },
        {
          "indexed": false,
          "internalType": "uint256",
          "name": "_amount",
          "type": "uint256"
        },
        {
          "indexed": false,
          "internalType": "uint256",
          "name": "_lendingid",
          "type": "uint256"
        }
      ],
      "name": "LendingOffered",
      "type": "event"
    },
    {
      "anonymous": false,
      "inputs": [
        {
          "indexed": false,
          "internalType": "address",
          "name": "_borrower",
          "type": "address"
        },
        {
          "indexed": false,
          "internalType": "string",
          "name": "_status",
          "type": "string"
        }
      ],
      "name": "LoanAcceptOrDenyStatus",
      "type": "event"
    },
    {
      "anonymous": false,
      "inputs": [
        {
          "indexed": false,
          "internalType": "address",
          "name": "_lender",
          "type": "address"
        },
        {
          "indexed": false,
          "internalType": "uint256",
          "name": "_loanreqid",
          "type": "uint256"
        },
        {
          "indexed": false,
          "internalType": "uint256",
          "name": "_amount",
          "type": "uint256"
        }
      ],
      "name": "LoanClaimed",
      "type": "event"
    },
    {
      "anonymous": false,
      "inputs": [
        {
          "indexed": false,
          "internalType": "address",
          "name": "_lender",
          "type": "address"
        },
        {
          "indexed": false,
          "internalType": "uint256",
          "name": "_loanreqid",
          "type": "uint256"
        },
        {
          "indexed": false,
          "internalType": "uint256",
          "name": "_amount",
          "type": "uint256"
        }
      ],
      "name": "LoanClaimedSinceNotAccepted",
      "type": "event"
    },
    {
      "anonymous": false,
      "inputs": [
        {
          "indexed": false,
          "internalType": "address",
          "name": "_borrower",
          "type": "address"
        },
        {
          "indexed": false,
          "internalType": "uint256",
          "name": "_loanreqid",
          "type": "uint256"
        },
        {
          "indexed": false,
          "internalType": "uint256",
          "name": "_amount",
          "type": "uint256"
        }
      ],
      "name": "LoanPaidBack",
      "type": "event"
    },
    {
      "anonymous": false,
      "inputs": [
        {
          "indexed": false,
          "internalType": "address",
          "name": "_borrower",
          "type": "address"
        },
        {
          "indexed": false,
          "internalType": "uint256",
          "name": "_amount",
          "type": "uint256"
        },
        {
          "indexed": false,
          "internalType": "uint256",
          "name": "_loanId",
          "type": "uint256"
        }
      ],
      "name": "LoanRequested",
      "type": "event"
    },
    {
      "anonymous": false,
      "inputs": [
        {
          "indexed": false,
          "internalType": "address",
          "name": "account",
          "type": "address"
        }
      ],
      "name": "Paused",
      "type": "event"
    },
    {
      "anonymous": false,
      "inputs": [
        {
          "indexed": true,
          "internalType": "bytes32",
          "name": "id",
          "type": "bytes32"
        }
      ],
      "name": "PluginCancelled",
      "type": "event"
    },
    {
      "anonymous": false,
      "inputs": [
        {
          "indexed": true,
          "internalType": "bytes32",
          "name": "id",
          "type": "bytes32"
        }
      ],
      "name": "PluginFulfilled",
      "type": "event"
    },
    {
      "anonymous": false,
      "inputs": [
        {
          "indexed": true,
          "internalType": "bytes32",
          "name": "id",
          "type": "bytes32"
        }
      ],
      "name": "PluginRequested",
      "type": "event"
    },
    {
      "anonymous": false,
      "inputs": [
        {
          "indexed": false,
          "internalType": "address",
          "name": "account",
          "type": "address"
        }
      ],
      "name": "Unpaused",
      "type": "event"
    },
    {
      "anonymous": false,
      "inputs": [
        {
          "indexed": false,
          "internalType": "address",
          "name": "_to",
          "type": "address"
        },
        {
          "indexed": false,
          "internalType": "bool",
          "name": "_flag",
          "type": "bool"
        }
      ],
      "name": "WhiteListed",
      "type": "event"
    },
    {
      "inputs": [
        {
          "internalType": "uint256",
          "name": "_loanReqId",
          "type": "uint256"
        },
        {
          "internalType": "uint256",
          "name": "_loanAmountOffered",
          "type": "uint256"
        },
        {
          "internalType": "uint256",
          "name": "_interestRate",
          "type": "uint256"
        },
        {
          "internalType": "uint256",
          "name": "_daysToExpire",
          "type": "uint256"
        },
        {
          "internalType": "enum InvyFi.Assets",
          "name": "_assets",
          "type": "uint8"
        }
      ],
      "name": "AcceptLoanRequestAndLend",
      "outputs": [],
      "stateMutability": "payable",
      "type": "function"
    },
    {
      "inputs": [],
      "name": "ONE_DAY",
      "outputs": [
        {
          "internalType": "uint256",
          "name": "",
          "type": "uint256"
        }
      ],
      "stateMutability": "view",
      "type": "function"
    },
    {
      "inputs": [
        {
          "internalType": "uint256",
          "name": "_lendingId",
          "type": "uint256"
        },
        {
          "internalType": "enum InvyFi.Status",
          "name": "_status",
          "type": "uint8"
        }
      ],
      "name": "acceptOrDenyOffer",
      "outputs": [],
      "stateMutability": "payable",
      "type": "function"
    },
    {
      "inputs": [
        {
          "internalType": "uint256",
          "name": "_lendingId",
          "type": "uint256"
        }
      ],
      "name": "claimBackSinceLoanNotAccepted",
      "outputs": [],
      "stateMutability": "payable",
      "type": "function"
    },
    {
      "inputs": [
        {
          "internalType": "uint256",
          "name": "_lendingId",
          "type": "uint256"
        }
      ],
      "name": "claimLoan",
      "outputs": [],
      "stateMutability": "payable",
      "type": "function"
    },
    {
      "inputs": [
        {
          "internalType": "uint256",
          "name": "_invoiceAmount",
          "type": "uint256"
        },
        {
          "internalType": "uint256",
          "name": "_loanEligibility",
          "type": "uint256"
        },
        {
          "internalType": "uint256",
          "name": "_loanToAcquire",
          "type": "uint256"
        },
        {
          "internalType": "address",
          "name": "_loanRequestedIn",
          "type": "address"
        },
        {
          "internalType": "uint256",
          "name": "_tokenId",
          "type": "uint256"
        }
      ],
      "name": "createLoanRequest",
      "outputs": [
        {
          "internalType": "uint256",
          "name": "",
          "type": "uint256"
        }
      ],
      "stateMutability": "nonpayable",
      "type": "function"
    },
    {
      "inputs": [
        {
          "internalType": "string",
          "name": "",
          "type": "string"
        }
      ],
      "name": "keyMappings",
      "outputs": [
        {
          "internalType": "address",
          "name": "",
          "type": "address"
        }
      ],
      "stateMutability": "view",
      "type": "function"
    },
    {
      "inputs": [
        {
          "internalType": "uint256",
          "name": "",
          "type": "uint256"
        }
      ],
      "name": "lendingDetails",
      "outputs": [
        {
          "internalType": "uint256",
          "name": "lendingId",
          "type": "uint256"
        },
        {
          "internalType": "uint256",
          "name": "loanReqId",
          "type": "uint256"
        },
        {
          "internalType": "uint256",
          "name": "lendingAmount",
          "type": "uint256"
        },
        {
          "internalType": "uint256",
          "name": "interestRate",
          "type": "uint256"
        },
        {
          "internalType": "uint256",
          "name": "earnings",
          "type": "uint256"
        },
        {
          "internalType": "uint256",
          "name": "initialPrincipal",
          "type": "uint256"
        },
        {
          "internalType": "uint256",
          "name": "currentPrincipal",
          "type": "uint256"
        },
        {
          "internalType": "uint256",
          "name": "createdAt",
          "type": "uint256"
        },
        {
          "internalType": "uint256",
          "name": "expiresAt",
          "type": "uint256"
        },
        {
          "internalType": "address",
          "name": "lender",
          "type": "address"
        },
        {
          "internalType": "enum InvyFi.Status",
          "name": "status",
          "type": "uint8"
        },
        {
          "internalType": "bool",
          "name": "isLoanClaimedBack",
          "type": "bool"
        }
      ],
      "stateMutability": "view",
      "type": "function"
    },
    {
      "inputs": [
        {
          "internalType": "address",
          "name": "",
          "type": "address"
        },
        {
          "internalType": "uint256",
          "name": "",
          "type": "uint256"
        }
      ],
      "name": "loanBorrower",
      "outputs": [
        {
          "internalType": "uint256",
          "name": "loanReqId",
          "type": "uint256"
        },
        {
          "internalType": "uint256",
          "name": "invoiceAmount",
          "type": "uint256"
        },
        {
          "internalType": "uint256",
          "name": "loanEligibility",
          "type": "uint256"
        },
        {
          "internalType": "uint256",
          "name": "loanToAcquire",
          "type": "uint256"
        },
        {
          "internalType": "address",
          "name": "loanRequestedIn",
          "type": "address"
        },
        {
          "internalType": "address",
          "name": "borrower",
          "type": "address"
        },
        {
          "internalType": "uint256",
          "name": "nftTokenId",
          "type": "uint256"
        },
        {
          "internalType": "enum InvyFi.Status",
          "name": "status",
          "type": "uint8"
        }
      ],
      "stateMutability": "view",
      "type": "function"
    },
    {
      "inputs": [
        {
          "internalType": "uint256",
          "name": "",
          "type": "uint256"
        }
      ],
      "name": "loanDetails",
      "outputs": [
        {
          "internalType": "uint256",
          "name": "loanReqId",
          "type": "uint256"
        },
        {
          "internalType": "uint256",
          "name": "invoiceAmount",
          "type": "uint256"
        },
        {
          "internalType": "uint256",
          "name": "loanEligibility",
          "type": "uint256"
        },
        {
          "internalType": "uint256",
          "name": "loanToAcquire",
          "type": "uint256"
        },
        {
          "internalType": "address",
          "name": "loanRequestedIn",
          "type": "address"
        },
        {
          "internalType": "address",
          "name": "borrower",
          "type": "address"
        },
        {
          "internalType": "uint256",
          "name": "nftTokenId",
          "type": "uint256"
        },
        {
          "internalType": "enum InvyFi.Status",
          "name": "status",
          "type": "uint8"
        }
      ],
      "stateMutability": "view",
      "type": "function"
    },
    {
      "inputs": [
        {
          "internalType": "address",
          "name": "",
          "type": "address"
        },
        {
          "internalType": "uint256",
          "name": "",
          "type": "uint256"
        }
      ],
      "name": "loanIssuer",
      "outputs": [
        {
          "internalType": "uint256",
          "name": "lendingId",
          "type": "uint256"
        },
        {
          "internalType": "uint256",
          "name": "loanReqId",
          "type": "uint256"
        },
        {
          "internalType": "uint256",
          "name": "lendingAmount",
          "type": "uint256"
        },
        {
          "internalType": "uint256",
          "name": "interestRate",
          "type": "uint256"
        },
        {
          "internalType": "uint256",
          "name": "earnings",
          "type": "uint256"
        },
        {
          "internalType": "uint256",
          "name": "initialPrincipal",
          "type": "uint256"
        },
        {
          "internalType": "uint256",
          "name": "currentPrincipal",
          "type": "uint256"
        },
        {
          "internalType": "uint256",
          "name": "createdAt",
          "type": "uint256"
        },
        {
          "internalType": "uint256",
          "name": "expiresAt",
          "type": "uint256"
        },
        {
          "internalType": "address",
          "name": "lender",
          "type": "address"
        },
        {
          "internalType": "enum InvyFi.Status",
          "name": "status",
          "type": "uint8"
        },
        {
          "internalType": "bool",
          "name": "isLoanClaimedBack",
          "type": "bool"
        }
      ],
      "stateMutability": "view",
      "type": "function"
    },
    {
      "inputs": [
        {
          "internalType": "uint256",
          "name": "_loanReqId",
          "type": "uint256"
        },
        {
          "internalType": "uint256",
          "name": "_amount",
          "type": "uint256"
        },
        {
          "internalType": "enum InvyFi.Status",
          "name": "_status",
          "type": "uint8"
        },
        {
          "internalType": "uint256",
          "name": "_lendingId",
          "type": "uint256"
        }
      ],
      "name": "loanPayBack",
      "outputs": [],
      "stateMutability": "payable",
      "type": "function"
    },
    {
      "inputs": [],
      "name": "owner",
      "outputs": [
        {
          "internalType": "address",
          "name": "",
          "type": "address"
        }
      ],
      "stateMutability": "view",
      "type": "function"
    },
    {
      "inputs": [],
      "name": "paused",
      "outputs": [
        {
          "internalType": "bool",
          "name": "",
          "type": "bool"
        }
      ],
      "stateMutability": "view",
      "type": "function"
    },
    {
      "inputs": [
        {
          "internalType": "address",
          "name": "_to",
          "type": "address"
        },
        {
          "internalType": "bool",
          "name": "_flag",
          "type": "bool"
        }
      ],
      "name": "setWhiteList",
      "outputs": [],
      "stateMutability": "nonpayable",
      "type": "function"
    },
    {
      "inputs": [
        {
          "internalType": "address",
          "name": "_newOwneraddress",
          "type": "address"
        }
      ],
      "name": "transferContractOwnership",
      "outputs": [],
      "stateMutability": "nonpayable",
      "type": "function"
    },
    {
      "inputs": [
        {
          "internalType": "string",
          "name": "_name",
          "type": "string"
        },
        {
          "internalType": "address",
          "name": "_destination",
          "type": "address"
        }
      ],
      "name": "updateKeymappings",
      "outputs": [],
      "stateMutability": "nonpayable",
      "type": "function"
    },
    {
      "inputs": [
        {
          "internalType": "address",
          "name": "",
          "type": "address"
        }
      ],
      "name": "whitelist",
      "outputs": [
        {
          "internalType": "bool",
          "name": "",
          "type": "bool"
        }
      ],
      "stateMutability": "view",
      "type": "function"
    },
    {
      "stateMutability": "payable",
      "type": "receive"
    }
  ],
  "bytecode": "0x608060405260016004553480156200001657600080fd5b506040516200256a3803806200256a8339810160408190526200003991620000b6565b60016006556007805460ff19169055600280546001600160a01b0319166001600160a01b038316179055600a8054336001600160a01b03199091161790556200008f6008620000ad602090811b620016d017901c565b620000a66009620000ad60201b620016d01760201c565b50620000e8565b80546001019055565b600060208284031215620000c957600080fd5b81516001600160a01b0381168114620000e157600080fd5b9392505050565b61247280620000f86000396000f3fe60806040526004361061010d5760003560e01c8063863e76db11610095578063a843c51f11610064578063a843c51f146103a2578063af7d86b9146103c2578063c8d5bc01146103e2578063d5e8d51c14610423578063f2b8789f1461043657600080fd5b8063863e76db146103035780638d14e1271461031a5780638da5cb5b1461033a5780639b19251a1461037257600080fd5b80635c975abb116100dc5780635c975abb146101ac57806361261ab2146101d057806363fd46931461025b5780637aa489bb1461026e57806384b4b125146102f057600080fd5b806309af8574146101195780630c0ed4171461014c5780634304f7e21461018457806353a469b31461019957600080fd5b3661011457005b600080fd5b34801561012557600080fd5b50610139610134366004611ed7565b610456565b6040519081526020015b60405180910390f35b34801561015857600080fd5b5061016c610167366004611f1e565b6106e5565b6040516101439c9b9a99989796959493929190611f80565b610197610192366004611ff4565b610774565b005b6101976101a7366004612045565b610959565b3480156101b857600080fd5b5060075460ff165b6040519015158152602001610143565b3480156101dc57600080fd5b5061016c6101eb366004612045565b600e602052600090815260409020805460018201546002830154600384015460048501546005860154600687015460078801546008890154600990990154979896979596949593949293919290916001600160a01b0381169060ff600160a01b8204811691600160a81b9004168c565b610197610269366004612045565b610c65565b34801561027a57600080fd5b506102dc610289366004612045565b600c602052600090815260409020805460018201546002830154600384015460048501546005860154600687015460079097015495969495939492936001600160a01b0392831693919092169160ff1688565b60405161014398979695949392919061205e565b6101976102fe3660046120c2565b610ed5565b34801561030f57600080fd5b506101396201518081565b34801561032657600080fd5b5061019761033536600461210d565b611136565b34801561034657600080fd5b50600a5461035a906001600160a01b031681565b6040516001600160a01b039091168152602001610143565b34801561037e57600080fd5b506101c061038d366004612144565b600b6020526000908152604090205460ff1681565b3480156103ae57600080fd5b506101976103bd366004612144565b6111e4565b3480156103ce57600080fd5b506102dc6103dd366004611f1e565b611254565b3480156103ee57600080fd5b5061035a6103fd366004612202565b80516020818301810180516010825292820191909301209152546001600160a01b031681565b610197610431366004612237565b6112c6565b34801561044257600080fd5b50610197610451366004612263565b61160e565b60006104606116d9565b336000908152600b602052604090205460ff16151560011461049d5760405162461bcd60e51b8152600401610494906122a8565b60405180910390fd5b60006104a860085490565b9050604051806101000160405280828152602001888152602001878152602001868152602001856001600160a01b03168152602001336001600160a01b031681526020018481526020016000600881111561050557610505611f48565b600881111561051657610516611f48565b90526000828152600c602090815260409182902083518155908301516001808301919091559183015160028201556060830151600382015560808301516004820180546001600160a01b039283166001600160a01b03199182161790915560a085015160058401805491909316911617905560c0830151600682015560e083015160078201805492939192909160ff19909116908360088111156105bc576105bc611f48565b021790555050336000908152600d60209081526040808320858452600c835290832081546001808201845592855292909320835460089384029091019081558184015481830155600280850154908201556003808501549082015560048085015490820180546001600160a01b039283166001600160a01b0319918216179091556005808701549084018054919093169116179055600680850154908201556007808501549082018054959650919460ff90911693919260ff1990911691849081111561068b5761068b611f48565b021790555050506106a0600880546001019055565b7f7468760830aff5679376e50470c0493d21c88c599388e89b08c9512b3f3fbc7d3388836040516106d3939291906122d1565b60405180910390a19695505050505050565b600f602052816000526040600020818154811061070157600080fd5b60009182526020909120600a90910201805460018201546002830154600384015460048501546005860154600687015460078801546008890154600990990154979a5095985093969295919490939290916001600160a01b0381169060ff600160a01b8204811691600160a81b9004168c565b61077c6116d9565b336000908152600b602052604090205460ff1615156001146107b05760405162461bcd60e51b8152600401610494906122a8565b6000858152600c602052604081206007015460ff1660088111156107d6576107d6611f48565b146108185760405162461bcd60e51b81526020600482015260126024820152714e6f7420612076616c69642073746174757360701b6044820152606401610494565b4260006108286201518085611721565b905060006108368383611736565b9050600061084360095490565b9050600185600381111561085957610859611f48565b036108985761089888601060405161087a9062504c4960e81b815260030190565b908152604051908190036020019020546001600160a01b0316611742565b60028560038111156108ac576108ac611f48565b036108cd576108cd88601060405161087a906243474f60e81b815260030190565b60038560038111156108e1576108e1611f48565b036109055761090588601060405161087a90655553504c555360d01b815260060190565b6109138989838a8887611768565b7fbb79982110a43cea0c37e81a30713ae2c51acdb54ff84b994f6d0ffad72eaebc338983604051610946939291906122d1565b60405180910390a1505050505050505050565b6109616116d9565b336000908152600b602052604090205460ff1615156001146109955760405162461bcd60e51b8152600401610494906122a8565b6000818152600e60209081526040808320815161018081018352815481526001820154938101939093526002810154918301919091526003810154606083015260048101546080830152600581015460a0830152600681015460c0830152600781015460e083015260088082015461010084015260098201546001600160a01b038116610120850152610140840191600160a01b90910460ff1690811115610a3f57610a3f611f48565b6008811115610a5057610a50611f48565b815260099190910154600160a81b900460ff1615156020909101526101208101519091506001600160a01b03163314610acb5760405162461bcd60e51b815260206004820152601a60248201527f4f6e6c79206c656e6465722063616e20636c61696d206261636b0000000000006044820152606401610494565b6000828152600e6020526040902060090154600160a81b900460ff1615610b2b5760405162461bcd60e51b8152602060048201526014602482015273131bd85b88185b1c9958591e4818db185a5b595960621b6044820152606401610494565b60036020808301516000908152600c909152604090206007015460ff166008811115610b5957610b59611f48565b14610bbb5760405162461bcd60e51b815260206004820152602c60248201527f4f6e6c792050616964204261636b204c6f616e2063616e20626520636c61696d60448201526b32b210313c902632b73232b960a11b6064820152608401610494565b6000828152600e6020908152604080832060098101805461ffff60a01b1916604160a21b17905560020154848301518452600c90925290912060040154610c0c91906001600160a01b0316336119e9565b7f5a44e54e6176ee37f7560c3927abc3a9ff36b91a4e176e99e4349d314f0b812b338260200151600e600086815260200190815260200160002060020154604051610c59939291906122d1565b60405180910390a15050565b610c6d6116d9565b336000908152600b602052604090205460ff161515600114610ca15760405162461bcd60e51b8152600401610494906122a8565b6000818152600e60209081526040808320815161018081018352815481526001820154938101939093526002810154918301919091526003810154606083015260048101546080830152600581015460a0830152600681015460c0830152600781015460e083015260088082015461010084015260098201546001600160a01b038116610120850152610140840191600160a01b90910460ff1690811115610d4b57610d4b611f48565b6008811115610d5c57610d5c611f48565b815260099190910154600160a81b900460ff1615156020909101526101208101519091506001600160a01b03163314610dd75760405162461bcd60e51b815260206004820152601a60248201527f4f6e6c79206c656e6465722063616e20636c61696d206261636b0000000000006044820152606401610494565b6000828152600e6020526040902060090154600160a81b900460ff1615610e375760405162461bcd60e51b8152602060048201526014602482015273131bd85b88185b1c9958591e4818db185a5b595960621b6044820152606401610494565b6000828152600e6020908152604080832060098101805461ffff60a01b1916602160a31b17905560020154848301518452600c90925290912060040154610e8891906001600160a01b0316336119e9565b7fc11963b15f88321dcfd9c282f2a5bb7b275c20c13a7749f453ae0643532da947338260200151600e600086815260200190815260200160002060020154604051610c59939291906122d1565b610edd6116d9565b336000908152600b602052604090205460ff161515600114610f115760405162461bcd60e51b8152600401610494906122a8565b6000848152600c60209081526040808320815161010081018352815481526001820154938101939093526002810154918301919091526003810154606083015260048101546001600160a01b03908116608084015260058201541660a0830152600681015460c0830152600781015460e083019060ff166008811115610f9957610f99611f48565b6008811115610faa57610faa611f48565b8152505090508060a001516001600160a01b0316336001600160a01b0316146110155760405162461bcd60e51b815260206004820152601a60248201527f4f6e6c7920426f72726f7765722063616e20706179206261636b0000000000006044820152606401610494565b60028160e00151600881111561102d5761102d611f48565b1461107a5760405162461bcd60e51b815260206004820152601f60248201527f4f6e6c79204163636570746564204c6f616e2063616e20706179206261636b006044820152606401610494565b6000858152600c60205260409020600701805484919060ff191660018360088111156110a8576110a8611f48565b02179055506000828152600e60205260409020600901805484919060ff60a01b1916600160a01b8360088111156110e1576110e1611f48565b02179055506110f4848260800151611742565b7f99e4fcb2ed30f260349583791c95b0fc82f5283e7b45bf2168dfd659c208bdbd338686604051611127939291906122d1565b60405180910390a15050505050565b600a546001600160a01b031633146111885760405162461bcd60e51b81526020600482015260156024820152746f6e6c79206f776e65722063616e2075706461746560581b6044820152606401610494565b6001600160a01b0382166000818152600b6020908152604091829020805460ff19168515159081179091558251938452908301527f84ac0234e7a1ba4fc29d3f83d9bb91c347b3be5a168a035675f8b5bb1d4b1d7c9101610c59565b600a546001600160a01b031633146112485760405162461bcd60e51b815260206004820152602160248201527f4f6e6c79206f776e65722063616e207472616e73666572206f776e65727368696044820152600760fc1b6064820152608401610494565b611251816119f9565b50565b600d602052816000526040600020818154811061127057600080fd5b600091825260209091206008909102018054600182015460028301546003840154600485015460058601546006870154600790970154959850939650919490936001600160a01b03928316939092169160ff1688565b6112ce6116d9565b336000908152600b602052604090205460ff1615156001146113025760405162461bcd60e51b8152600401610494906122a8565b6000828152600e60209081526040808320815161018081018352815481526001820154938101939093526002810154918301919091526003810154606083015260048101546080830152600581015460a0830152600681015460c0830152600781015460e083015260088082015461010084015260098201546001600160a01b038116610120850152610140840191600160a01b90910460ff16908111156113ac576113ac611f48565b60088111156113bd576113bd611f48565b815260099190910154600160a81b900460ff161515602091820152818101516000908152600c90915260409020600501549091506001600160a01b0316331461145b5760405162461bcd60e51b815260206004820152602a60248201527f4f6e6c7920426f72726f7765722063616e20616363657074206f722044656e79604482015269103a34329037b33332b960b11b6064820152608401610494565b6001816101400151600881111561147457611474611f48565b146114d55760405162461bcd60e51b815260206004820152602b60248201527f4f6e6c79204f666665726564204c6f616e2063616e206265206163636570746560448201526a19081bdc8819195b9a595960aa1b6064820152608401610494565b6000838152600e60205260409020600901805483919060ff60a01b1916600160a01b83600881111561150957611509611f48565b0217905550604080516020810190915260008152600283600881111561153157611531611f48565b036115cf57604080830151602080850180516000908152600c909252838220600401549051825292902060050154611575926001600160a01b0390811691166119e9565b6020808301516000908152600c90915260409020600701805484919060ff191660018360088111156115a9576115a9611f48565b0217905550506040805180820190915260088152671050d0d15415115160c21b60208201525b7f9023397428beb52cc5d6d3382a78e748312f76860de055688ac423fe3f1a837d3382604051611600929190612342565b60405180910390a150505050565b600a546001600160a01b031633146116605760405162461bcd60e51b81526020600482015260156024820152746f6e6c79206f776e65722063616e2075706461746560581b6044820152606401610494565b806010836040516116719190612366565b90815260405190819003602001812080546001600160a01b03939093166001600160a01b0319909316929092179091557fea875ad889ce70b5dafbf825355f0c4adcb3814f4ab2a1f1a0f80c39a431f45690610c599084908490612382565b80546001019055565b60075460ff161561171f5760405162461bcd60e51b815260206004820152601060248201526f14185d5cd8589b194e881c185d5cd95960821b6044820152606401610494565b565b600061172d82846123c2565b90505b92915050565b600061172d82846123d9565b61174d338284611a2e565b611758338284611af7565b61176481333085611bb8565b5050565b60405180610180016040528085815260200187815260200186815260200184815260200160008152602001868152602001868152602001838152602001828152602001336001600160a01b03168152602001600160088111156117cd576117cd611f48565b60088111156117de576117de611f48565b815260006020918201819052868152600e8252604090819020835181559183015160018301558201516002820155606082015160038201556080820151600482015560a0820151600582015560c0820151600682015560e082015160078201556101008201516008808301919091556101208301516009830180546001600160a01b039092166001600160a01b03198316811782556101408601519391926001600160a81b0319161790600160a01b90849081111561189f5761189f611f48565b0217905550610160919091015160099182018054911515600160a81b0260ff60a81b19909216919091179055336000908152600f60209081526040808320888452600e8352908320815460018181018455928552929093208354600a90930201918255828101549082015560028083015490820155600380830154908201556004808301549082015560058083015490820155600680830154908201556007808301549082015560088083015481830155828401805494830180546001600160a01b031981166001600160a01b03979097169687178255915494959394600160a01b9081900460ff169491936001600160a81b03199093169091179184908111156119ac576119ac611f48565b0217905550600991820154908201805460ff60a81b1916600160a81b9283900460ff16151590920291909117905580546001019055505050505050565b6119f4828285611c29565b505050565b6001600160a01b038116611a0c57600080fd5b600a80546001600160a01b0319166001600160a01b0392909216919091179055565b6040516370a0823160e01b81526001600160a01b0384811660048301528291908416906370a0823190602401602060405180830381865afa158015611a77573d6000803e3d6000fd5b505050506040513d601f19601f82011682018060405250810190611a9b91906123ec565b10156119f45760405162461bcd60e51b815260206004820152602560248201527f496e567946793a20696e73756666696369656e742063757272656e63792062616044820152646c616e636560d81b6064820152608401610494565b604051636eb1769f60e11b81526001600160a01b03848116600483015230602483015282919084169063dd62ed3e90604401602060405180830381865afa158015611b46573d6000803e3d6000fd5b505050506040513d601f19601f82011682018060405250810190611b6a91906123ec565b10156119f45760405162461bcd60e51b815260206004820152601f60248201527f496e567946793a20696e73756666696369656e7420616c6c6f77616e63652e006044820152606401610494565b6040516001600160a01b0380851660248301528316604482015260648101829052611c239085906323b872dd60e01b906084015b60408051601f198184030181529190526020810180516001600160e01b03166001600160e01b031990931692909217909152611c59565b50505050565b6040516001600160a01b0383166024820152604481018290526119f490849063a9059cbb60e01b90606401611bec565b6000611cae826040518060400160405280602081526020017f5361666545524332303a206c6f772d6c6576656c2063616c6c206661696c6564815250856001600160a01b0316611d2b9092919063ffffffff16565b8051909150156119f45780806020019051810190611ccc9190612405565b6119f45760405162461bcd60e51b815260206004820152602a60248201527f5361666545524332303a204552433230206f7065726174696f6e20646964206e6044820152691bdd081cdd58d8d9595960b21b6064820152608401610494565b6060611d3a8484600085611d42565b949350505050565b606082471015611da35760405162461bcd60e51b815260206004820152602660248201527f416464726573733a20696e73756666696369656e742062616c616e636520666f6044820152651c8818d85b1b60d21b6064820152608401610494565b600080866001600160a01b03168587604051611dbf9190612366565b60006040518083038185875af1925050503d8060008114611dfc576040519150601f19603f3d011682016040523d82523d6000602084013e611e01565b606091505b5091509150611e1287838387611e1d565b979650505050505050565b60608315611e8c578251600003611e85576001600160a01b0385163b611e855760405162461bcd60e51b815260206004820152601d60248201527f416464726573733a2063616c6c20746f206e6f6e2d636f6e74726163740000006044820152606401610494565b5081611d3a565b611d3a8383815115611ea15781518083602001fd5b8060405162461bcd60e51b81526004016104949190612429565b80356001600160a01b0381168114611ed257600080fd5b919050565b600080600080600060a08688031215611eef57600080fd5b853594506020860135935060408601359250611f0d60608701611ebb565b949793965091946080013592915050565b60008060408385031215611f3157600080fd5b611f3a83611ebb565b946020939093013593505050565b634e487b7160e01b600052602160045260246000fd5b60098110611f7c57634e487b7160e01b600052602160045260246000fd5b9052565b6000610180820190508d82528c60208301528b60408301528a60608301528960808301528860a08301528760c08301528660e08301528561010083015260018060a01b038516610120830152611fda610140830185611f5e565b8215156101608301529d9c50505050505050505050505050565b600080600080600060a0868803121561200c57600080fd5b8535945060208601359350604086013592506060860135915060808601356004811061203757600080fd5b809150509295509295909350565b60006020828403121561205757600080fd5b5035919050565b8881526020810188905260408101879052606081018690526001600160a01b038581166080830152841660a082015260c0810183905261010081016120a660e0830184611f5e565b9998505050505050505050565b803560098110611ed257600080fd5b600080600080608085870312156120d857600080fd5b84359350602085013592506120ef604086016120b3565b9396929550929360600135925050565b801515811461125157600080fd5b6000806040838503121561212057600080fd5b61212983611ebb565b91506020830135612139816120ff565b809150509250929050565b60006020828403121561215657600080fd5b61172d82611ebb565b634e487b7160e01b600052604160045260246000fd5b600082601f83011261218657600080fd5b813567ffffffffffffffff808211156121a1576121a161215f565b604051601f8301601f19908116603f011681019082821181831017156121c9576121c961215f565b816040528381528660208588010111156121e257600080fd5b836020870160208301376000602085830101528094505050505092915050565b60006020828403121561221457600080fd5b813567ffffffffffffffff81111561222b57600080fd5b611d3a84828501612175565b6000806040838503121561224a57600080fd5b8235915061225a602084016120b3565b90509250929050565b6000806040838503121561227657600080fd5b823567ffffffffffffffff81111561228d57600080fd5b61229985828601612175565b92505061225a60208401611ebb565b6020808252600f908201526e139bdd081dda1a5d195b1a5cdd1959608a1b604082015260600190565b6001600160a01b039390931683526020830191909152604082015260600190565b60005b8381101561230d5781810151838201526020016122f5565b50506000910152565b6000815180845261232e8160208601602086016122f2565b601f01601f19169290920160200192915050565b6001600160a01b0383168152604060208201819052600090611d3a90830184612316565b600082516123788184602087016122f2565b9190910192915050565b6040815260006123956040830185612316565b905060018060a01b03831660208301529392505050565b634e487b7160e01b600052601160045260246000fd5b8082028115828204841417611730576117306123ac565b80820180821115611730576117306123ac565b6000602082840312156123fe57600080fd5b5051919050565b60006020828403121561241757600080fd5b8151612422816120ff565b9392505050565b60208152600061172d602083018461231656fea264697066735822122041ad2e23be116b4b353b1b795e6083bf59c0c6fd52bcbc5e49fdf2254d016c8664736f6c63430008110033",
  "linkReferences": {},
  "deployedLinkReferences": {}
}